:020000040800F2
:100000006820002021020008CB17000873130008A5
:10001000C91700086B040008011B0008000000005D
:10002000000000000000000000000000890100083E
:100030006D04000800000000CD010008FD19000853
:100040003B0200083B0200083B0200083B0200089C
:100050003B0200083B0200083B0200083B0200088C
:100060003B0200083B0200083B0200083B0200087C
:100070003B0200083B0200083B0200083B0200086C
:100080003B0200083B0200083B0200083B0200085C
:100090003B0200083B0200083B0200083B0200084C
:1000A0003B0200083B0200083B0200083B0200083C
:1000B0003B0200083B020008891A00083B020008C6
:1000C0003B0200083B0200083B0200083B0200081C
:1000D0003B0200083B0200083B0200083B0200080C
:1000E0003B0200083B0200083B02000800F002F857
:1000F00000F03AF80AA090E8000C82448344AAF188
:100100000107DA4501D100F02FF8AFF2090EBAE885
:100110000F0013F0010F18BFFB1A43F0010318473B
:100120003439000054390000103A24BF78C878C12F
:10013000FAD8520724BF30C830C144BF04680C60ED
:10014000704700000023002400250026103A28BF35
:1001500078C1FBD8520728BF30C148BF0B60704739
:100160001FB51FBD10B510BD00F045F91146FFF7D2
:10017000F7FF01F0D6FC00F063F903B4FFF7F2FFDC
:1001800003BC00F06BF90000224B19680868B0E866
:10019000F00F80F30988BFF36F8F4FF0000080F3FA
:1001A00011884EF00D0E70470000000006480068F0
:1001B000006880F3088862B661B6BFF34F8FBFF363
:1001C0006F8F00DF00BF00BF08ED00E0EFF3098094
:1001D000BFF36F8F0F4B1A6820E9F00F106008B55E
:1001E0004FF0500080F31188BFF34F8FBFF36F8F34
:1001F00002F012FB4FF0000080F31188BDE80840C8
:1002000019680868B0E8F00F80F30988BFF36F8FB2
:10021000704700BF14000020EFF305807047000016
:100220000948804709480047FEE7FEE7FEE7FEE78A
:10023000FEE7FEE7FEE7FEE7FEE7FEE704480549C6
:10024000054A064B70470000871A0008ED000008B9
:10025000681A002068200020681C0020681C00200C
:10026000032A40F2308010F0030C00F0158011F8E2
:10027000013BBCF1020F624498BF11F801CB00F8BA
:10028000013B38BF11F8013BA2F1040298BF00F80E
:1002900001CB38BF00F8013B11F0030300F0578099
:1002A000083AC0F0088051F8043B083A51F804CBF2
:1002B000A0E80810F5E7121D5CBF51F8043B40F8B8
:1002C000043BAFF30080D20724BF11F8013B11F8C3
:1002D00001CB48BF11F8012B24BF00F8013B00F807
:1002E00001CB48BF00F8012B704702F0FF0343EA3F
:1002F000032242EA024200F05EB84FF0000200B56D
:10030000134694469646203922BFA0E80C50A0E838
:100310000C50B1F12001BFF4F7AF090728BFA0E8E6
:100320000C5048BF0CC05DF804EB890028BF40F8B2
:10033000042B08BF704748BF20F8022B11F0804FF4
:1003400018BF00F8012B704770477047704710B511
:10035000203AC0F00B80B1E81850203AA0E81850BD
:10036000B1E81850A0E81850BFF4F5AF5FEA027C7E
:1003700024BFB1E81850A0E8185044BF18C918C0ED
:10038000BDE810405FEA827C24BF51F8043B40F88E
:10039000043B08BF7047D20728BF31F8023B48BF73
:1003A00011F8012B28BF20F8023B48BF00F8012BB1
:1003B00070474FF000020429C0F0128010F0030CC7
:1003C0003FF49DAFCCF1040CBCF1020F18BF00F854
:1003D000012BA8BF20F8022BA1EB0C01FFF78FBF68
:1003E0005FEAC17C24BF00F8012B00F8012B48BF55
:1003F00000F8012B7047754600F02CF8AE4605005A
:100400006946534620F00700854618B020B5FFF72F
:1004100015FFBDE820404FF000064FF000074FF0F9
:1004200000084FF0000B21F00701AC46ACE8C00912
:10043000ACE8C009ACE8C009ACE8C0098D4670471B
:1004400010B50446AFF300802046BDE81040FFF72A
:1004500094BE000000487047041A0020014918208B
:10046000ABBEFEE7260002007047FEE7704772B69B
:10047000FEE700002DE9F84FDFF8B8910024A9F15C
:10048000040B23460F2709F1040AABF1040EC9E05F
:100490000125A5402A40AA427DD1674ED1F804C06B
:1004A000ACEB0608B44532D014DCBCF1030F3AD0F3
:1004B00009DCBCF1000F2AD0BCF1010F1CD0BCF14B
:1004C000020F31D11DE0BCF1110F17D0BCF1120F9A
:1004D0002AD119E0B8F5881F19D006DCB8F5803F9D
:1004E00015D0B8F5801F1FD111E0B8F5001F0ED050
:1004F000B8F5041F18D10AE0CB6815E0CB681B1DC6
:1005000012E0CB6808330FE0CB680C330CE08B684B
:100510002BB1012B4FF0080303D0456104E0042305
:1005200002E0056100E00023FF2A01D8064601E051
:1005300000F104064FEA840501D9A5F12005D6F89B
:10054000008007FA05FC28EA0C0803FA05F548EADA
:100550000508C6F800804D68ED0062D5374DAE69DC
:1005600046F00106AE61AD6924F0030605F0010511
:100570000095334D06EB050CDCF80850A607360F46
:1005800007FA06F825EA0805DFF8B880404503D1E8
:100590004FF0000817E044E0DFF8AC80404502D19E
:1005A0004FF001080FE0DFF8A480404502D14FF082
:1005B000020808E0DFF89880404502D14FF00308B8
:1005C00001E04FF0040808FA06F848EA0508CCF8FC
:1005D00008804D68D9F80060ED024D4601D51643FC
:1005E00000E096432E604D68DAF80060AD02554693
:1005F00001D5164300E096432E604D68DBF800609D
:10060000AD035D4601D5164300E096432E604D686C
:10061000DEF80060ED03754601D5164300E0964311
:100620002E60641C0D682A46E5407FF431AFBDE8BA
:10063000F88F000008040140000011100010024073
:100640000000014000080140000C01400010014082
:10065000001401400AB1016170470904FBE7000082
:1006600001488068704700000400002070B5040055
:1006700025D094F83D00002520B984F83C50204650
:1006800000F0E6F9242084F83D002068016821F09C
:10069000010101602068016841F4004101602068A7
:1006A000016821F40041016000F080FB4D4A61685F
:1006B000914201D84C4900E04C49884201D20120C6
:1006C00070BD4B492368B0FBF1F15E6826F03F0630
:1006D0000E435E606368934206D94FF496735943A4
:1006E0004FF47A73B1FBF3F12368491C1E6A26F0BC
:1006F0003F06314319626168914210D84900401E9B
:10070000B0FBF1F2521CC2F30B02042A01D2042006
:1007100022E0B0FBF1F0401CC0F30B001CE0A2682B
:10072000F2B301EBC10303EB0116431EB3FBF6F377
:100730005B1C43F480431B0549D092B301EBC1021B
:1007400002EB0111401EB0FBF1F0401CC0F30B00A6
:1007500040F4804040F400402168CA694CF6FF73C1
:100760009A431043C861D4E9071001432068026826
:1007700022F0C00211430160D4E903010143206863
:10078000826848F2FF339A4311438160D4E905013E
:1007900008432168CA6822F0FF021043C86001E0E4
:1007A0000EE016E02068016841F001010160256457
:1007B000202084F83D00256384F83E50002070BD61
:1007C00001EB4106431EB3FBF6F35B1CB3E70120CC
:1007D000C2E701EB4101401EB0FBF1F0401CC0F349
:1007E0000B00B7E7A086010080841E0000093D00D1
:1007F00040420F002DE9F84F1F4690468A460446B6
:10080000DDF82890FFF72CFF054694F83D002028DE
:100810007FD11923012240492046009500F090FE27
:10082000002876D194F83C00012872D0012084F889
:100830003C0020680168C90703D1016841F001014B
:1008400001602068016821F400610160212084F8C2
:100850003D00102084F83E0000262664C4F8248061
:100860006785608D20852D48E0622B464A465146BB
:10087000204600F097FD90B920684169806900909A
:1008800036E02A464946204600F000FF50B1206C71
:10089000042804D12068016841F40071016001203E
:1008A000BDE8F88F606A216800780861606A401CC2
:1008B0006062618D491E6185218D491E89B2218545
:1008C00022685369DB435B070BD451B10078106198
:1008D000606A401C6062608D401E6085208D401EF5
:1008E00020852A464946204600F0FEFD0028CED14C
:1008F000208D0028C5D154F83D0B016841F40071EA
:100900000160202004F81E09E67766770020C7E71B
:10091000FFE70220C4E70000020010000000FFFF14
:100920002DE9FF4F83B09A46DDE9119793460446BF
:10093000DDF84080FFF794FE054694F83D0020283E
:100940007FD11923012240492046009500F0F8FD8F
:10095000002876D194F83C00012872D0012084F858
:100960003C0020680168C90703D1016841F001011A
:1009700001602068016821F400610160212084F891
:100980003D00402084F83E0000262664C4F8248000
:10099000A4F82A90608D20852C48E062CDE900758E
:1009A00053465A462046049900F04AFD70B930E09B
:1009B0002A463946204600F069FE58B1206C0428CA
:1009C00004D12068016841F400710160012007B082
:1009D000BDE8F08F606A216800780861606A401C99
:1009E0006062218D491E89B22185628D521E628509
:1009F00022685369DB435B070BD469B1007810614F
:100A0000606A401C6062208D401E2085608D401E03
:100A10006085208D0028CBD12A463946204600F03B
:100A200063FD0028CAD154F83D0B016841F4007100
:100A30000160202004F81E09E67766770020C6E7EB
:100A4000FFE70220C3E70000020010000000FFFFE4
:100A500010B586B0002100910191029103910068C8
:100A60000F4988421AD10F4CA06940F00800A061DC
:100A7000A069694600F008000490C0200090122090
:100A80000190032003900848FFF7F4FCE06940F46C
:100A90000010E061E06900F40010049006B010BDA1
:100AA0000054004000100240000C014002488168E0
:100AB000027811448160704704000020074810B597
:100AC000016841F010010160032000F0A7F80F2039
:100AD00000F006F800F050F8002010BD00200240A1
:100AE00030B505461F4887B0C16941F00401C161B6
:100AF000C06906A900F00400009001A800F036F9D2
:100B00000498B0B100F052F940001749174AB0FB01
:100B1000F1F11748491E0260416040F2E7320021BE
:100B2000C0E903218160816100F008FB040003D06B
:100B300015E000F03BF9E8E70D4800F02DFB04005C
:100B40000DD11E2000F03CF8102D07D200222946BE
:100B50001E2000F043F80748056000E0012407B0BC
:100B6000204630BD0010024040420F000008004007
:100B7000E8000020080000200F4808B5816941F016
:100B800001018161816901F001010091C16941F0B8
:100B90008051C161C069002200F0805000900F2197
:100BA000901E00F01BF80548416821F0E06141F01B
:100BB0000071416008BD00000010024000000140CB
:100BC000002809DB00F01F0201219140400980004C
:100BD00000F1E020C0F8001170470000F0B40E4BA7
:100BE0001B680C46C3F30223C3F10705042D00D98B
:100BF0000425191D072901D2002300E0DB1E012670
:100C000006FA05F1491E214099409E40761E164085
:100C10003143F0BC00F075BF0CED00E0064900F078
:100C2000070208684FF6FF03184040EA0220034A13
:100C300010430860704700000CED00E00000FA056A
:100C40002DE9F0470F46050061D0434E306800F0B3
:100C50000700B84209D2306820F0070038433060FE
:100C6000306800F00700B84251D128683B4C81073A
:100C700012D5400703D5606840F4E06060602878D2
:100C8000000703D5606840F4605060606068A96840
:100C900020F0F000084360602878C00728D068681A
:100CA000012810D02168022810D0890700292EDAE7
:100CB000616821F0030101436160FFF7D1FC8046C8
:100CC00041F288390DE021688903EFE78901EDE7FA
:100CD000FFF7C6FCA0EB0801494502D90320BDE897
:100CE000F0876068696800F00C00B0EB810FEFD10D
:100CF000306800F00700B8420BD9306820F00700D8
:100D000038433060306800F00700B84201D001205D
:100D1000E5E72878400705D56068E96820F4E060D9
:100D2000084360602878000706D56068296920F4C8
:100D3000605040EAC100606000F048F86168084A0D
:100D4000C1F30311515CC8400649086006480068B9
:100D5000FFF7C6FE0020C2E700200240001002405C
:100D60002E32000810000020080000200F22026030
:100D70000C4A536803F003034360536803F0F00325
:100D80008360536803F4E063C36052684FF4E06328
:100D900003EAD20202610448006800F0070008601C
:100DA000704700000010024000200240044805493E
:100DB00000684968044AC1F30221515CC840704789
:100DC00010000020001002403E3200080E4A516818
:100DD0000E4801F00C03042B11D0082B0FD10C4846
:100DE000C1F38343C903C05C0AD55168084AC1F303
:100DF0004041921E515C054A5043B0FBF1F07047F0
:100E000004494843704700000010024000127A0075
:100E10001E32000800093D002DE9F84F040070D093
:100E20002078C04DC00749D06868C0F38100012810
:100E300007D06868C0F38100022809D16868C00340
:100E400006D52868800339D560680028E7D035E0EA
:100E50006068B0F5803F0BD010B1B0F5A02F11D075
:100E6000286820F480302860286820F4802002E080
:100E7000286840F480302860606890B1FFF7F0FB8C
:100E800006460AE0286840F480202860F0E700BFAA
:100E9000FFF7E6FB801B642873D828688003F7D52A
:100EA0000CE0FFF7DDFB064605E000BFFFF7D8FBCF
:100EB000801B6428F0D828688003F7D420789A4EE5
:100EC00080074FF001094FF0000839D5686810F02D
:100ED0000C0F07D06868C0F38100022809D1686848
:100EE000C00306D42868800714D52069012808D1DA
:100EF00010E02069B0B1C6F80090FFF7B1FB0746DB
:100F000005E00AE1FFF7ACFBC01B0228C4D8286843
:100F10008007F7D52868616920F0F80040EAC10031
:100F200028600DE0C6F80080FFF79AFB074604E052
:100F3000FFF796FBC01B022823D828688007F7D448
:100F4000207800072CD57948A169D9B1C0F8009064
:100F5000FFF786FB074604E0FFF782FBC01B022871
:100F60000FD8686A8007F7D571484FF4FA510068C6
:100F7000B0FBF1F0009000BF0098411E0091FAD242
:100F80000EE080E0C0F80080FFF76AFB074604E04F
:100F9000FFF766FBC01B022875D8686A8007F7D484
:100FA0002078400760D5E8690027C00008D4E869C8
:100FB00040F08050E861E869012700F0805000901F
:100FC0005C480168C90513D40168834641F4807107
:100FD0000160FFF745FB824606E000BFFFF740FBDC
:100FE000A0EB0A0064284ED8DBF80000C005F5D558
:100FF000E06801280AD008B1052813D0286A20F03B
:1010000001002862286A20F0040002E0286A40F00B
:1010100001002862E06841F2883B98B1FFF720FBAD
:1010200082460BE0286A40F004002862EEE700BF29
:10103000FFF716FBA0EB0A0159455AD8286A80072A
:10104000F6D50CE0FFF70CFB824605E0FFF708FB46
:10105000A0EB0A0159454CD8286A8007F6D41FB185
:10106000E86920F08050E861E06988B36968C1F3FD
:101070008101022944D00228C6F8608004D0FFF71D
:10108000EFFA044638E034E0FFF7EAFA074604E0F6
:10109000FFF7E6FAC01B02282BD828688001F7D496
:1010A000206AB0F5803F05D16868A16820F400305F
:1010B00008436860D4E908010843696821F47411A1
:1010C00008436860C6F86090FFF7CAFA044606E075
:1010D00025E000BFFFF7C4FA001B022809D82868E2
:1010E0008001F7D51BE000BFFFF7BAFA001B02280A
:1010F00002D90320BDE8F88F28688001F4D40EE0FF
:101100000128F7D06868226A00F48031914204D146
:10111000616A00F47010884201D00120EAE70020E3
:10112000E8E7000000100240000042428004424212
:1011300010000020007000407047704710B5040098
:1011400003D094F83D0010B107E0012010BD00204D
:1011500084F83C00204600F01EF8022084F83D0090
:10116000211D206800F096FC012084F8460084F8D8
:101170003E0084F83F0084F8400084F8410084F881
:10118000420084F8430084F8440084F8450084F861
:101190003D00002010BD704790F83D10012901D09E
:1011A00001207047022180F83D100168CA6842F0B2
:1011B0000102CA6000680B49884208D0B0F1804F34
:1011C00005D00949884202D00849884204D1816883
:1011D00001F00701062903D0016841F00101016017
:1011E00000207047002C014000040040000800402F
:1011F000704770B50446006801694FF00005C943A7
:10120000890715D4C168C943890711D4E91E016152
:1012100001202077206880698007204602D0FFF7F0
:10122000E7FF04E000F098F8204600F096F82577F4
:1012300020680169C943490717D4C168C9434907F0
:1012400013D46FF0040101610220207720688069C7
:1012500010F4407F204602D0FFF7CAFF04E000F000
:101260007BF8204600F079F8257720680169C943AA
:10127000090716D4C168C943090712D46FF00801E1
:101280000161042020772068C0698007204602D0D1
:10129000FFF7AEFF04E000F05FF8204600F05DF8D5
:1012A000257720680169C943C90617D4C168C943B5
:1012B000C90613D46FF0100101610820207720685F
:1012C000C06910F4407F204602D0FFF791FF04E090
:1012D00000F042F8204600F040F8257720680169C8
:1012E000C943C90708D1C168C943C90704D1891EC8
:1012F0000161204600F032F820680169C9430906FF
:1013000009D4C168C943090605D46FF080010161A1
:101310002046FFF711FF20680169C943490609D437
:10132000C168C943490605D46FF0400101612046F8
:1013300000F01EF820680169C94389060BD4C16812
:10134000C943890607D46FF0200101612046BDE83A
:101350007040FFF7F2BE70BD7047704700680349E8
:10136000884201D1FFF7A2BB70470000000800408F
:101370007047FEE701684A69D24352050FD46FF403
:1013800080624A61002140F8301F2022427381733D
:10139000026942F0040202610173012070470020DB
:1013A00070470000F8B50446C06A1E460D46174651
:1013B000082807D0012805D010F5803F02D0206B07
:1013C000122804D12068016841F48071016013463D
:1013D00000224FF001112046009600F0B1F840B114
:1013E00020680068C00502D54FF400702064032017
:1013F000F8BD2069B0F5804F0ED00620216800EAC4
:10140000D51040F0F000086133463A460B492046BB
:1014100000F0DEF878B902E005F0FE0000E0E8B286
:1014200021680861054933463A46891F204600F085
:10143000CFF80028DCD00120F8BD00000800010032
:101440002DE9F843044600680D46DDE90897016878
:101450009846164641F4807101604B4600224FF0D9
:1014600001112046009700F06BF848B12068006831
:10147000C00502D54FF4007020640320BDE8F88356
:10148000216805F0FE0008613B464A4615492046A2
:1014900000F09EF888B920684169806900903A465A
:1014A0004946204600F0F2F848B1206C042804D1E7
:1014B0002068016841F4007101600120DEE7F5B2A7
:1014C000B8F1010F09D02168300A08613A4649464F
:1014D000204600F0DBF80028E7D1206805610020F5
:1014E000CCE700000200010070B516460D46044628
:1014F0001EE02046FFF73EFF08B1012070BD681CCA
:1015000016D0FFF7ADF8801BA84200D885B9206837
:101510004069C04340070BD5002044F8300F20211C
:101520006173A073216941F0200121612073E4E718
:1015300020684069C0434007DBD4002070BD000034
:101540002DE9F047984617460D460446C1F3074675
:10155000DDF820902AE000BFB8F1FF3F26D0FFF76A
:101560007FF8A0EB0901414502D8B8F1000F1DD169
:101570002068012E16D0806925EA00000004000CC6
:1015800012D00020B84211D1002044F8300F2021A1
:101590006173A073216941F0200121612073012052
:1015A000BDE8F0874069E7E70120EBE72068012EFE
:1015B0000AD0806925EA00000004000C06D0002053
:1015C000B842C9D00020EBE74069F3E70120F7E714
:1015D0002DE9F047984616460D4604464FF000099F
:1015E0004FF0200AC1F3074723E020684069C04359
:1015F000400515D42068016841F40071016021683C
:101600006FF480604861C4F8309084F83DA084F89D
:101610003E90216C41F00401216484F83C9021E06B
:10162000701C06D0FFF71CF8A0EB0800B04203D8EE
:1016300016B1012F1FD021E02068012F15D080693D
:1016400025EA00000004000C18D000BF44F8309FC9
:1016500084F80DA084F80E90216941F020012161E9
:1016600084F80C900120BDE8F087406925EA00006D
:101670000004000CEAD12068406901E0206880691C
:1016800025EA00000004000CAFD1ECE770B5164667
:101690000D4604461EE02046FFF76CFE08B101200F
:1016A00070BD681C16D0FEF7DBFF801BA84200D877
:1016B00085B920684069C04300060BD5002044F876
:1016C000300F20216173A073216941F02001216155
:1016D0002073E4E720684069C0430006DBD40020A3
:1016E00070BD00F047B9000010B5044A002104485D
:1016F00000F062FA0349086010BD0000F8310008EC
:10170000F51900080000002070B586B000241C48C0
:101710000094019402940394816941F01001816165
:10172000816901F010010491816941F0200181611A
:10173000816901F020010491816941F00401816116
:10174000816901F004010491816941F0080181611E
:1017500080690C4E00F008004FF400550490002200
:1017600029463046FEF776FF01200095CDE90104B9
:101770000220039069463046FEF77CFE06B070BD3D
:1017800000100240001001400D4810B50B490160E7
:101790000C49416000214FF480428160C0E903128E
:1017A00041618161C1610162FEF760FF002803D0E1
:1017B000BDE81040FEF75BBE10BD000000540040C5
:1017C00094000020A0860100FEE7FEE710B5A0B05F
:1017D000002480216846FEF790FD0021204600F09D
:1017E000A9F88021684600F0F5F8641CE4B2082CE2
:1017F000F3D320B010BD000010B50224202000F06B
:10180000D5F8204600F0D2F81F4804703F24A820E5
:1018100000F0CCF8204600F0C9F80024D32000F0F6
:10182000C5F8204600F0C2F8402000F0BFF8A12023
:1018300000F0BCF8C82000F0B9F80021084600F01C
:1018400063F87F24812000F0B1F8204600F0AEF864
:10185000A42000F0ABF8A62000F0A8F8D52000F0F6
:10186000A5F8802000F0A2F88D2000F09FF8142049
:1018700000F09CF80021012000F046F8BDE810407F
:10188000AF2000F093B800008C0000202DE9F0415B
:1018900017460E46044600250BE03146204600F070
:1018A0000FF8641CE4B20F2C02D90024B61CF6B267
:1018B0006D1C7A5D002AF0D12846BDE8F081000059
:1018C00070B51646C206150E0C46072918D80F2803
:1018D00016D82946204600F02DF80A48082100EBCA
:1018E0000610064600F076F8641CE0B2294600F0C7
:1018F00021F806F10800BDE87040082100F06AB840
:1019000070BD00004632000870B50C46050001D0DD
:10191000012D0ED10CB1012C0BD1DA2000F046F8CC
:10192000280100EB4410BDE87040801CC0B200F0FC
:101930003DB870BD70B50E4D0C462978022905D111
:10194000072803D8B030C0B200F030F82878022859
:101950000CD17F2C0AD804F00F0000F027F81020DB
:1019600000EB1410BDE8704000F020B870BD00001E
:101970008C000020FFF740FFFFF728FF00214122E5
:101980000846FFF79DFF592200210120FFF798FF2D
:1019900002A202210020FFF779FFEFE748656C6C97
:1019A0006F20576F726C6421000000001CB500218D
:1019B0008DF804108DF805004FF4FA70009004487B
:1019C000022301AA78214068FEF714FF1CBD000025
:1019D0008C0000200EB54FF4FA728DE80700044821
:1019E0000123402278214068FEF79AFF0EBD0000D7
:1019F0008C000020FFF775FEFCE7000010B55020BA
:101A000080F31188BFF34F8FBFF36F8F01F052FA4D
:101A100018B104494FF080500860002080F311880D
:101A200010BD000004ED00E030B58FB028216846FD
:101A3000FEF763FC14210AA8FEF75FFC01210804ED
:101A4000CDE900100024029402250491CDE907504D
:101A50004FF4E01009906846FFF7DEF908B172B65E
:101A6000FEE70F20CDE90A054FF48060CDE90C4078
:101A700002210AA80E94FFF7E3F8002801D072B6FD
:101A8000FEE70FB030BD70470148FFF7B2BB000062
:101A9000E8000020F0B50268164B174C174D4FF0C8
:101AA0008047984205D0B84203D0A04201D0A84256
:101AB00003D122F070064A683243984205D0B842FA
:101AC00003D0A04201D0A84203D122F44074CA68D6
:101AD00022434C6922F08002224302608A68C2627B
:101AE0000A688262984201D109690163012141615A
:101AF000F0BD0000002C0140000400400008004040
:101B0000FEE70907090E002804DB00F1E02080F859
:101B10000014704700F00F0000F1E02080F8141D61
:101B20007047FEF7CBFFFFF77FFFFFF7EDFDFFF7F5
:101B30002BFE00F005F8FFF7D7FD00F01DF8FEE7DB
:101B4000EFF3058058B9EFF3108040B909490868F0
:101B5000022801D030B109E0EFF3118030B16FF00D
:101B60000500704701200860002070474FF0FF30EB
:101B7000704700006400002010B5EFF3058060B9E5
:101B8000EFF3108048B90B490868022802D00128F9
:101B900006D00BE0EFF3118040B16FF0050010BDEF
:101BA0000220086000F0ECFD002010BD4FF0FF3077
:101BB00010BD000064000020F0B585B04FEA0103BD
:101BC0004FF00004EFF305810394A1BBEFF3108104
:101BD00089BB21490968022902D1EFF3118151BB68
:101BE00048B3802618218DF8104004AD42B3176821
:101BF00007B13D4697691FB139467F1E382F02D283
:101C00001779FF0702D0002005B0F0BD576907B172
:101C1000BE08D2F808C0BCF1000F0DD0D4685C2C0F
:101C200018D312693AB137B18DE806103246294609
:101C300001F001F903900DE0D7685FB912694AB964
:101C400003AACDE90012B2B2294601F0C7F8012873
:101C500000D003940398D7E7640000202DE9F041F9
:101C6000134C0F46054666692068001D00F016FCFF
:101C7000681C07D137B12168BDE8F0410D48091D46
:101C800000F05CBC20683544B5424560216805D24F
:101C9000A068BDE8F041091D00F038BC6068091D6E
:101CA00000F034FC206B854200D22563BDE8F08152
:101CB00014000020200600202DE9F041054600F028
:101CC00049FC2D4C2069401C206120682B4F10B12D
:101CD000E06930B32BE025602069012827D1002678
:101CE00006EB860007EB800000F002FC761C382E25
:101CF000F6D3234800F0FCFB2148143000F0F8FB39
:101D00001F48283000F0F4FB1D483C3000F0F0FB89
:101D10001B48503000F0ECFB194860601430A060A4
:101D200005E02068E96AC06A884200D82560E06A58
:101D3000401CE0626864E86AA169884200D9A06139
:101D400000EB800007EB8000291D00F0F7FB00F09E
:101D500021FCE06900280CD02068E96AC06A88424A
:101D600007D208494FF080500860BFF34F8FBFF390
:101D70006F8FBDE8F081000014000020700100208A
:101D8000D005002004ED00E038B500F0E3FB104C76
:101D9000A068C8B90F4800F0ABFB0E48143000F043
:101DA000A7FB0C482060143060600A4B00202833E9
:101DB000009003F1500210210A2000F0B3FDA06052
:101DC00010B105A100F064FCBDE8384000F0E2BBB2
:101DD0005000002034060020546D725100000000B5
:101DE00030B4026C0B46002A0BD0C1681144C160AC
:101DF0004468A14201D30168C16030BC1846FEF7B7
:101E00002FBA30BC70472DE9F041856B1746044668
:101E10000026026C82B1C7B1E068FEF721FAE168E2
:101E2000206C091AE1602268914202D26168081AA6
:101E3000E060022F16D017E02068A8B9606801F0B2
:101E40009DF80646002060600EE0A068FEF708FAE4
:101E5000216CA0680844A0606168884204D32068AF
:101E6000A06001E005B16D1E6D1CA5633046BDE8A4
:101E7000F08110B5044690F8590058B101280CD0F3
:101E800002280FD0502080F31188BFF34F8FBFF38B
:101E90006F8FFEE7206B00F091FB2046BDE81040FD
:101EA00000F08CBB10BD000010484FF440614207A9
:101EB00006D0C01D0D4920F00700411AC1F5406150
:101EC0000B4A00230144C2E900030839103A21F00B
:101ED000070111604B600B600B1AC0E9001393609F
:101EE0004FF000405360D06070470000040E0020A7
:101EF00078000020144E154CA6F29C474FF08058F5
:101F0000DFF84C9012E000BF00F024FBF068C568D9
:101F1000281D00F0C3FA2069401E2061E068401EC1
:101F2000E06000F037FB2846FFF7A3FFE0680028D9
:101F3000EAD138680128F9D9C9F80080BFF34F8F7A
:101F4000BFF36F8FF2E700000C06002014000020A2
:101F500004ED00E070B51D46049C51B1C4F80020AA
:101F6000C4E90F010121204600F010FD84F84C5017
:101F700070BD2460F4E72DE9F0470E46DDE90984E1
:101F80001746824691009946089DA522206BFEF7D0
:101F9000ACF96FF00301206B01EB8701084420F0DE
:101FA0000707780707D0502080F31188BFF34F8FC1
:101FB000BFF36F8FFEE72218315C82F83410315C7A
:101FC00011B1401C1028F6D3002684F84360382D48
:101FD00000D33725E562C4E91356201D00F093FABB
:101FE00004F1180000F08FFA2461C5F13800646232
:101FF000A061666584F858604A465146384600F04C
:102000003BFA2060B8F1000F01D0C8F80040BDE8ED
:10201000F087000030B5114900E011460A6882429D
:10202000FBD34B685C18844203D140681844486075
:10203000084643681C18944209D1084C103C246897
:10204000A24209D052681A4442600A6812680260CB
:10205000814200D0086030BD0460F9E778000020BC
:1020600070B5002441600B4D0061914206D8D11A31
:102070008269914206D2011D686807E09A4203D244
:10208000994201D3012403E0011D286800F03EFAC3
:10209000204670BD5000002010B5044600F05AFAEA
:1020A000A06B28B15FF0000400F074FA204610BD68
:1020B0000124F9E730B589B0304D55E00498002887
:1020C00006DADDE90601059A9047049800284BDB03
:1020D000069C606910B1201D00F0E0F902A800F034
:1020E000B9F8024604980A283ED2DFE800F0050558
:1020F000053D263705053D260598A169034601449F
:102100002046FFF7ADFF00B3616A20468847E069CB
:10211000012829D1002000900598A16900234218C8
:102120001946204601F034F878B9502080F3118820
:10213000BFF34F8FBFF36F8FFEE70598A06128B103
:10214000811813462046FFF78BFF0DE0502080F3E7
:102150001188BFF34F8FBFF36F8FFEE794F82C0009
:1021600010B9204600F02AFA002204A9A86800F05D
:102170005FFD0028A2D109B030BD00005000002052
:102180002DE9FC410F46054600F03EFB01A800F09A
:1021900061F80446019818B100F068FFBDE8FC81C1
:1021A000224EAFB170680068A8B30027291B3A46D9
:1021B000B06800F081FA00F059FF0028EED11C4908
:1021C0004FF080500860BFF34F8FBFF36F8FE5E78C
:1021D000A542EBD800F04AFF30682746C068C468C3
:1021E000201D00F05BF9E069012810D1A0692B46A1
:1021F00041193A462046FFF733FF40B1002003461D
:10220000014600902A46204600F0C2FF20B1616AD4
:1022100020468847C2E707E0502080F31188BFF3CB
:102220004F8FBFF36F8FFEE70127BFE750000020FD
:1022300004ED00E006484168096829B14168C968B1
:10224000C9684968016370474FF0FF31FAE7000041
:102250001400002070B5054600F026FE064E044628
:102260003069844203D200F009F8012000E0002028
:1022700028602046346170BD50000020F8B5194D2B
:102280001FE0C068C4680668201D00F007F9616A95
:1022900020468847E069012813D1A0693044B04244
:1022A00006D924616060211D286800F02FF908E03C
:1022B00000200346014600903246204600F068FFA9
:1022C00038B1286801680029DBD16968C5E90010C8
:1022D000F8BD502080F31188BFF34F8FBFF36F8F8D
:1022E000FEE700005000002008484068401C4FF006
:1022F000500080F3118804D0BFF34F8FBFF36F8F6E
:10230000FEE7BFF34F8FBFF36F8FFEE78000002023
:10231000074C2068016841B1C0680021D0F8000076
:10232000FFF72EFFFFF7C6FEF3E701210020F7E7D6
:10233000500000202DE9F041044600F00BF994F91B
:10234000455004F1240609E0606A48B1304600F0C7
:1023500055FE08B100F0DAF96D1E6DB2002DF3DC08
:102360004FF0FF3684F8456000F014F900F0F2F801
:1023700094F9445004F1100709E0206948B1384647
:1023800000F03CFE08B100F0C1F96D1E6DB2002DE9
:10239000F3DC84F84460BDE8F04100F0FBB80000D5
:1023A0002DE9F0410546002700F02EFA314E306845
:1023B00008B9FFF779FDF06805424BD1C5B3083580
:1023C00068070ED005F00700C0F108000544680753
:1023D00007D0502080F31188BFF34F8FBFF36F8F6A
:1023E000FEE72DB37068854234D82248103001468C
:1023F0000C6801E020460C466168A94202D22168BF
:102400000029F7D131688C4224D007682168016027
:1024100060680837411B10290FD96019420708D09E
:10242000502080F31188BFF34F8FBFF36F8FFEE70B
:1024300010E041606560FFF7EDFD61687068401A6B
:102440007060B268904200D2B060F0680143002032
:10245000C4E9000100F00AFE780707D0502080F39D
:102460001188BFF34F8FBFF36F8FFEE73846BDE88B
:10247000F08100006800002010B5031F4FF0807449
:102480001C601B1F21F001011960191F024B0B601A
:10249000143940380A6010BDE9220008D0E9013241
:1024A00001699A60D0E901235A604A68824201D1E9
:1024B00082684A60002202610868401E086008685D
:1024C00070470000034B036003F15C00086080204C
:1024D000106070474C070020044B036003F15C0060
:1024E00008604FF48070106070470000A809002059
:1024F00000F108014FF0FF32C0E90112C160016133
:1025000000210160704700210161704730B50B6800
:102510005A1C02D000F1080202E0026904E02246DF
:10252000546825689D42FAD953684B6099608A6067
:10253000516008610168491C016030BD42684A6011
:1025400093688B6093685960916008610168491CC9
:1025500001607047502080F31188BFF34F8FBFF3A5
:102560006F8F0A494868401C486001280CD1084810
:10257000006810F0FF0F07D0502080F31188BFF3E0
:102580004F8FBFF36F8FFEE7704700008000002081
:1025900004ED00E00849486828B1401E486001D1B8
:1025A00080F311887047502080F31188BFF34F8F5C
:1025B000BFF36F8FFEE700008000002070B5002899
:1025C00027D0144DA0F108046168E868014207D1E2
:1025D000502080F31188BFF34F8FBFF36F8FFEE75A
:1025E00022683AB1502080F31188BFF34F8FBFF3B8
:1025F0006F8FFEE78143616000F006F960686968EB
:10260000084468602046FFF705FDBDE8704000F013
:102610002DBD70BD680000204FF0E0200021016159
:10262000816105494FF47A720968B1FBF2F1491EE4
:1026300041610721016170471000002010B5FDF7CE
:10264000EBFD114910280ED300F1E02090F8F003C3
:102650000A78904207D2502080F31188BFF34F8F41
:10266000BFF36F8FFEE709480068896800F4E060F7
:10267000884207D9502080F31188BFF34F8FBFF3F2
:102680006F8FFEE710BD0000800000200CED00E021
:1026900010B5084B002200BF53F832401CB1521C49
:1026A000082AF9D310BD43F8321003EBC201486089
:1026B00010BD00003001002070B515460E460446DE
:1026C000FFF748FF94F944100020491C01D184F819
:1026D000440094F94510491C01D184F84500FFF7E6
:1026E00059FFA06B28B92A46314604F1240000F0B6
:1026F0002BF82046BDE87040FFF71CBE02498A6AED
:1027000002604969416070471400002001490120BE
:10271000486270471400002010B50C4650B10949BA
:1027200009681831FFF7F2FE2046BDE8104001218C
:10273000FFF794BA502080F31188BFF34F8FBFF397
:102740006F8FFEE71400002070B514460D4668B187
:102750000A4909681831FFF7F1FE0CB14FF0FF3557
:1027600021462846BDE87040FFF778BA502080F334
:102770001188BFF34F8FBFF36F8FFEE71400002067
:1027800030B587B00024039405AA04A903A80494D3
:10279000FFF798FEDDE903010094CDE90110002365
:1027A00015A11748059A00F046FB164D00286863EE
:1027B0001FD000F0BDFC012809D0401C19D15020C9
:1027C00080F31188BFF34F8FBFF36F8FFEE7502068
:1027D00080F31188BFF34F8FBFF36F8F4FF0FF303F
:1027E00028630120E8616C6107B0BDE8304000F06B
:1027F00045B807B030BD000049444C45000000001A
:10280000F51E0008140000200248816B491C8163FA
:102810007047000014000020164810B5816B11B1FC
:102820000121416210BD002141628169124A01E02B
:10283000B9B1491E01EB810352F82330002BF7D0C8
:1028400001EB810302EB830202F1080453685B6829
:102850005360A34201D15B685360DA680260816112
:1028600010BD502080F31188BFF34F8FBFF36F8FDF
:10287000FEE7000014000020700100201CB526496E
:1028800008780190FF20087008788DF800009DF806
:1028900000009DF8002000F0F000904207D050208A
:1028A00080F31188BFF34F8FBFF36F8FFEE79DF862
:1028B00000001A4B00F0500018700720986005E0E7
:1028C0009DF8002052008DF80020401E9DF8002049
:1028D0001206F5D49860032807D0502080F31188A1
:1028E000BFF34F8FBFF36F8FFEE74FF440709860D8
:1028F000019808700A48016841F47001016001689C
:1029000041F070410160FFF787FE00205860FDF73D
:102910004DFC00201CBD000000E400E08000002011
:1029200020ED00E038B5049D18B153B1CAB181B1B2
:1029300020E0502080F31188BFF34F8FBFF36F8FDB
:10294000FEE7502080F31188BFF34F8FBFF36F8FE6
:10295000FEE7502080F31188BFF34F8FBFF36F8FD6
:10296000FEE739B1502080F31188BFF34F8FBFF3DA
:102970006F8FFEE750241C46012384F846302B4617
:102980000094FFF7E7FA204638BD000070B50D4609
:10299000040025D0FFF7DEFDD4E90F20216802FBFB
:1029A000001161600021A1632168A1600A46D4E999
:1029B0000F01401E00FB0121E16021464FF0FF3076
:1029C00001F8440F487004F110008DB1FFF790FD3D
:1029D00004F12400FFF78CFDFFF7DCFD012070BD42
:1029E000502080F31188BFF34F8FBFF36F8FFEE746
:1029F00021690029F0D000F001FB0028ECD0044947
:102A00004FF080500860BFF34F8FBFF36F8FE3E745
:102A100004ED00E02DE9FF4782B01D468A464FF0E5
:102A20000008040003D0BAF1000F08D011E05020D4
:102A300080F31188BFF34F8FBFF36F8FFEE7206CD9
:102A400038B1502080F31188BFF34F8FBFF36F8FE1
:102A5000FEE7022D0AD1E06B012807D0502080F359
:102A60001188BFF34F8FBFF36F8FFEE700F00EFAB0
:102A70003F4F4FF000094FF0805648B9049838B1E5
:102A8000502080F31188BFF34F8FBFF36F8FFEE7A5
:102A9000FFF760FDA06BE16B884207D3022D05D0E4
:102AA0000498D0B1B8F1000F1AD01EE02A46514662
:102AB0002046FFF7A8F9616A19B104F1240000F07B
:102AC0009DFA20B13E60BFF34F8FBFF36F8FFFF7CA
:102AD00061FD012006B0BDE8F087FFF75BFD22E055
:102AE0006846FFF70BFE4FF00108FFF753FDFFF7B5
:102AF0008BFEFFF72FFD94F94400401C01D184F8B0
:102B0000449094F94500401C01D184F84590FFF7AA
:102B100041FD04A9684600F027F930B12046FFF7CF
:102B200009FC00F0A3FA0020D4E7FFF713FDA06B27
:102B3000E16B884213D1FFF72DFD04F110000499D9
:102B4000FFF7EAFD2046FFF7F5FB00F08FFA0028BB
:102B50009ED13E60BFF34F8FBFF36F8F98E7FFF7B3
:102B600019FD2046FFF7E6FB00F080FA90E7000031
:102B700004ED00E02DE9F0471F4690468946040029
:102B800003D0B9F1000F08D011E0502080F3118874
:102B9000BFF34F8FBFF36F8FFEE7206C38B150202B
:102BA00080F31188BFF34F8FBFF36F8FFEE7022FC3
:102BB0000AD1E06B012807D0502080F31188BFF3C1
:102BC0004F8FBFF36F8FFEE7FFF738FD5020EFF315
:102BD000118680F31188BFF34F8FBFF36F8FA06B07
:102BE000E16B884206D3022F04D0002086F31188BF
:102BF000BDE8F08794F945503A4649462046FFF72C
:102C000002F9681C04D06D1C84F845500120EDE7E2
:102C1000606A0028FAD004F1240000F0EFF90028DF
:102C2000F4D0B8F1000FF1D00121C8F80010EDE7A1
:102C30002DE9F747002683B08A46040003D0BAF195
:102C4000000F08D011E0502080F31188BFF34F8FA0
:102C5000BFF36F8FFEE7206C38B1502080F31188EE
:102C6000BFF34F8FBFF36F8FFEE700F00FF9DFF870
:102C7000F4804FF000094FF0805748B9059838B1FB
:102C8000502080F31188BFF34F8FBFF36F8FFEE7A3
:102C9000FFF760FCA56BC5B151462046FFF7A0F8D1
:102CA0006D1EA563206950B104F1100000F0A6F973
:102CB00028B1C8F80070BFF34F8FBFF36F8FFFF7D5
:102CC00069FC012006B0BDE8F087059808B11EB187
:102CD00006E0FFF75FFC27E06846FFF70FFD0126DF
:102CE000FFF758FCFFF790FDFFF734FC94F9440020
:102CF000401C01D184F8449094F94500401C01D156
:102D000084F84590FFF746FC05A9684600F02CF8CA
:102D1000002820460AD0FFF70DFB00F0A7F9204657
:102D2000FFF7BAF90028B3D00020CBE7FFF7B4F9DA
:102D300090B104F124000599FFF7EEFC2046FFF75F
:102D4000F9FA00F093F90028A2D1C8F80070BFF397
:102D50004F8FBFF36F8F9BE72046FFF7EBFA00F032
:102D600085F995E704ED00E02DE9F0410C460500FA
:102D700011D0C4B1FFF7EEFB174B5A696E6820689B
:102D8000911B471C17D02F689B6A9F4219D096420F
:102D900017D8012410E0502080F31188BFF34F8F23
:102DA000BFF36F8FFEE7502080F31188BFF34F8F82
:102DB000BFF36F8FFEE70024FFF7ECFB2046BDE872
:102DC000F081884205D9401A20602846FFF796FC1A
:102DD000F1E700202060DCE7140000202DE9FF5F10
:102DE0008346DDE90E87994616468A469000FFF72E
:102DF000D7FA05001CD05C20FFF7D2FA040014D0EB
:102E00000020256384F85900CDE90240CDE9008710
:102E10004B46324651465846FFF7ADF82046FEF77E
:102E20004BFF012004B0BDE8F09F2846FFF7C6FB2A
:102E30004FF0FF30F6E7F0B585B0DDE90B640A9D91
:102E4000A6B1DCB15C2700972663022684F859609E
:102E5000002604AFCDE90246CDE90057FFF78BF815
:102E60002046FEF729FF049805B0F0BD502080F3FE
:102E70001188BFF34F8FBFF36F8FFEE7502080F3B1
:102E80001188BFF34F8FBFF36F8FFEE70548C1690D
:102E900019B1806B18B100207047012070470220E3
:102EA000704700001400002001484069704700008E
:102EB000140000202DE9F0412E4C0027A06B40B1FA
:102EC000206A401C2062606A00B101273846BDE8D4
:102ED000F0816669761C666113D16068006838B15C
:102EE000502080F31188BFF34F8FBFF36F8FFEE741
:102EF0006068A1686160A060A06A401CA062FFF7E2
:102F000099F9206BDFF87080864209D36068006809
:102F100080B16068C068C568686886420DD2206369
:102F20002068C06A00EB800158F821000128CAD946
:102F30000127C8E74FF0FF30F1E7281DFFF7AEFA91
:102F4000A86A18B105F11800FFF7A8FAE86AA169A4
:102F5000884200D9A06100EB800108EB8100291DA7
:102F6000FFF7ECFAE86A2168C96A8842CED30127E4
:102F7000CCE70000140000207001002070B50400B0
:102F80004FF0000133D01B4D2868844207D05020F9
:102F900080F31188BFF34F8FBFF36F8FFEE7206D73
:102FA00038B1401E2065E36CE26A9A421FD040B1FE
:102FB0001DE0502080F31188BFF34F8FBFF36F8F58
:102FC000FEE7201DFFF76AFAE06CE062C0F138000E
:102FD000A061E06AA969884200D9A861064900EBAE
:102FE000800001EB8000211DFFF7A8FA01210846AF
:102FF00070BD0000140000207001002070B5C06892
:10300000C46854B104F118000646FFF747FA144D9E
:10301000A86B50B13146134815E0502080F3118859
:10302000BFF34F8FBFF36F8FFEE7201DFFF736FA18
:10303000E06AA969884200D9A8610B4900EB8000C9
:1030400001EB8000211DFFF779FAE06A2968C96A5F
:10305000884202D90120686270BD002070BD000066
:1030600014000020F8050020700100202DE9F04731
:103070002C4D00242746A86B38B1FFF76BFAA86BDC
:10308000401EA863A86B40B146E0502080F3118831
:10309000BFF34F8FBFF36F8FFEE72969224E0120E8
:1030A000D1B3A6F5916980463068E0B1F068C46894
:1030B00004F11800FFF7F2F9201DFFF7EFF9E06ABD
:1030C000A969884200D9A86100EB800109EB810061
:1030D000211DFFF733FAE06A2968C96A8842E3D301
:1030E000C5F82480E0E70CB1FFF7A4F82C6A4CB1D6
:1030F0004FEA0806FFF7DEFE00B16E62641EF9D1EA
:1031000000202862686A38B108490127380708603A
:10311000BFF34F8FBFF36F8FFFF73CFA3846BDE820
:10312000F087000014000020F805002004ED00E006
:1031300010B586B0FEF728FE114CA068B8B100208B
:103140000390049005AA04A903A8FFF7C5F9DDE9D7
:10315000032102208DE8070000230AA10B48059AED
:10316000FFF769FEE06010B106B0012010BD5020ED
:1031700080F31188BFF34F8FBFF36F8FFEE700001E
:1031800050000020546D7220537663001123000814
:103190002DE9FF411E46134602000A9D4FF0000034
:1031A00016D0144CA768002F0FD0CDE9001302925F
:1031B000062917DAFFF76AFE02284FF000030FD046
:1031C00000226946A068FFF725FC04B0BDE8F08145
:1031D000502080F31188BFF34F8FBFF36F8FFEE74E
:1031E0002A46EEE70023324669463846FFF7C2FC1E
:1031F000EBE7000050000020483A00080000000003
:1032000000000000000000000000000000020000BC
:10321000180000000000000000000000010202038E
:103220000405060708090A0B0C0D0E0F101000000C
:103230000000000000000102030406070809000066
:103240000000010203040000000000000000000074
:1032500000000000000000FE020202020202003F25
:10326000202020202020000000000000000000009E
:1032700000000000000000FE020202020202003F05
:1032800020202020202000FE020202020202003F35
:1032900020202020202000FE020202020202003F25
:1032A00020202020202000FE020202020202003F15
:1032B00020202020202000FE020202020202003F05
:1032C00020202020202000FE020202020202003FF5
:1032D000202020202020000000000000000000002E
:1032E00000000000000000000000000000000000DE
:1032F00000000000000000000000000000000000CE
:1033000000000000000000FE020202020202003F74
:1033100020202020202000FE020202020202003FA4
:1033200020202020202000FE020202020202003F94
:1033300020202020202000FE020202020202003F84
:1033400020202020202000FE020202020202003F74
:1033500020202020202000FE020202020202003F64
:1033600020202020202000FE020202020202003F54
:1033700020202020202000FE020202020202003F44
:1033800020202020202000FE020202020202003F34
:1033900020202020202000FE020202020202003F24
:1033A00020202020202000FE020202020202003F14
:1033B00020202020202000FE020202020202003F04
:1033C00020202020202000FE020202020202003FF4
:1033D00020202020202000FE020202020202003FE4
:1033E00020202020202000FE020202020202003FD4
:1033F00020202020202000FE020202020202003FC4
:1034000020202020202000000000000000000000FC
:1034100000000000000000000000000000000000AC
:10342000000000000000000000000000000000009C
:10343000000000000000000000000000000000008C
:10344000000000000000000000000000000000007C
:10345000000000000000000000F800000000000074
:1034600000330000000000100C02100C02000000ED
:103470000000000000000040C07840C07800000458
:103480003F04043F040000708888FC0830000018E6
:103490002020FF211E00F008F0806018000000319D
:1034A0000C031E211E0000F00888700000001E2181
:1034B000232C1927211000120E000000000000002C
:1034C000000000000000000000E0180402000000FE
:1034D00000071820400000020418E000000000402F
:1034E000201807000000404080F0804040000202A9
:1034F000010F0102020000000000E00000000001D6
:1035000001010F0101010000000000000000009017
:10351000700000000000000000000000000000013A
:103520000101010101000000000000000000003066
:1035300030000000000000000000C03804000060FF
:1035400018070000000000E010080810E000000F5D
:10355000102020100F0000001010F80000000000E4
:1035600020203F202000007008080808F0000030EC
:103570002824222130000030080808887000001834
:10358000202121221C000000804030F800000006AD
:103590000524243F242400F888888808080000199E
:1035A000202020110E0000E0108888900000000FFD
:1035B000112020201F00001808088868180000004B
:1035C000003E010000000070880808887000001CA0
:1035D000222121221C0000F008080810E000000150
:1035E000122222110F00000000C0C00000000000E5
:1035F00000303000000000000080000000000000EB
:1036000000E00000000000008040201008000001E1
:1036100002040810200000404040404040000002EA
:103620000202020202000008102040800000002078
:1036300010080402010000704808088870000000AB
:10364000003037000000C030C828E810E00007183C
:1036500027282F2817000000C038E0000000203C79
:1036600023020227382008F8888888700000203F4D
:10367000202020110E00C030080808083800071864
:1036800020202010080008F808080810E000203F5B
:10369000202020100F0008F88888E8081000203F3C
:1036A00020202320180008F88888E8081000203F10
:1036B000200003000000C030080808380000071888
:1036C0002020221E020008F808000008F808203F09
:1036D000210101213F20000808F80808000000200F
:1036E000203F2020000000000808F8080800C080E3
:1036F00080807F00000008F888C028180800203F5C
:1037000020012638200008F8080000000000203FB3
:1037100020202020300008F8F800F8F80800203FAA
:10372000013E013F200008F830C00008F808203FA3
:10373000200007183F00E01008080810E0000F10F4
:10374000202020100F0008F808080808F000203F8B
:10375000210101010000E01008080810E0000F102E
:10376000282830504F0008F8888888887000203F4B
:103770002000030C3020007088080808380000384A
:10378000202121221C00180808F808081800000051
:10379000203F2000000008F808000008F808001F7B
:1037A000202020201F000878880000C8380800006A
:1037B00007380E01000008F800F800F808000003C0
:1037C0003E013E0300000818688080681808203019
:1037D0002C03032C30200838C800C838080000002B
:1037E000203F2000000010080808C83808002038D2
:1037F000262120201800000000FE02020200000026
:10380000007F40404000000438C00000000000007D
:1038100000010638C00000020202FE000000004065
:1038200040407F000000000004020204000000008D
:103830000000000000000000000000000000808088
:103840008080808080800002020400000000000070
:1038500000000000000000008080800000000019CF
:103860002424123F200010F0008080000000003F60
:10387000112020110E000000008080800000000E4A
:10388000112020201100000080808090F000001F97
:10389000202020103F200000808080800000001F3A
:1038A000242424241700008080E090902000002031
:1038B000203F202000000000808080808000006B7E
:1038C00094949493600010F0008080800000203F6A
:1038D000210000203F200080989800000000002078
:1038E000203F20200000000000809898000000C0C9
:1038F0008080807F000010F0000080808000203FEA
:10390000240629302000001010F8000000000020DC
:10391000203F202000008080808080808000203F29
:1039200020003F20003F8080008080800000203FFA
:10393000210000203F200000808080800000001FC8
:10394000202020201F00808000808000000080FF59
:10395000912020110E000000008080008000000EE9
:1039600011202091FF8080808000808080002020B6
:103970003F21200001000000808080808000003313
:10398000242424241900008080E0808000000000AE
:10399000001F202010008080000000808000001F99
:1039A000202020103F208080800080808000000345
:1039B0000C300C0300008080008080008080010EAD
:1039C000300C0738060100808080008080000020D5
:1039D000310E2E31200080808000008080800081A8
:1039E0008678180601000080808080808000002199
:1039F000302C222130000000000000FC02020000F8
:103A00000000013E404000000000FF0000000000F8
:103A10000000FF0000000202FC0000000000404027
:103A20003E0100000000000201020204020000004A
:103A30000000000000000000000000000000000086
:103A4000000000000000000064656661756C74543D
:103A500061736B00743A00080000002094000000BD
:103A600028010008083B000894000020D41F000033
:103A700044010008000000000100000010000000E8
:103A8000000000000024F40000000000000000001E
:103A90000000000000000000000000000000000026
:103AA0000000000000000000000000000000000016
:103AB0000000000000000000000000000000000006
:103AC00000000000000000000000000000000000F6
:103AD00000000000000000000000000000000000E6
:103AE00000000000000000000000000000000000D6
:103AF0000000000000000000AAAAAAAA000000001E
:083B0000020000009400002007
:04000005080000ED02
:00000001FF
