:020000040800F2
:1000000008400020990100086B390008F128000819
:1000100069390008A70A0008994300080000000099
:1000200000000000000000000000000001010008C6
:10003000A90A00080000000045010008C53F0008AB
:10004000B3010008B3010008B3010008B3010008C0
:10005000B3010008B3010008B3010008B3010008B0
:10006000B3010008B3010008B3010008B3010008A0
:10007000B3010008B3010008B3010008B301000890
:10008000B3010008B3010008B3010008B301000880
:10009000B3010008B3010008B3010008FF0A00081B
:1000A000B3010008B3010008B3010008B301000860
:1000B000B3010008B301000871400008B301000853
:1000C000B3010008B3010008B3010008B301000840
:1000D000B3010008B3010008B3010008B301000830
:1000E000E10A0008B3010008B3010008DFF80CD0F2
:1000F00000F020FC0048004785510008084000201F
:10010000224B19680868B0E8F00F80F30988BFF344
:100110006F8F4FF0000080F311884EF00D0E704786
:100120000000000006480068006880F3088862B696
:1001300061B6BFF34F8FBFF36F8F00DF00BF00BF0B
:1001400008ED00E0EFF30980BFF36F8F0F4B1A68E3
:1001500020E9F00F106008B54FF0500080F31188CF
:10016000BFF34F8FBFF36F8F06F064F94FF00000BD
:1001700080F31188BDE8084019680868B0E8F00FFE
:1001800080F30988BFF36F8F704700BF180000200D
:10019000EFF3058070470000064880470648004797
:1001A000FEE7FEE7FEE7FEE7FEE7FEE7FEE7FEE727
:1001B000FEE7FEE76D400008ED0000082DE9F05F66
:1001C0000546002092469B468846064681464024C6
:1001D0001BE0284641464746224600F020F8534699
:1001E0005A46C01A914110D311461846224600F0D3
:1001F0007DFA2D1A67EB01084F46224601200021A7
:1002000000F074FA17EB00094E41201EA4F101041E
:10021000DFDC484631462A464346BDE8F09F202AA7
:1002200004DB203A21FA02F00021704721FA02F3A0
:10023000D040C2F1200291400843194670470000A7
:100240000649074A0868504343F2390210440860DF
:100250004008704701490860704700002C010020E9
:100260006D4EC64140EA01039B0703D009E008C96F
:10027000121F08C0042AFAD203E011F8013B00F86B
:10028000013B521EF9D27047D2B201E000F8012BB7
:10029000491EFBD270470022F6E710B513460A4606
:1002A00004461946FFF7F0FF204610BD421C10F827
:1002B000011B0029FBD1801A7047034611F8012B5E
:1002C00000F8012B002AF9D118467047F0B480EAF3
:1002D0000102D40F4200B2EB410F02D2024608469F
:1002E00011464A0042D0C30DDDB2C1F3C752AD1A68
:1002F000202D35DAC1F3160141F4000204B1524257
:10030000C5F1200602FA06F12A411044B3EBD05F92
:1003100023D0C4B1012DA0EBC35009DCF0BC4FF0D9
:10032000004202EAC352DBB200F5000000F008BA56
:10033000400000F1807000EBC350A0F1807040EAF3
:10034000D170490009E0490841EAC071A0EBC350EF
:1003500000F50000400800EBC350F0BC00F0E7B926
:100360006142012202EB4101001BF6E7F0BC70473D
:1003700081F00041AAE780F00040A7E7420005D0E5
:10038000C0F3C7525242914201DC0020704700EB9B
:10039000C15070472DE9FE4F804681EA0300C00F2F
:1003A0000C46009021F0004123F00045B8EB02001C
:1003B000A94105D24046214690461C460B460246BE
:1003C00023F00040104347D0270DC7F30A00C3F3C2
:1003D0000A510290401A019040286BDAC3F31300CF
:1003E00040F4801B0098924620B10023D2EB030A10
:1003F00063EB0B0B01985946C0F14002504600F0E8
:1004000075F906460D4650465946019A00F07DF9A9
:1004100010EB08006141002487EA115284EAE77377
:100420001A4340D0009A62B3019A012A4FEA075258
:1004300015DC001B61EB02014FF0004202EA07529B
:10044000CDE90042001C41F5801132462B4600F0F8
:10045000B4F903B0BDE8F08F40462146F9E7001B30
:1004600061EB0201001C41F5801300185B4120186C
:10047000A2F5001747EB030140EAD570B6196D41AC
:1004800011E06D084FEA360645EAC0754FEA07529B
:10049000001B61EB0201001C41F5801149084FEA85
:1004A00030000019514132462B4603B0BDE8F04FF1
:1004B00000F074B90098012240000023D0EB020242
:1004C00063EBE073009821464FEAE074B8EB00005C
:1004D00061EB0401E9E783F000435BE781F0004151
:1004E00058E72DE9FE4F81EA030404F0004421F0AF
:1004F000004100944FF0000B23F0004350EA010448
:100500005ED052EA03045BD0C3F30A54C1F30A5528
:100510002C44A4F2F3340194A0FB0254C1F3130160
:1005200041F48011C3F3130343F4801301FB02442D
:1005300000FB034E840A970A44EA815447EA835732
:10054000A4FB076802958D0A05FB07854FEA932CEB
:1005500004FB0C542705029D4FEA065847EA16375C
:10056000B5EB08056EEB070C870E920E47EA811774
:1005700042EA8312A7FB0201B6EB0B0164EB000415
:100580002B0D43EA0C335E1844EB1C50DA465146FF
:10059000E7FB0201C5F313044FEA0B3343EA14539C
:1005A0004FEA0432019C43EA0603A4F10C040294CE
:1005B000009CCDE900B400F000F903B0BDE8F08F75
:1005C00000200146F9E770B521F0004303430CD049
:1005D000C1F30A550024D5EB040564EB0403D617D8
:1005E000AD1AB34102DB0020014670BD201841EB7B
:1005F000025170BDC10F80EAE0700844CA0796231B
:10060000002100F09DB896230022114600F098B812
:100610000EB5C10F80EAE0700844CA07002140F21D
:1006200033438DE80E000A460B4600F0C6F803B0CF
:1006300000BD20F00040C10DC0F3160040F40000E2
:100640007F2901DA00207047962903DCC1F1960169
:10065000C840704796398840704770B5C1F30A5258
:1006600001F000450024C1F3130140F2FF3341F4CF
:1006700080119A4201DA002070BD40F233439A4261
:10068000A2F2334203DC5242FFF7C9FD00E0904082
:100690002C43F1D0404270BD002801DBC0F1004086
:1006A000002901DBC1F1004181427047002801DBD4
:1006B000C0F10040002901DBC1F1004188427047D0
:1006C00030B50B46014600202022012409E021FA22
:1006D00002F59D4205D303FA02F5491B04FA02F51F
:1006E0002844151EA2F10102F1DC30BD202A04DBF2
:1006F000203A00FA02F1002070479140C2F1200335
:1007000020FA03F3194390407047202A06DBCB17E9
:10071000203A41FA02F043EAE07306E041FA02F3BC
:10072000D040C2F120029140084319467047002989
:10073000A8BF7047401C490008BF20F00100704767
:1007400010B4B0FA80FC00FA0CF050EA010404BFC7
:1007500010BC704749B1CCF1200421FA04F411FA1D
:100760000CF118BF012121430843A3EB0C01CB1D61
:100770004FEA00614FEA102042BF002010BC7047D2
:1007800000EBC35010440029A4BF10BC7047401CAC
:10079000490008BF20F0010010BC704710B5141EBE
:1007A00073F1000408DA401C41F1000192185B412A
:1007B0001A4301D120F0010010BD2DE9F04D924601
:1007C0009B4611B1B1FA81F202E0B0FA80F2203218
:1007D0009046FFF78BFF04460F4640EA0A0041EAC5
:1007E0000B0153465A46084313D0114653EA010001
:1007F00019D0C8F140025046FFF711FD05460E46DC
:10080000504659464246FFF771FF084305D0012084
:1008100004E020463946BDE8F08D0020054346EA55
:10082000E0762C4337430A986305E40AA0EB0800FE
:100830000022FD0A44EA47540A3002D5002001464E
:10084000E9E7010510196941DDE908450019694129
:10085000BDE8F04DA2E72DE9F04D81EA030404F074
:10086000004B21F0004514464FF0000A23F00041F0
:1008700050EA050220D054EA01021DD0C5F30A5700
:100880000246C5F31303C1F31300C1F30A5640F443
:10089000801543F48013A7EB0608101BD64608F218
:1008A000FD3873EB050002D308F1010801E092184E
:1008B0005B41B8F1000F03DA00200146BDE8F08D7E
:1008C00000204FF48011064684460EE0171B73EBA0
:1008D000050705D3121B63EB050306434CEA010C25
:1008E00049084FEA300092185B4150EA0107EDD108
:1008F00052EA030012D082EA040083EA05010843A9
:1009000005D0101BAB4106D20122002306E00022D5
:100910004FF0004302E06FF0010253101AEB0600A3
:100920004CEB085110EB0A0041EB0B01BDE8F04D18
:10093000FFF734BF064C074D06E0E06840F00103C6
:1009400094E8070098471034AC42F6D3FFF7D2FB87
:100950008C7D0008AC7D00082DE9F04D00231A467F
:100960001B1A8A4103DB00200146BDE8F08DC1F36C
:100970000A52C1F3130141F480154FF0000BD10767
:1009800002D100186D41521E0027044640F2FF11AB
:10099000384601EB620A3E468046024600204FF48C
:1009A0008011FFF73CFCC2197141BB1846EB0100F6
:1009B000B4EB030C75EB000C04D3E41A65EB0005F3
:1009C00017460E46241908F101006D41804634286F
:1009D000E3DDF91946EB0600091BA84103D24FF0ED
:1009E000FF32134601E0002213461BEB070046EBE3
:1009F0000A51BDE8F04DFFF7D1BE70B58C1810F864
:100A0000015B15F0070301D110F8013B2A1106D153
:100A100010F8012B03E010F8016B01F8016B5B1E6D
:100A2000F9D12B0705D40023521E0DD401F8013B48
:100A3000FAE710F8013BCB1A921C03E013F8015BB4
:100A400001F8015B521EF9D5A142D8D3002070BD38
:100A500070B5044600688168C943C90717D1816829
:100A600021F00101816000F0BBFA05460AE000BFF9
:100A700000F0B6FA401B022804D920688068C04301
:100A8000C00706D020688068C043C007F0D00020AF
:100A900070BDA06A40F01000A062E06A40F0010062
:100AA000E062012070BDFEE7704700002DE9F041D3
:100AB00007460024084E094D08E000BF002356F801
:100AC00024001A46394605F08DFF641C686884428C
:100AD000F4DBBDE8F081000028390020A8000020E8
:100AE00010B54FF4806000F075F94FF4006000F02D
:100AF00071F9BDE810404FF4805000F06BB9202030
:100B000000F068B972B6FEE7002003F0FDB80000FF
:100B100002484FF0FF31006806F070B80000002076
:100B20000148006970470000A800002001484068A3
:100B300070470000980000200148C068704700001E
:100B4000C8000020F8B50024009490F82420254621
:100B5000012A12D0012280F824204A681F23072A84
:100B60000DD20668776B521E02EB820293409F43C0
:100B70000B6893401F43776319E00220F8BD0668B5
:100B80000D2A0AD2376BD21F02EB820293409F4399
:100B90000B6893401F43376309E0F76A0D3A02EB95
:100BA000820293409F430B6893401F43F7620A6899
:100BB000072306680A2A0AD3F7680A3A02EB4202B8
:100BC00093409F438B6893401F43F76008E0376969
:100BD00002EB420293409F438B6893401F4337616F
:100BE0000A68102A01D0112A20D1124B02689A42B9
:100BF00017D193681B0219D4936843F400039360E0
:100C00000968102912D10C490C4A0968B1FBF2F1AC
:100C100001EB8101490000E0491E00910029FBD150
:100C200004E0816A41F020018162012480F82450AF
:100C30002046F8BD002401401400002040420F006F
:100C40002DE9F0414FF0000704003D467ED0A06A38
:100C5000002628B9E66284F82460204600F07EF879
:100C60002046FFF7F5FEA16AC90600D420B1A06AAC
:100C700040F01000A06269E0A16A21F4885141F0BF
:100C80000201A1626268E169237B0A4347EA4301EA
:100C90000A43A1684FF48077B94209D0012907D0EF
:100CA0005FF0000194F814C0BCF1010F02D00AE01B
:100CB0003946F7E7F3B1A36A43F02003A362E36A7E
:100CC00043F00103E3622368D3F804C02CF4694CB9
:100CD0004CEA010CC3F804C021688B68DFF870C0CF
:100CE00003EA0C0313438B60A168B9420BD00129BE
:100CF00009D00CE0DFF85CC0A3690CEB43330B4375
:100D000043F40061DFE7218A0D05A5F58015216810
:100D1000CB6A23F470032B43CB62216889680E4BA6
:100D20001940914208D1E662A16A21F0020141F026
:100D30000101A162BDE8F081A06A20F0020040F04C
:100D40001000A062E06A40F00100E0620120F1E7DB
:100D5000FDF7E1FF00E0FFFFFE0E1FFF00B585B0CD
:100D60000021009101910291039100680E4988428F
:100D700018D10E48816941F400718161816901F4E3
:100D800000710491816941F00401816180696946C3
:100D900000F0040004900820009003200190044813
:100DA00000F024F805B000BD00240140001002400E
:100DB00000080140202807D0B0F5806F06D0B0F5BC
:100DC000805F05D103F092B802F03CB902F08CB814
:100DD00070470000044910B50A68024202D008605A
:100DE000FFF7E8FF10BD0000140401402DE9F84FA3
:100DF000DFF8B8910024A9F1040B23460F2709F16D
:100E0000040AABF1040EC9E00125A5402A40AA421C
:100E10007DD1674ED1F804C0ACEB0608B44532D0A2
:100E200014DCBCF1030F3AD009DCBCF1000F2AD06E
:100E3000BCF1010F1CD0BCF1020F31D11DE0BCF19F
:100E4000110F17D0BCF1120F2AD119E0B8F5881F85
:100E500019D006DCB8F5803F15D0B8F5801F1FD13A
:100E600011E0B8F5001F0ED0B8F5041F18D10AE044
:100E7000CB6815E0CB681B1D12E0CB6808330FE090
:100E8000CB680C330CE08B682BB1012B4FF00803BF
:100E900003D0456104E0042302E0056100E0002383
:100EA000FF2A01D8064601E000F104064FEA840556
:100EB00001D9A5F12005D6F8008007FA05FC28EA3B
:100EC0000C0803FA05F548EA0508C6F800804D68E5
:100ED000ED0062D5374DAE6946F00106AE61AD69F1
:100EE00024F0030605F001050095334D06EB050CD3
:100EF000DCF80850A607360F07FA06F825EA0805B9
:100F0000DFF8B880404503D14FF0000817E044E017
:100F1000DFF8AC80404502D14FF001080FE0DFF868
:100F2000A480404502D14FF0020808E0DFF8988025
:100F3000404502D14FF0030801E04FF0040808FAE1
:100F400006F848EA0508CCF808804D68D9F8006032
:100F5000ED024D4601D5164300E096432E604D68E4
:100F6000DAF80060AD02554601D5164300E096431D
:100F70002E604D68DBF80060AD035D4601D5164379
:100F800000E096432E604D68DEF80060ED03754684
:100F900001D5164300E096432E60641C0D682A4676
:100FA000E5407FF431AFBDE8F88F00000804014050
:100FB0000000111000100240000001400008014034
:100FC000000C0140001001400014014080680840FE
:100FD00000D0012070470AB1016170470904FBE7A6
:100FE00001488068704700000800002070B50400C8
:100FF00025D094F83D00002520B984F83C502046C7
:1010000000F00EFB242084F83D002068016821F0E8
:10101000010101602068016841F40041016020681D
:10102000016821F40041016000F0A0FD4D4A6168B3
:10103000914201D84C4900E04C49884201D201203C
:1010400070BD4B492368B0FBF1F15E6826F03F06A6
:101050000E435E606368934206D94FF4967359431A
:101060004FF47A73B1FBF3F12368491C1E6A26F032
:101070003F06314319626168914210D84900401E11
:10108000B0FBF1F2521CC2F30B02042A01D204207D
:1010900022E0B0FBF1F0401CC0F30B001CE0A268A2
:1010A000F2B301EBC10303EB0116431EB3FBF6F3EE
:1010B0005B1C43F480431B0549D092B301EBC10292
:1010C00002EB0111401EB0FBF1F0401CC0F30B001D
:1010D00040F4804040F400402168CA694CF6FF7338
:1010E0009A431043C861D4E907100143206802689D
:1010F00022F0C00211430160D4E9030101432068DA
:10110000826848F2FF339A4311438160D4E90501B4
:1011100008432168CA6822F0FF021043C86001E05A
:101120000EE016E02068016841F0010101602564CD
:10113000202084F83D00256384F83E50002070BDD7
:1011400001EB4106431EB3FBF6F35B1CB3E7012042
:10115000C2E701EB4101401EB0FBF1F0401CC0F3BF
:101160000B00B7E7A086010080841E0000093D0047
:1011700040420F002DE9F84F1F4690468A4604462C
:10118000DDF82890FFF72CFF054694F83D00202855
:101190007FD11923012240492046009501F00CFD22
:1011A000002876D194F83C00012872D0012084F800
:1011B0003C0020680168C90703D1016841F00101C2
:1011C00001602068016821F400610160212084F839
:1011D0003D00102084F83E0000262664C4F82480D8
:1011E0006785608D20852D48E0622B464A46514632
:1011F000204601F095FB90B9206841698069009014
:1012000036E02A464946204601F0B4FD50B1206C34
:10121000042804D12068016841F4007101600120B4
:10122000BDE8F88F606A216800780861606A401C38
:101230006062618D491E6185218D491E89B22185BB
:1012400022685369DB435B070BD451B1007810610E
:10125000606A401C6062608D401E6085208D401E6B
:1012600020852A464946204601F07AFC0028CED146
:10127000208D0028C5D154F83D0B016841F4007160
:101280000160202004F81E09E67766770020C7E792
:10129000FFE70220C4E70000020010000000FFFF8B
:1012A0002DE9FF4F83B00025DDE910799A4693467A
:1012B0000446DDF848800095FFF792FE064694F854
:1012C0003D0020287CD11923012285492046009623
:1012D00001F072FC0028F5D194F83C0001286FD091
:1012E000012084F83C0020680168C90703D1016827
:1012F00041F0010101602068016821F40061016092
:10130000222084F83D00402084F83E002564676276
:10131000A4F82A90608D20857248E062CDE90086AD
:1013200053465A462046049901F048FB00287DD1D7
:10133000208DDFF8B491202768B1012814D002284D
:10134000206801681ED041F4806101602068416915
:1013500080690090B6E02068416981690091016868
:1013600041F400710160ADE02068016821F4806102
:10137000016072B62068416981690091016841F499
:1013800000710AE041F40061016072B620684169B1
:1013900081690091016821F48061016062B691E089
:1013A000032868D801280CD0022843464FF00002D9
:1013B0004946204600960FD001F0FEFBB0BB10E07E
:1013C0008BE032464146204601F09CFC70BB206811
:1013D0000069616A08706CE001F0EEFB30BB72B628
:1013E00034E02068016821F48061016072B62068F1
:1013F0000069616A0870606A401C6062208D401E4E
:101400002085608D401E6085384846F2A81100682E
:10141000B0FBF1F0C0EBC00000EB80000090401E7C
:10142000009008D020684069C04300E029E04007F0
:101430000CD50098F3E744F8305F6773A573206913
:1014400040F02000206162B625731AE02068016830
:1014500041F40071016020680069616A0870606A87
:10146000401C6062218D491E2185618D491E618568
:1014700062B621681BE032464146204601F042FC3C
:1014800018B1012007B0BDE8F08F20680069616ADB
:101490000870606A401C6062218D491E2185618D43
:1014A000491E618521684A69D24352070AD40969F5
:1014B0000170606A401C6062208D401E2085608D36
:1014C000401E6085208D00287FF46AAF84F83D704F
:1014D00084F83E5084F83C50D4E70220D2E7000064
:1014E000020010000000FFFF0400010014000020B3
:1014F0002DE9FF4F83B09A46DDE9119793460446E4
:10150000DDF84080FFF76CFD054694F83D0020288B
:101510007FD11923012240492046009501F04CFB60
:10152000002876D194F83C00012872D0012084F87C
:101530003C0020680168C90703D1016841F001013E
:1015400001602068016821F400610160212084F8B5
:101550003D00402084F83E0000262664C4F8248024
:10156000A4F82A90608D20852C48E062CDE90075B2
:1015700053465A462046049901F09EFA70B930E06D
:101580002A463946204601F0F5FB58B1206C042864
:1015900004D12068016841F400710160012007B0A6
:1015A000BDE8F08F606A216800780861606A401CBD
:1015B0006062218D491E89B22185628D521E62852D
:1015C00022685369DB435B070BD469B10078106173
:1015D000606A401C6062208D401E2085608D401E28
:1015E0006085208D0028CBD12A463946204601F05F
:1015F000B7FA0028CAD154F83D0B016841F40071D4
:101600000160202004F81E09E67766770020C6E70F
:10161000FFE70220C3E70000020010000000FFFF08
:1016200010B586B0002100910191029103910068EC
:101630000F4988421AD10F4CA06940F00800A06100
:10164000A069694600F008000490C02000901220B4
:101650000190032003900848FFF7C8FBE06940F4BD
:101660000010E061E06900F40010049006B010BDC5
:101670000054004000100240000C01400248816804
:10168000027811448160704708000020074810B5B7
:10169000016841F010010160032000F0A7F80F205D
:1016A00000F006F800F050F8002010BD00200240C5
:1016B00030B505461F4887B0C16941F00401C161DA
:1016C000C06906A900F00400009001A800F02EFAFD
:1016D0000498B0B100F04AFA40001749174AB0FB2D
:1016E000F1F11748491E0260416040F2E7320021E3
:1016F000C0E903218160816100F02EFD040003D068
:1017000015E000F033FAE8E70D4800F087FD04002B
:101710000DD11E2000F03CF8102D07D200222946E2
:101720001E2000F043F80748056000E0012407B0E0
:10173000204630BD0010024040420F00000800402B
:10174000280600200C0000200F4808B5816941F0F0
:1017500001018161816901F001010091C16941F0DC
:101760008051C161C069002200F0805000900F21BB
:10177000901E00F01BF80548416821F0E06141F03F
:101780000071416008BD00000010024000000140EF
:10179000002809DB00F01F02012191404009800070
:1017A00000F1E020C0F8001170470000F0B40E4BCB
:1017B0001B680C46C3F30223C3F10705042D00D9AF
:1017C0000425191D072901D2002300E0DB1E012694
:1017D00006FA05F1491E214099409E40761E1640AA
:1017E0003143F0BC02F0EEBD0CED00E0064900F024
:1017F000070208684FF6FF03184040EA0220034A38
:1018000010430860704700000CED00E00000FA058E
:101810002DE9F04186B0040004D094F8A902002517
:1018200020B108E0012006B0BDE8F08184F8A8529C
:10183000204600F05BF8032084F8A902206802F03B
:10184000A2FD04F11001142288466846FEF70AFD45
:1018500094E80F0002F08AFD0227D0BB0021206827
:1018600002F098FD002001260EE000BF00EB800191
:1018700004EBC10181F8296001F8280F401CCD70EC
:101880000D614D61C0B28D6161688142EED800206A
:1018900012E000BF00EB800104EBC10181F8695147
:1018A00081F8680181F86B51C1F87851C1F87C5119
:1018B000401CC0B2C1F8805161688142EAD814224C
:1018C00041466846FEF7CEFC94E80F0002F052FD58
:1018D00010B184F8A972A5E784F8245084F8A962AD
:1018E000206802F045FD00209DE7000008B5006873
:1018F0000649884208D10648C16941F40001C16126
:10190000C06900F40000009008BD0000005C0040C9
:10191000001002402DE9F84305460078354CC00719
:1019200054D0E0690026C00008D4E06940F080503F
:10193000E061E069012600F0805000902E480168C7
:10194000C90512D40168804641F480710160FFF737
:1019500047FB074605E000BFFFF742FBC01B6428BA
:1019600023D8D8F80000C005F6D5206A10F44070DE
:1019700021D0A98801F4407181421CD0206A1F49FE
:10198000012220F440700A6000220A602062C00731
:1019900011D0FFF725FB074641F2883808E000BF69
:1019A000FFF71EFBC11B414502D90320BDE8F883A8
:1019B000206A8007F4D5206A696820F440700843E3
:1019C00020621EB1E06920F08050E0612878800735
:1019D00005D56068A96820F4404008436060287815
:1019E000C00605D56068E96820F48000084360609F
:1019F0000020DBE70010024000700040400442423B
:101A00002DE9F0470F46050061D0434E306800F0E5
:101A10000700B84209D2306820F007003843306030
:101A2000306800F00700B84251D128683B4C81076C
:101A300012D5400703D5606840F4E0606060287804
:101A4000000703D5606840F4605060606068A96872
:101A500020F0F000084360602878C00728D068684C
:101A6000012810D02168022810D0890700292EDA19
:101A7000616821F0030101436160FFF7B1FA80461C
:101A800041F288390DE021688903EFE78901EDE72C
:101A9000FFF7A6FAA0EB0801494502D90320BDE8EB
:101AA000F0876068696800F00C00B0EB810FEFD13F
:101AB000306800F00700B8420BD9306820F007000A
:101AC00038433060306800F00700B84201D0012090
:101AD000E5E72878400705D56068E96820F4E0600C
:101AE000084360602878000706D56068296920F4FB
:101AF000605040EAC100606000F058F86168084A30
:101B0000C1F30311515CC8400649086006480068EB
:101B1000FFF7CEFD0020C2E7002002400010024087
:101B20000E730008140000200C0000200F22026039
:101B30000C4A536803F003034360536803F0F00357
:101B40008360536803F4E063C36052684FF4E0635A
:101B500003EAD20202610448006800F0070008604E
:101B60007047000000100240002002400448054970
:101B700000684968044AC1F30221515CC8407047BB
:101B800014000020001002401E730008044805499C
:101B900000684968044AC1F3C221515CC8407047DB
:101BA00014000020001002401E7300080E4A516805
:101BB0000E4801F00C03042B11D0082B0FD10C4858
:101BC000C1F38343C903C05C0AD55168084AC1F315
:101BD0004041921E515C054A5043B0FBF1F0704702
:101BE00004494843704700000010024000127A0088
:101BF000FE72000800093D002DE9F84F040070D086
:101C00002078C04DC00749D06868C0F38100012822
:101C100007D06868C0F38100022809D16868C00352
:101C200006D52868800339D560680028E7D035E0FC
:101C30006068B0F5803F0BD010B1B0F5A02F11D087
:101C4000286820F480302860286820F4802002E092
:101C5000286840F480302860606890B1FFF7C0F9D0
:101C600006460AE0286840F480202860F0E700BFBC
:101C7000FFF7B6F9801B642873D828688003F7D56E
:101C80000CE0FFF7ADF9064605E000BFFFF7A8F945
:101C9000801B6428F0D828688003F7D420789A4EF7
:101CA00080074FF001094FF0000839D5686810F03F
:101CB0000C0F07D06868C0F38100022809D168685A
:101CC000C00306D42868800714D52069012808D1EC
:101CD00010E02069B0B1C6F80090FFF781F907461F
:101CE00005E00AE1FFF77CF9C01B0228C4D8286888
:101CF0008007F7D52868616920F0F80040EAC10044
:101D000028600DE0C6F80080FFF76AF9074604E096
:101D1000FFF766F9C01B022823D828688007F7D48C
:101D2000207800072CD57948A169D9B1C0F8009076
:101D3000FFF756F9074604E0FFF752F9C01B0228E7
:101D40000FD8686A8007F7D571484FF4FA510068D8
:101D5000B0FBF1F0009000BF0098411E0091FAD254
:101D60000EE080E0C0F80080FFF73AF9074604E093
:101D7000FFF736F9C01B022875D8686A8007F7D4C8
:101D80002078400760D5E8690027C00008D4E869DA
:101D900040F08050E861E869012700F08050009031
:101DA0005C480168C90513D40168834641F4807119
:101DB0000160FFF715F9824606E000BFFFF710F952
:101DC000A0EB0A0064284ED8DBF80000C005F5D56A
:101DD000E06801280AD008B1052813D0286A20F04D
:101DE00001002862286A20F0040002E0286A40F01E
:101DF00001002862E06841F2883B98B1FFF7F0F8F3
:101E000082460BE0286A40F004002862EEE700BF3B
:101E1000FFF7E6F8A0EB0A0159455AD8286A80076F
:101E2000F6D50CE0FFF7DCF8824605E0FFF7D8F8BE
:101E3000A0EB0A0159454CD8286A8007F6D41FB197
:101E4000E86920F08050E861E06988B36968C1F30F
:101E50008101022944D00228C6F8608004D0FFF72F
:101E6000BFF8044638E034E0FFF7BAF8074604E06C
:101E7000FFF7B6F8C01B02282BD828688001F7D4DA
:101E8000206AB0F5803F05D16868A16820F4003071
:101E900008436860D4E908010843696821F47411B3
:101EA00008436860C6F86090FFF79AF8044606E0B9
:101EB00025E000BFFFF794F8001B022809D8286826
:101EC0008001F7D51BE000BFFFF78AF8001B02284E
:101ED00002D90320BDE8F88F28688001F4D40EE011
:101EE0000128F7D06868226A00F48031914204D159
:101EF000616A00F47010884201D00120EAE70020F6
:101F0000E8E7000000100240000042428004424224
:101F1000140000200070004070B5040009D0606A11
:101F2000002540B125616561A56294F8510040B17A
:101F30000CE0012070BD6068B0F5827FF4D0E561EF
:101F4000F2E784F85050204600F040F8022084F870
:101F500051002068016821F040010160A0882189BA
:101F600000F4827001F404410843A18901F4006186
:101F70000843217C01F002010843217D01F00101A9
:101F80000843218B01F400710843217F01F03801DF
:101F9000084394F8201001F080010843218D01F4DA
:101FA0000051084321680860A069042101EA10403B
:101FB000216848602068C16921F40061C1616565DC
:101FC000012084F85100002070BD000030B585B0BC
:101FD00000240094019402940394006814498842F8
:101FE00023D11448816941F480518161816901F4F0
:101FF00080510491816941F00401816180690E4D35
:1020000000F004000490A020009002200190032022
:10201000039069462846FEF7E9FE4020CDE900041A
:10202000694628460294FEF7E1FE05B030BD000087
:102030000030014000100240000801407047704726
:1020400010B590F83C20012A22D0012280F83C20D3
:10205000CA688C6822F4407222434C6822F4806281
:1020600022430C6822F4006222430C6922F480525D
:1020700022434C6922F400522243C969002322F40E
:1020800080420A4301684A6480F83C30002010BD59
:10209000022010BD70B590F83C20012A26D0012402
:1020A00080F83C40022280F83D2003685A689D6811
:1020B00022F070060A6832435A600D4B02689A4259
:1020C00008D0B2F1804F05D00A4B9A4202D00A4B99
:1020D0009A4204D1496825F080031943916080F841
:1020E0003D40002180F83C10084670BD022070BDC4
:1020F000002C0140000400400008004010B50446D8
:10210000022084F83D002068016A41F21112114258
:1021100007D1016A9210114203D1016821F0010137
:102120000160204600F046F8002084F8460084F85C
:102130003E0084F83F0084F8400084F8410084F8B1
:10214000420084F8430084F8440084F8450084F891
:102150003D0084F83C0010BD10B5040003D094F895
:102160003D0010B107E0012010BD002084F83C00C4
:10217000204600F035F8022084F83D00211D20683B
:1021800001F07CFF012084F8460084F83E0084F8CA
:102190003F0084F8400084F8410084F8420084F84D
:1021A000430084F8440084F8450084F83D00002092
:1021B00010BD0000084A01680848914204D18169B5
:1021C00021F4006181617047B1F1804FFBD1C16999
:1021D00021F00101C1617047002C01400010024054
:1021E00008B50C4A01680C48914207D1816941F455
:1021F00000618161806900F4006009E0B1F1804F05
:1022000007D1C16941F00101C161C06900F001005D
:10221000009008BD002C01400010024090F83D10D5
:10222000012901D001207047022180F83D1001688A
:10223000CA6842F00102CA6000680B49884208D0AF
:10224000B0F1804F05D00949884202D00849884240
:1022500004D1816801F00701062903D0016841F02B
:102260000101016000207047002C01400004004083
:102270000008004070B5044690F83C000025012895
:1022800017D0012684F83C60022084F83D002068C5
:10229000826822F0770222F47F4282600868502828
:1022A00038D00DDC20284FD005DC90B3102811D198
:1022B0004AE0022070BD302846D040280AD13BE0D9
:1022C00060282FD070280DD0B0F5805F03D0B0F516
:1022D000005F12D0012584F83D60002084F83C00A6
:1022E000284670BDCB68D1E90121206801F009FFC3
:1022F0002068816841F0770109E0CB68D1E90121CC
:10230000206801F0FEFE2068816841F48041816010
:10231000E1E719E0CA684968206801F0A7FF502189
:10232000206806E0CA684968206801F0B0FF6021B3
:10233000206801F0F0FECEE7CA684968206801F025
:1023400095FF40212068F4E7226801461046F0E737
:10235000704770B50446006801694FF00005C94335
:10236000890715D4C168C943890711D4E91E0161E1
:1023700001202077206880698007204602D0FFF77F
:10238000E7FF04E000F00EF9204600F0B3F92577EE
:1023900020680169C943490717D4C168C94349077F
:1023A00013D46FF004010161022020772068806956
:1023B00010F4407F204602D0FFF7CAFF04E000F08F
:1023C000F1F8204600F096F9257720680169C943A5
:1023D000090716D4C168C943090712D46FF0080170
:1023E0000161042020772068C0698007204602D060
:1023F000FFF7AEFF04E000F0D5F8204600F07AF9D0
:10240000257720680169C943C90617D4C168C94343
:10241000C90613D46FF010010161082020772068ED
:10242000C06910F4407F204602D0FFF791FF04E01E
:1024300000F0B8F8204600F05DF9257720680169C2
:10244000C943C90708D1C168C943C90704D1891E56
:102450000161204600F0D6F920680169C9430906E8
:1024600009D4C168C943090605D46FF08001016130
:102470002046FFF7E3FD20680169C943490609D4F6
:10248000C168C943490605D46FF040010161204687
:1024900000F0C2F920680169C94389060BD4C168FC
:1024A000C943890607D46FF0200101612046BDE8C9
:1024B0007040FFF7C4BD70BD70B586B000210091BB
:1024C0000191029103910068304B31490224314A55
:1024D000984211D1886940F00400886188690394AA
:1024E00000F0040004908815CDE900046946104608
:1024F000FEF77CFC06B070BD274E284DB0F1804F32
:102500001BD0274A9042F5D1886940F008008861C5
:102510008869694600F0080004901020CDE90004A5
:1025200030460394FEF762FC686820F4406040F097
:10253000E06040F400606860DCE7886940F0040017
:102540008861886900F004000490886940F0080000
:1025500088618869694600F00800049048F2040028
:10256000CDE9000410460394FEF740FC0820CDE9B5
:102570000004694630460394FEF738FC686820F48E
:10258000407040F0E06040F48070D4E7002C0140DF
:102590000010024000080140000C01400000014012
:1025A00000040040704770B5044690F83C000026D7
:1025B0000D4601280FD0012084F83C006AB1042A9E
:1025C0001DD0082A2FD00C2A3FD00126002084F8E5
:1025D0003C00304670BD022070BD206801F0A4FDB3
:1025E0002068816941F0080181612068816921F0DA
:1025F00004018161206881692A69114311E0206822
:1026000001F0BAFD2068816941F4006181612068B0
:10261000816921F480618161206881692A6941EAC8
:1026200002218161D2E7206801F0D2FD2068C169F2
:1026300041F00801C1612068C16921F00401C16154
:102640002068C1692A69114311E0206801F0ECFD9E
:102650002068C16941F40061C1612068C16921F449
:102660008061C1612068C1692A6941EA0221C161B2
:10267000ACE710B5040003D094F83D0010B107E0BA
:10268000012010BD002084F83C00204600F01EF818
:10269000022084F83D00211D206801F0EFFC01209C
:1026A00084F8460084F83E0084F83F0084F8400037
:1026B00084F8410084F8420084F8430084F8440020
:1026C00084F8450084F83D00002010BD08B500687E
:1026D0000649884208D10648C16941F00201C1613A
:1026E000C06900F00200009008BD00000004004036
:1026F000001002407047000010B50446022249B1A4
:1027000004290ED0082913D094F84100012816D0CE
:10271000012010BD94F83E000128F9D184F83E2034
:102720000FE094F83F000128F2D184F83F2008E040
:1027300094F840000128EBD184F8402001E084F8AF
:1027400041200122206801F0CFFC0F492068884217
:1027500003D1426C42F4004242642068884208D0AF
:10276000B0F1804F05D00949884202D0084988421B
:1027700004D1816801F00701062903D0016841F006
:1027800001010160002010BD002C01400004004048
:102790000008004030B504460D460068002201F0F4
:1027A000A3FC174B41F2111120688A10984209D1FD
:1027B000036A0B4206D1036A134203D1436C23F42C
:1027C000004343642068036A0B4206D1016A114248
:1027D00003D1016821F00101016001203DB1042D08
:1027E00008D0082D09D084F84100002030BD84F8BD
:1027F0003E00FAE784F83F00F7E784F84000F4E78A
:10280000002C014000680349884201D1FEF736BF21
:102810007047000000080040704770B5040004D005
:1028200094F84100002510B106E0012070BD84F845
:102830004050204600F024F8242084F8410020680D
:10284000C16821F40051C160204601F033FD2068C9
:10285000016921F4904101612068416921F02A0158
:1028600041612068C16841F40051C1606564202065
:1028700084F8410084F842006563002070BD0000C8
:1028800030B585B00024009401940294039400684C
:102890001449884224D11448816941F480418161FE
:1028A000816901F480410491816941F004018161F1
:1028B00080690E4D00F0040004904FF40070009009
:1028C000022001900320039069462846FEF78EFA05
:1028D0002815CDE90004694628460294FEF786FAD9
:1028E00005B030BD00380140001002400008014032
:1028F000FEE701684A69D24352050FD46FF4806243
:102900004A61002140F8301F20224273817302691E
:1029100042F00402026101730120704700207047F9
:10292000F8B50446C06A1E460D461746082807D06B
:10293000012805D010F5803F02D0206B122804D169
:102940002068016841F480710160134600224FF055
:1029500001112046009600F02FF940B12068006870
:10296000C00502D54FF4007020640320F8BD206933
:10297000B0F5804F0ED00620216800EAD51040F057
:10298000F000086133463A460B49204600F05CF9F6
:1029900078B902E005F0FE0000E0E8B221680861C5
:1029A000054933463A46891F204600F04DF9002874
:1029B000DCD00120F8BD0000080001002DE9F84F2F
:1029C0000446006889460B9D01689846174641F405
:1029D000806101602068016841F4807101600095A8
:1029E0004FF0011B0022594620460A9B00F0E4F8F4
:1029F0004FF4007A40B120680068C00501D5C4F8E2
:102A000040A00320BDE8F88F216809F0FE000861AE
:102A10002B46284920460A9A00F016F9F0BB206898
:102A20004169806900902A4620460A9900F0A2F97F
:102A300040B1206C04283AD12068016841F400714B
:102A4000016034E0FEB2B8F1010F09D02168380A04
:102A500008612A4620460A9900F08CF90028E8D13E
:102A6000206806612A4620460A9900F083F900286A
:102A7000DFD12068016841F4807101600095002277
:102A8000594620460A9B00F097F80028B3D12168E8
:102A900009F0FF0040F00100086100E007E02B466C
:102AA000044920460A9A00F0CFF80028AAD0012055
:102AB000A8E70000020001002DE9F8430446006881
:102AC0000D46DDE9089701689846164641F4807185
:102AD00001604B4600224FF001112046009700F0A4
:102AE0006BF848B120680068C00502D54FF400704B
:102AF00020640320BDE8F883216805F0FE0008612A
:102B00003B464A461549204600F09EF888B92068A1
:102B10004169806900903A464946204600F02AF90A
:102B200048B1206C042804D12068016841F4007188
:102B300001600120DEE7F5B2B8F1010F09D021688C
:102B4000300A08613A464946204600F013F9002849
:102B5000E7D1206805610020CCE7000002000100F9
:102B600070B516460D4604461EE02046FFF7C1FE2E
:102B700008B1012070BD681C16D0FEF731FA801B29
:102B8000A84200D885B920684069C04340070BD5EA
:102B9000002044F8300F20216173A073216941F0B7
:102BA000200121612073E4E720684069C0434007A9
:102BB000DBD4002070BD00002DE9F0479846174691
:102BC0000D460446C1F30746DDF820902AE000BF19
:102BD000B8F1FF3F26D0FEF703FAA0EB090141450B
:102BE00002D8B8F1000F1DD12068012E16D08069DF
:102BF00025EA00000004000C12D00020B84211D1D8
:102C0000002044F8300F20216173A073216941F046
:102C10002001216120730120BDE8F0874069E7E7CA
:102C20000120EBE72068012E0AD0806925EA000028
:102C30000004000C06D00020B842C9D00020EBE709
:102C40004069F3E70120F7E72DE9F047984616467B
:102C50000D4604464FF000094FF0200AC1F3074724
:102C600023E020684069C043400515D4206801680E
:102C700041F40071016021686FF480604861C4F81C
:102C8000309084F83DA084F83E90216C41F004011E
:102C9000216484F83C9021E0701C06D0FEF7A0F976
:102CA000A0EB0800B04203D816B1012F1FD021E0DD
:102CB0002068012F15D0806925EA00000004000C6F
:102CC00018D000BF44F8309F84F80DA084F80E900F
:102CD000216941F02001216184F80C900120BDE8B8
:102CE000F087406925EA00000004000CEAD1206862
:102CF000406901E02068806925EA00000004000CBA
:102D0000AFD1ECE72DE9F041002590460E46044690
:102D1000202728E04069C043C0060CD454F8301B7B
:102D20006FF01000486144F810596777A577206A62
:102D30002062257714E0FEF753F9A0EB0800B042BB
:102D400000D886B920684069C04340060BD544F8D6
:102D5000305F6773A573206940F020002061257300
:102D60000120BDE8F08120684169C9434906D1D4FA
:102D70000020F6E770B516460D4604461EE02046D4
:102D8000FFF7B7FD08B1012070BD681C16D0FEF733
:102D900027F9801BA84200D885B920684069C04344
:102DA00000060BD5002044F8300F20216173A0737A
:102DB000216941F0200121612073E4E72068406926
:102DC000C0430006DBD4002070BD00002DE9FE4F9B
:102DD000DFF8F89000224846DFF8F4C0D0E902613D
:102DE000D9E900400B46341B61EB0001501EB4EBE7
:102DF0000C0C1546174671F1000C5ED3DFF8D48039
:102E00004FF0000CB8EB04047CEB010C55D34C469E
:102E1000D4E904C1BCEB060661EB03012E4BF31AA7
:102E200071F1000349D3DFF8B4C00023BCEB060600
:102E30008B4142D300234FF00309EA4609EB4308D4
:102E400008F1010C04EBCC0104EBC80CD1E90061E2
:102E5000DCE9008CB6EB080661EB0C015206DFF8EA
:102E60008080120E6D1C4FF0000CB8EB06067CEB58
:102E7000010C01D242F00102082D04D10AF807200A
:102E8000002215467F1C5B1C202BD7DB9DF8011010
:102E9000C943CBB28DF801309DF80310C943CAB2C3
:102EA0008DF803209DF80010994203D19DF802305F
:102EB000934204D00B4A00211160BDE8FE8FCDE99A
:102EC000011301A8FDF7F2FD0020F6E70837002006
:102ED00000127A0080969800E0673500C03B4703F7
:102EE00040420F00A80000202DE9FC4102F082FFC3
:102EF000244C254ED4E90623871A61EB03020023F4
:102F00001D46F61B934100D22560C4E906011F4A05
:102F1000236802EBC3065B1CC6E900012360042B97
:102F200006D0442B02D1FFF751FF2560BDE8FC819C
:102F3000D2E90260D2E900370146F31A60EB0700DC
:102F4000134FDF1B70F10007F0D3DFF848C00027F4
:102F5000BCEB03038741E9D3D2E90402801B62EB97
:102F600001020D49411A72F10001DFD34FEAAC03AF
:102F70000021181A9141D9D3009568460195FDF7B3
:102F800095FDD2E7A800002000E1F50508370020F4
:102F900000127A008096980080841E0010B50022EE
:102FA00008210A2003F0CCFB02490861BDE810406B
:102FB00000F08EBFA80000200EB501260027184C97
:102FC0004FF0FF3802254146E06903F00DFE00286E
:102FD000F9D0616A884202D100F01AFFF3E7A16AD2
:102FE000884202D100F03AFFEDE7E36A9842EAD165
:102FF000002202A9184603F05BFD02985A2801DD61
:10300000019503E001DA019600E001974FF000031B
:1030100000951A466946206A03F02EFCD3E70000AB
:10302000F000002000F0A2BC00F0B6BC00F0D0BC64
:1030300000F0FEBC00F006BD00F04EBD00F08EBDFD
:1030400000F0CBBD024800220121806803F078BA6D
:103050009800002008B56946752000F0DFF810B12F
:103060004FF0FF3008BD9DF8000008BD10B50021ED
:103070006B2000F0D9F900216C2000F0D5F909216E
:10308000192000F0D1F906211A2000F0CDF91821FD
:103090001B2000F0C9F918211C2000F0C5F90021FF
:1030A000372000F0C1F9FF21382000F0BDF90022DF
:1030B00004210A2003F044FB034C606003F0ECF9A8
:1030C000A060002010BD00009800002010B5049CF6
:1030D000002C0FD04038FDF79BFA6FF00D02FDF782
:1030E00072FA01F0D5FA044A044BFDF7FAF9FDF73C
:1030F000B4FA206010BD0000A79196CADBA54C4031
:103100002DE9FC5F1D46DDE90CAB1646894607003C
:103110004FF0000411D001A93B2000F07FF8804659
:1031200069463C2000F07AF840EA08049DF8000067
:103130009DF8041040EA01203880B9F1000F13D047
:1031400001A93D2000F06AF840EA040769463E20E4
:1031500000F064F840EA07049DF800009DF80410B0
:1031600040EA0120A9F8000096B101A93F2000F033
:1031700055F840EA04076946402000F04FF840EA5D
:1031800007049DF800009DF8041040EA01203080FB
:1031900095B101A9432000F041F840EA04066946D0
:1031A000442000F03BF840EA06049DF800009DF83A
:1031B000041040EA01202880BAF1000F13D001A9C1
:1031C000452000F02BF840EA04056946462000F04F
:1031D00025F840EA05049DF800009DF8041040EA37
:1031E0000120AAF80000BBF1000F13D001A947206D
:1031F00000F014F840EA04056946482000F00EF893
:1032000040EA05049DF800009DF8041040EA012002
:10321000ABF800002046BDE8FC9F00000EB54FF45F
:10322000FA7201230292CDE9001302460248D0212E
:103230000068FEF735F80EBD9800002086B0174EE6
:103240004FF0FF3700240DF10C08012200970023F6
:103250001146B06803F07CF9FDF75AFC0023009496
:103260001A46194604A80194FFF74AFF054600F0E4
:1032700025FE7DB90094CDE9014800231A46194680
:10328000BDF91000FFF722FF00231A4603A970685A
:1032900003F0F2FA142002F029FFD6E7980000208C
:1032A0008AB0FFF7E3FEFFF7D5FE0446002153A2E4
:1032B0000846FFF7C5FE0123224602210020FFF742
:1032C000BBFE4FF47A7001F0B1FFFFF7ABFE4E4D3D
:1032D0004E4E09AF0DF110090DF10C086FF00D0401
:1032E00008AB07AA06A905A8CDE90089FFF708FFE2
:1032F000BDF91000BDF90C10CDE900100297BDF921
:103300002030BDF91C20BDF91810BDF91400FFF7DD
:10331000DDFE00213EA20846FFF792FEBDF9140033
:103320004038FDF775F92246FDF74DF901F0B0F987
:103330002A463346FDF7D5F8FDF78FF902460021FE
:103340000320FFF77BFEBDF9202000210A20283250
:10335000FFF774FE2FA202210020FFF771FEBDF9D6
:1033600018001E38FDF754F92246FDF72CF901F03C
:103370008FF92A463346FDF7B4F8FDF76EF9024699
:1033800002210320FFF75AFEBDF90C2002210A207A
:10339000D21FFFF753FE20A204210020FFF750FEAA
:1033A000BDF91C0000F56150FDF732F92246FDF72A
:1033B0000AF901F06DF92A463346FDF792F8FDF758
:1033C0004CF9024604210320FFF738FEBDF9102016
:1033D00004210A200E3AFFF731FE10A20621002038
:1033E000FFF72EFEC0B20621099AFFF727FE6420E0
:1033F00002F07CFEFFF716FE72E700004D505536D6
:103400003035302049443A00A79196CADBA54C409C
:10341000583A2000593A20005A3A2000416E676C11
:1034200065583A20000000001CB502238DF8040006
:103430004FF4FA70009004488DF8051001AAD021CD
:103440000068FDF797FE1CBD980000203EB50024E3
:1034500011480094019402940E4984600160047341
:103460000475012505614FF460214460C161FDF7D9
:10347000E7FB08B1FDF746FB0320CDE900056946EF
:1034800002940548FDF75EFB002801D0FDF73AFBEA
:103490003EBD0000002401403C0100201CB501207D
:1034A00003F03FF9114C2060FFF7C4FDFFF7BAFDB0
:1034B00000F036FCFFF7DAFDFFF770FD00F056FD77
:1034C00000210BA20846FFF7BBFD0C4A00210C4867
:1034D00001F0F6FE002160601820CDE900010B46E6
:1034E000802208A10A4803F07FFC1CBD00000020D8
:1034F0005374617274696E6700000000D87200082E
:10350000913F000847616D655461736B00000000D6
:10351000655000082DE9F04786B000244E4800941D
:10352000019402940394816941F0100181618169E1
:1035300001F010010491816941F0200181618169EC
:1035400001F020010491816941F0040181618169E8
:1035500001F004010491816941F0080181618069F1
:10356000012200F008003D4F5503049029463846DB
:10357000FDF731FDDFF8E890002213214846FDF702
:103580002AFDDFF8E0A04FF40248002241465046F1
:10359000FDF721FD0095022601250396CDE9015492
:1035A00069463846FDF722FC112700970396CDE9BE
:1035B000015469464846FDF719FCCDE90256CDE9AC
:1035C000006769464846FDF711FC03208DE831008D
:1035D00069465046FDF70AFCA80200902248CDE952
:1035E000010569465046FDF701FC204FE802CDE990
:1035F0000007694602955046FDF7F8FB4FF48150ED
:10360000CDE90007694602945046FDF7EFFB4FF401
:103610008240CDE90004694650460294FDF7E6FB7E
:10362000CDF800800396CDE9015469465046FDF778
:10363000DDFB002205211720FEF7B8F81720FEF762
:10364000A7F8002205212820FEF7B0F82820FEF771
:103650009FF806B0BDE8F08700100240001001405E
:1036600000080140000C0140000031100000111062
:103670000D4810B50B4901600C49416000214FF421
:1036800080428160C0E9031241618161C1610162D0
:10369000FDF7ACFC002803D0BDE81040FDF732BABE
:1036A00010BD0000005400406C010020A086010005
:1036B000104810B50E4901604FF48271416000213D
:1036C0008160C1604FF400720161C0E905120822F7
:1036D000C0E90721416281620A21C162FEF71CFC38
:1036E000002803D0BDE81040FDF70CBA10BD000063
:1036F00000300140C001002010B596B000240F94A6
:1037000010941194129413941C2108A81494FCF79B
:10371000C2FD20216846FCF7BEFD2A482849016009
:103720004721C0E9011440F2E731C0E903148021C8
:10373000C0E90541FEF710FD08B1FDF7E3F94FF4CC
:1037400080500F900FA91F48FEF794FD08B1FDF7B8
:10375000D9F91C48FEF78DFF08B1FDF7D3F9139492
:1037600013A918481494FEF795FC08B1FDF7CAF99F
:103770006020089040F2F310CDE909040B940C94FA
:103780000D94002208A90F480E94FEF70CFF08B113
:10379000FDF7B8F900944FF40050CDE904400294CD
:1037A00001940394694607480794FEF749FC08B161
:1037B000FDF7A8F90348FEF77FFE16B010BD000024
:1037C000002C01401802002010B58EB00024079490
:1037D000089409940A940B941C2168460C94FCF7F5
:1037E0005AFD27484FF08041016040F26711C0E95F
:1037F000011440F2CF71C0E9031480218161FEF70A
:10380000ABFC08B1FDF77EF94FF48050079007A993
:103810001B48FEF72FFD08B1FDF774F91848FEF7B5
:1038200028FF08B1FDF76EF90B940BA914480C940E
:10383000FEF730FC08B1FDF765F96020CDE9000422
:103840000294002269460E480494FEF7ACFE08B1CB
:10385000FDF758F9042269460948FEF7A4FE08B1AD
:10386000FDF750F9082269460548FEF79CFE08B1AD
:10387000FDF748F90248FEF71FFE0EB010BD00002C
:103880006002002010B58AB0002407941C2168460D
:103890000894FCF700FD1848164901600721C0E9AB
:1038A000011440F2E731C0E9031480218161FEF781
:1038B000E0FE08B1FDF726F9079407A90E48089421
:1038C000FEF7E8FB08B1FDF71DF9602000904FF40A
:1038D0006170CDE901040022694607480494FEF7AF
:1038E00062FE08B1FDF70EF90348FEF7E5FD0AB0E8
:1038F00010BD000000040040A80200200C4810B5D4
:103900000A4901604FF4E1314160002181600C22DD
:10391000C160C0E904128161C161FEF77EFF002829
:1039200003D0BDE81040FDF7EDB810BD00380140F0
:10393000F00200200B4810B50949016008214160E0
:103940000221816000218161C1610162FDF760FF98
:10395000002803D0BDE81040FDF7D4B810BD00002A
:10396000005C004038030020FEE7FEE710B5A0B081
:10397000002480216846FCF78EFC0021204600F0E0
:103980007FF98021684600F0AFF9641CE4B2082C8E
:10399000F3D320B010BD000070B50C4D002400BF63
:1039A00004F1B000C0B200F08BF9002000F088F9FB
:1039B000102000F085F905EBC410802100F094F987
:1039C000641CE4B2082CEBD370BD000088320020E8
:1039D0002DE9F0478146C81701EB5070C0F3C705C9
:1039E00020F00700081A1844C01DC11700EB5170E1
:1039F0009246C0F3C7070024DFF8308011E02E198B
:103A0000082E0CD209F0FF01F0B200F039F909EBF1
:103A1000C6121FFA8AF102EB080000F065F9641C77
:103A2000E4B2BC42EBD3BDE8F0870000883200204E
:103A30008023036040200860012010600048704728
:103A40008832002010B50224202000F039F92046E9
:103A500000F036F91F4804703F24A82000F030F928
:103A6000204600F02DF90024D32000F029F920464B
:103A700000F026F9402000F023F9A12000F020F901
:103A8000C82000F01DF90021084600F0E3F87F246B
:103A9000812000F015F9204600F012F9A42000F072
:103AA0000FF9A62000F00CF9D52000F009F98020CC
:103AB00000F006F98D2000F003F9142000F000F961
:103AC0000021012000F0C6F8BDE81040AF2000F052
:103AD000F7B8000090000020F0B51CA61546074678
:103AE00055CE87B00DF10C0C8CE8550030208DF8C8
:103AF0000000782000268DF8010002248DF80A606D
:103B000007206A464FEA800E25FA0EFE0EF00F0ED1
:103B1000022C1CF80EE002F804E004D19DF802E04B
:103B2000BEF1300F00D0641C401EEBD5022C00D13A
:103B300003243846165523B100F04FF8204607B04D
:103B4000F0BD921C00F049F8A01EF8E73031323386
:103B5000343536373839616263646566F0B589B0EB
:103B60000024074620466D4604AE002A08DA4FF0CE
:103B70002D038DF800304FF00104C2F1000214E073
:103B800006D14FF030008DF800004FF001041AE02C
:103B90004FF00A0C92FBFCF30CFB132392FBFCF29C
:103BA00003F13003335400F10100002AF0D108E0A2
:103BB00006EB0002A0F1010012F8012C2A5504F1D5
:103BC00001040028F4D14FF0000028552A46384659
:103BD00000F003F809B02046F0BD2DE9F04117468A
:103BE0000E46044600250BE03146204600F00EF854
:103BF000641CE4B20F2C02D90024B61CF6B26D1C72
:103C00007A5D002AF0D12846BDE8F08170B51646ED
:103C1000C206150E0C46072918D80F2816D82946B3
:103C2000204600F02DF80A48082100EB0610064651
:103C300000F05AF8641CE0B2294600F021F806F1C1
:103C40000800BDE87040082100F04EB870BD0000CB
:103C50002673000870B50C46050001D0012D0ED169
:103C60000CB1012C0BD1DA2000F02AF8280100EB6E
:103C70004410BDE87040801CC0B200F021B870BD97
:103C800070B50E4D0C462978022905D1072803D8B6
:103C9000B030C0B200F014F8287802280CD17F2C84
:103CA0000AD804F00F0000F00BF8102000EB1410FD
:103CB000BDE8704000F004B870BD00009000002026
:103CC0001CB500218DF804108DF805004FF4FA7032
:103CD00000900448022301AA78214068FDF74AFABF
:103CE0001CBD0000900000200EB54FF4FA728DE864
:103CF000070004480123402278214068FDF7F8FBC3
:103D00000EBD000090000020010004484FF00001AB
:103D1000006801D0FEF7F0BCFEF73CBDA400002017
:103D200070B58CB01C216846FCF7B5FA4FF4807072
:103D30000225CDE90705002407A91048CDE909456A
:103D4000FDF754F80F4E0E484722316815C140F276
:103D5000E732E1E80224802261E8044200F08EF9B3
:103D600060200090049440F2F310CDE90105002298
:103D700069463068FEF717FC0CB070BD00080140C2
:103D8000002C0140A40000202DE9F04188B08846B5
:103D900006461C216846FCF77EFA1A4C0021206872
:103DA000FEF7F8FC2068FEF7A9F9206816490025FF
:103DB00001604721C0E90115144F97FBF6F1491E38
:103DC000C0E903158021C0E90551FEF7C5F960205F
:103DD00000900220029097FBF6F0401E00FB08F0D6
:103DE000642190FBF1F0049501900022694620685F
:103DF000FEF7D9FB00212068FEF77EFC08B0BDE885
:103E0000F0810000A4000020002C014040420F007F
:103E10001CB5114C00226946606A02F049FE019906
:103E200004F13000E0290ED0902910D019B100998A
:103E3000016000214160084900231A463031206AA0
:103E400002F01AFD1CBD009901600221F2E7009901
:103E500001600121EEE70000F00000207FB5164E62
:103E600000226946B06A02F023FE0198002804DAB5
:103E7000019901204942019101E001990020642942
:103E800001DD042404E0322901DD022400E00124E4
:103E90000121029108B1022000E0012000250390D9
:103EA00006E000231A4602A9306A02F0E5FC6D1C08
:103EB000A542F6DB7FBD0000F00000200348002390
:103EC0001A461946006802F0D7BC00000000002026
:103ED000044A51680A2904DA034B43F82100491CBB
:103EE00051607047A8000020283900202DE9FC41CE
:103EF00001F080FF06460D46022001F097F9184FA9
:103F00004FF480513846FDF761F8002820D0154C59
:103F1000D4E90401321A65EB010313480021FCF7D0
:103F20004DF9606001213846FDF750F800282068FF
:103F300010D0401CC4F80000C4E90465206800905B
:103F40006068002301901A466946E06802F04AFD65
:103F5000BDE8FC81401E2060606840426060EBE785
:103F6000000C0140C800002000CA9A3B08B50020A0
:103F7000054B0090A3F1500208210A2002F004FC36
:103F80000249C86008BD0000A0390020C800002018
:103F9000002002F0D1F8FFF74DF8FFF743F8FEF7E5
:103FA000FDFF002103A20846FFF74AF8FFF778F962
:103FB000FCE7000057616974696E6720636F6E7477
:103FC000726F6C0010B5502080F31188BFF34F8FD3
:103FD000BFF36F8F02F074FF18B104494FF08050A7
:103FE0000860002080F3118810BD000004ED00E09F
:103FF00030B593B028216846FCF74DF914210AA882
:10400000FCF749F9002401200F9410941194010445
:1040100012948DE8130004904FF4E010CDE90810DD
:10402000022507956846FDF7E7FD08B172B6FEE781
:104030000F20CDE90A054FF48060CDE90C40022144
:104040000AA80E94FDF7DCFC08B172B6FEE7122058
:104050000F904FF40040CDE911040FA8FDF75AFC72
:10406000002801D072B6FEE713B030BD70470000E3
:104070000148FEF76EB9000028060020F0B502687E
:10408000164B174C174D4FF08047984205D0B84259
:1040900003D0A04201D0A84203D122F070064A68A2
:1040A0003243984205D0B84203D0A04201D0A84282
:1040B00003D122F44074CA6822434C6922F0800282
:1040C000224302608A68C2620A688262984201D111
:1040D0000969016301214161F0BD0000002C01402C
:1040E000000400400008004010B501F01F0301214A
:1040F000046A99408C430462016A9A401143016248
:1041000010BD10B5846842EA032224F47F440A43B8
:104110002243826010BD826822F070020A4342F09E
:10412000070181607047000030B5036A026A22F01F
:10413000010202624268846924F073050C682C4312
:1041400023F002058B682B430A4DA8420BD123F0C4
:104150000805CB6822F440722B434D6923F0040319
:1041600015438A692A434260846149684163036256
:1041700030BD0000002C014030B5026A036A23F014
:1041800010030362436884690D6824F4E64444EA3A
:1041900005248D6822F0200242EA05120B4DA84248
:1041A0000ED1CD6822F0800242EA05124D6923F457
:1041B000406343EA85038D6922F0400243EA8503A8
:1041C0004360846149688163026230BD002C014014
:1041D00030B5036A026A22F4807202624268C469DE
:1041E00023F4007324F073050C682C438D6843EAB4
:1041F00005230C4DA8420ED1CD6823F4006343EA99
:1042000005234D6922F4405242EA05128D6923F4D8
:10421000806342EA05124260C4614968C163036277
:1042200030BD0000002C014030B5046A026A22F45F
:10423000805202624268C3690D6823F4E64343EA90
:1042400005238D6824F4005444EA0534064DA84241
:1042500004D14D6922F4804242EA85124260C36172
:1042600049680164046230BD002C014010B5036A46
:10427000046A24F001040462846924F0F00444EA2E
:10428000021423F00A020A438461026210BD10B5D1
:10429000036A046A24F010040462846923F0A00312
:1042A00024F4704444EA023243EA0111826101625B
:1042B00010BD000070B5044600680169E26821F491
:1042C0004051114301612169A068084361690843B5
:1042D0002168CA6841F20C639A430243CA602068AD
:1042E0004169A26921F44071114341611E4920686E
:1042F000884202D1FDF74AFC01E0FDF737FC00EBF4
:10430000C00101EB0012606864218000B2FBF0F391
:10431000B3FBF1F36FF018067343B2FBF0F5B2FB99
:10432000F0F605EB8305322303EB0515B5FBF1F53C
:10433000B6FBF1F605F0F00505EB0615B2FBF0F65D
:10434000B2FBF0F0B0FBF1F06FF01802504306EB57
:10435000800003EB0010B0FBF1F0216800F00F00CB
:104360002844886070BD000000380140002070477C
:1043700000207047012120F8401F0021018081802A
:1043800001820846704730F8401F21F43F41018008
:104390000020704700207047FEE700000FB4084B74
:1043A00010B504A902AA039800F090F8044602A9E7
:1043B000002000F067F9204610BC5DF814FB0000F7
:1043C000854600080907090E002804DB00F1E020FB
:1043D00080F80014704700F00F0000F1E02080F832
:1043E000141D70472DE9F0414F1E00EBC701044634
:1043F000D1E9000115461E4637F006020DD02A46C7
:104400003346FCF76EF87F1E04EBC703D3E90023A5
:10441000FBF7C0FF37F00602F1D1022F25D0042FA1
:1044200013D0062F18BFBDE8F0812A463346FCF7AB
:1044300058F8D4E90A23FBF7ADFF2A463346FCF7C8
:1044400050F8D4E90823FBF7A5FF2A463346FCF7CA
:1044500048F8D4E90623FBF79DFF2A463346FCF7CC
:1044600040F8D4E90423FBF795FF2A463346FCF7CE
:1044700038F8D4E90223FBF78DFF2A463346FCF7D0
:1044800030F8D4E90023BDE8F041FBF783BF0122F7
:10449000FCF799B80022134610461146FCF7DBB929
:1044A00002E008C8121F08C1002AFAD170477047FD
:1044B000002001E001C1121F002AFBD1704700005B
:1044C0000149086070470000380100202DE9FF4FC6
:1044D0008BB09A460F460546002606E025280BD0ED
:1044E00052460D9990476D1C761C28780028F5D10E
:1044F0000FB03046BDE8F08F0024A046012260498D
:1045000000E0044315F8013F203B02FA03F00842A3
:10451000F7D128782E2817D115F8010F44F004049C
:104520002A280ED06FF02F022878A0F13001092937
:104530000AD808EB880102EB410100EB01086D1C71
:10454000F2E757F8048B6D1C287869283ED006DC0A
:104550000028CDD063280BD0642804D136E073281E
:1045600010D075284BD052460D999047761C85E0A7
:1045700017F8040B8DF8000000208DF80100E946C3
:10458000012003E057F8049B4FF0FF3061074FF024
:10459000000401D40AE0641C44450DDA8442FADBCD
:1045A00019F804100029F6D106E0641C8442FCDBF3
:1045B00019F804100029F8D1264404E019F8010B79
:1045C00052460D999047641EF8D257E001CF4FF044
:1045D0000A0B002802DA40422D2102E0210504D511
:1045E0002B218DF82410012103E0E10705D02021C3
:1045F000F7E70DF1200908910CE00021F9E701CF60
:104600004FF00A0BF9E75946FCF75AF801F130026E
:1046100009F8012D0028F6D1ADEB090000F1200BBF
:10462000600701D44FF00108D84502DDA8EB0B006C
:1046300000E000208046002406E009A85246005D04
:104640000D999047641C761C08988442F5DB04E0C1
:10465000302052460D999047761CB8F10001A8F120
:104660000108F5DC05E019F8010B52460D99904759
:10467000761CBBF10001ABF1010BF4DC6D1C34E7DF
:10468000092801000A68531C0B6010707047000075
:104690002DE9F04D0546DFF8388221F000408D4FBE
:1046A00082B00C46404520DBA0EB080129430BD02B
:1046B0008949884201DC10D17DB102B028462146EB
:1046C000BDE8F04DFFF7E3BE002CC7BF0020014658
:1046D0008248394602B0BDE8F08D0120FFF7F0FEB8
:1046E00002B0BDE8F04DFFF7D5BE7D49884244DAFF
:1046F0007C498142A1BF79487B4902B0BDE8F08D79
:104700002A46234610461946FBF7EBFE834602462F
:1047100076480E460B4606217844FFF763FE5A465C
:104720003346FBF7DEFE074671488A465A46334653
:1047300004217844FFF756FE5A463346FBF7D1FE74
:1047400000224346FBF726FE02460B4638465146FA
:10475000FCF781F82A462346FBF7C3FE654A664B01
:10476000FBF7BCFE2A462346FBF7B8FE02B05B4AC5
:10477000BDE8F04D5C4BFBF7B1BE002C4FF00002E2
:104780004BDA4646434628462146FBF703FE4FF0E8
:10479000FF32FBF718FF0446024658480D460B4609
:1047A00006217844FFF71EFE22462B46FBF799FEB2
:1047B000804653488A4622462B4604217844FFF718
:1047C00011FE22462B46FBF78CFE00223346FBF7F8
:1047D000E1FD06468B462046294601F0E4FA0446F0
:1047E0000D4632465B4640465146FCF734F82246B9
:1047F0002B46FBF776FE3F4A3F4BFBF76CFE22460B
:104800002B46FBF7C7FD0122FBF7DDFE02B03B465E
:10481000BDE8F04D314AFBF761BE2D4B28462146DD
:10482000FBF75CFE4FF0FF32FBF7CDFE05460E4670
:1048300001F0B9FA00270C4680463A460B46FBF7D2
:10484000A9FD82468B463A46234610461946FBF799
:1048500048FE2A463346FBF741FE52465B46FBF7CD
:10486000FAFF824627488B462A463346062178447B
:10487000FFF7B8FD2A463346FBF733FECDE90001CA
:1048800021482A46334604217844FFF7ABFD2A46E7
:104890003346FBF726FE00220D4BFBF77BFD02465D
:1048A0000B46DDE90001FBF7D6FF42462346FBF746
:1048B00018FE52465B46FBF76DFD3A462346FBF772
:1048C00069FD02B00122BDE8F04DFBF77CBE00009F
:1048D0000000F03FFB2109400000F07F182D4454F8
:1048E0000000E03F0000603CFB21F93F143600006F
:1048F0002A360000075C143326A6913C8A35000056
:10490000A0350000BE340000D434000038B50C4699
:104910003221FFF739FA002003460090034822466F
:104920000421006802F090FC38BD0000280100203E
:1049300008B5FFF7F5F90548002300901A46C8218D
:1049400003A002F037FC0549086008BD090B000808
:1049500047616D65536F756E64000000280100208B
:104960002DE9FF4F93B01F4622991498DDF88080FF
:10497000401AC0B20C9008F10700C00809900C98CA
:10498000002600F007000B9014984044C0B2059038
:10499000C4E00C9800EBC60000F0FF0A0AF1080022
:1049A000C0B20A902298A8B114990A98884256D3A6
:1049B0005E498968884252D805998A45FBD8FF200C
:1049C00011901498824508D2A0EB0A01FF2088407C
:1049D000C0B200E0FF20119007E005990A988842D4
:1049E00003D9411AFF20C840F5E750484FEADA02E0
:1049F00041684A430792159A06FB072206920B9AD2
:104A000072BB836881469A452AD24FF0080AB8F1F2
:104A1000080F00D2C24600241BE013982044C5B200
:104A2000D9F80400854212D206982199204401F059
:104A30009DF9119953460140079800220544D9F881
:104A40000000405D01F0A4F9D9F800104855641C3D
:104A5000E4B2BC42E1D3A8EB0A0000F0FF085BE03F
:104A60000A9A4446D2084A430025109251E00B9816
:104A70004446C0F1080081460F90A04200D9C146CB
:104A80001398284400F0FF0B2848406883453ED225
:104A900006982199284401F069F9119908402349A1
:104AA000039089688A4511D2079920485944129188
:104AB00000684B460B9A405C039901F069F91B4A68
:104AC000129912685054A4EB0900C4B2FCB1174803
:104AD0000A99826891421AD2C9F1080101F0FF09CE
:104AE000A14500D9A1460F9A03991048D140109AC8
:104AF000006893444B4610F80B00002201F048F97F
:104B00000A49096801F80B00A4EB0900C4B26D1C46
:104B1000EDB2BD42ABD3A046761CF6B209988642F0
:104B2000FFF437AF17B0BDE8F08F0000E0000020C1
:104B3000FEF77ABA2DE9F0411C4615460E460746A7
:104B4000FBF7E6FF23462A4631463846FEF76EFA63
:104B5000BDE8F041FFF7B2B9044A10B5111F081FB4
:104B6000FEF766FA01490C39086010BDEC00002020
:104B70002DE9FE4F9B4691460F4606460025DFF87D
:104B8000988043E0C5EBC50202EB0901CCB20822D4
:104B900000210092CDE901712038C0B21F4900EB1D
:104BA00080004218052359462046FFF7D9FE082306
:104BB000052259462046FFF7BDFF27B384B1A4F173
:104BC000010A0AF0FF01FF235A46D8F8000001F05D
:104BD000D3F80AF0FF00082301225946FFF7AAFF85
:104BE000D8F80410491F8C420DD2641DE1B2FF2396
:104BF0005A46D8F8000001F0BFF8E0B208230122BD
:104C00005946FFF797FF6D1CEDB2761C30780028EF
:104C1000B8D1BDE8FE8F0000E00000204A7B00080C
:104C20002DE9F0411D46164688460446FBF73EFB3B
:104C3000C0B2401C00F0C4FA07462146FBF73DFB1A
:104C40002B46324641463846FFF792FF3846BDE8CC
:104C5000F04100F001B8000010B5002821D0114B40
:104C60000022001F196803E0814203D80A46496800
:104C70000029F9D152B11368841A9C4204D100680A
:104C800018441060104602E0506000E0186039B12E
:104C900002680B1A934203D10B681A4402604968F8
:104CA000416010BD300100202DE9F04FE2488FB087
:104CB000C188A0292BD28178FF2928D00021DF4C80
:104CC00081468A466068FBF7B4FCC5B22068FBF7F2
:104CD000B0FC4FF0000B0221CDE9001B0B46C0B227
:104CE000D74A2946CDF808B0FFF73AFE6068FBF7CF
:104CF000A0FCC5B22068FBF79CFCC0B208230222CE
:104D00002946FFF717FFBAF1000F02D00BE001218F
:104D1000D5E7A1682068FBF7D9FA2060E1686068F0
:104D2000FBF7D4FA60600020029021680391A0464E
:104D30006068FBF77EFC0027C5B23E465FF00004CA
:104D4000D9F80800C05DE0BBB0000590FBF75BFC44
:104D50000399FBF7A1FC3AD8042000EB8600FBF78F
:104D600052FC0399FBF7A2FC31D2082000EB84002F
:104D70000E90A8422BD80C2000EB8400A84226D924
:104D800064214FF4FA60FFF7C1FDD9F80800012152
:104D90000323C1550821CDE9001B0E98CDF808B0BA
:104DA000C1B20598A64AC0B2FFF7DAFD0E980823F3
:104DB000C1B205980322C0B2FFF7BCFE01200290E9
:104DC00000E004E0B9F80600401CA9F806007F1CCA
:104DD000641CE4B2FFB2052CB2D3761CF6B2202ECE
:104DE000ACD3D9F80C004C46801EFBF70CFC0399A1
:104DF000FBF752FC12D293490398884202DDC8F8AF
:104E000000B005E0E068801EFBF7FDFBC8F800007D
:104E1000D8F8081081F00041C8F80810039810F184
:104E2000FF4F07D3C8F800B0D8F8081081F0004150
:104E3000C8F808100027BAF1000F37D12069801F89
:104E4000854233D3F02D31D226462079FBF7DBFBA8
:104E50000399FBF721FC29D830790C30FBF7D3FB01
:104E60000399FBF723FC21D80127C82141F28830A0
:104E7000FFF74CFD3069801FFBF7C5FBC8F8040045
:104E8000D8F80C004646B0F5000F02DB80F0004079
:104E9000F060FBF7D5F9FBF7ADFB6FF01D01FBF7F9
:104EA0006DFA4FF07E51FBF763FAB0605AEA0700E3
:104EB00026D12069801E854201D8029800B3F02DCA
:104EC00007D9C82140F6C410FFF720FDC8F804B088
:104ED00010E0029870B9C8214FF4FA60FFF716FD90
:104EE00020692646401EFBF78EFBC8F80400B07808
:104EF000401EB070D8F80C1081F00041C8F80C10BA
:104F00004546D8F80400FBF794FBC6B22868FBF7C7
:104F100090FB0221CDE9001B494A0B46C0B2113A71
:104F20003146CDF808B0FFF71BFD6868FBF781FB41
:104F3000C6B22868FBF77DFBC0B2082302223146C7
:104F4000FFF7F8FD207858B3002784F800B03E46FC
:104F50000025A068C05DC8B90821CDE9001B384A0A
:104F600001EB85084FEA860908F0FF0109F0FF0010
:104F700003230F3ACDF808B0FFF7F2FC08F0FF0169
:104F800009F0FF0008230322FFF7D4FD7F1C6D1CEE
:104F9000EDB2FFB2052DDCD3761CF6B2202ED7D3AE
:104FA000E28829A109A8FFF7F9F900231A46194652
:104FB00009A8FFF7DDFDA078FF2827D0002522E013
:104FC000A0784FF00801CDE9001B8542CDF808B06C
:104FD000207B4FF0070300EBC500A0F11800C0B222
:104FE00001D21A4A00E0164A0121FFF7B9FC207BE2
:104FF000082300EBC5001838C0B207220121FFF7D3
:1050000099FD6D1CEDB2E0788542D9D3E088A028E7
:1050100005D32023322200210DA0FFF701FEA07846
:10502000FF2805D12023222200210BA0FFF7F8FD45
:105030000FB0BDE8F08F0000F0000020F439002030
:10504000377B00080000704325750000437B000893
:1050500057494E210000000047414D454F564552EB
:10506000210000001CB5374A111F081FFDF7E0FFA3
:10507000344C143CA061FFF76FFDFFF759FDFFF7BB
:1050800057FC002208210A2001F05AFB20621E2052
:1050900001F052FBE061FBF743FD6062FBF74CFD62
:1050A000A062FBF743FDE062E169606A01F028FB62
:1050B000E169A06A01F024FBE169E06A01F020FBEC
:1050C00000251827CDE900752B4680221EA1214816
:1050D00001F08AFECDE90075002380221EA121483F
:1050E00001F082FE6570E0684008FBF78CFA1E4E06
:1050F000306020690A38FBF786FA70604FF03F4055
:10510000B0601A48F060A02000F0A6FDA021A060C9
:10511000FBF7C1F80320E070A070E580A089FA21B8
:1051200001EB50002071CDE900750023802210A111
:10513000134801F059FE00BFFFF7B6FD322000F022
:10514000D5FFF9E7040100204D5055363035305475
:1051500061736B003D320008496E70757454617361
:105160006B000000B92F0008F43900209A9919BF8C
:10517000706C6174666F726D5F7461736B000000B8
:1051800065530008FCF782FAFEF732FFFEF7C2F91A
:10519000FEF76EFAFEF75AF9FEF78AFAFEF7CAFB37
:1051A000FEF7AAFAFEF710FBFEF76CFBFEF7A6FB74
:1051B00000F04AF8FEF772F900F062F8FEE700002E
:1051C000F0B50B30154D20F007010024144A0FE014
:1051D00003688B420BD38B4205D95E1A431847688C
:1051E000C3E9006700E04368136002C004E0021DE9
:1051F00010680028ECD12046002802D1286808B1A8
:105200000020F0BD064A07481060074A121A22F033
:105210000702C0E9002401202860D7E734010020FC
:10522000300100200C3A0020083C002070B50546F3
:1052300000244FF47A7603E0304600F0FDFD641C54
:10524000AC42F9DB70BD0000EFF3058058B9EFF315
:10525000108040B909490868022801D030B109E03E
:10526000EFF3118030B16FF0050070470120086046
:10527000002070474FF0FF307047000068000020AA
:1052800010B5EFF3058060B9EFF3108048B90B4912
:105290000868022802D0012806D00BE0EFF3118045
:1052A00040B16FF0050010BD0220086001F076F8F3
:1052B000002010BD4FF0FF3010BD0000680000203E
:1052C000F0B585B04FEA01034FF00004EFF305811C
:1052D0000394A1BBEFF3108189BB2149096802291E
:1052E00002D1EFF3118151BB48B3802618218DF80C
:1052F000104004AD42B3176807B13D4697691FB12E
:1053000039467F1E382F02D21779FF0702D00020BE
:1053100005B0F0BD576907B1BE08D2F808C0BCF1AE
:10532000000F0DD0D4685C2C18D312693AB137B194
:105330008DE806103246294601F083FD03900DE00A
:10534000D7685FB912694AB903AACDE90012B2B2AF
:10535000294601F049FD012800D003940398D7E7BE
:10536000680000202E4C86B0002625790827CDE95C
:1053700000760296207C0C230838C1B2294A2846C0
:10538000FFF7EEFA207C08230838C1B20C22284629
:10539000FFF7D0FB4FF0FF38424603A9206A01F027
:1053A00087FB04986070CDE900760296207C1D4A48
:1053B0000838C1B20C230C322846FFF7D1FA207C02
:1053C00008230838C1B20C222846FFF7B3FB6078E7
:1053D000012802D0022802D003E0ED1C00E0ED1EFF
:1053E000EDB26670FA2D01D9002504E0E0680C38B2
:1053F000854200D9C5B2CDE900760296207C0C2307
:105400000838C1B2074A2846FFF7AAFA207C0823C9
:105410000838C1B20C222846FFF78CFB2571BBE788
:10542000F00000202B7B00082DE9F041134C0F46C3
:10543000054666692068001D00F01AFD681C07D14A
:1054400037B12168BDE8F0410D48091D00F06EBD7F
:1054500020683544B5424560216805D2A068BDE8A2
:10546000F041091D00F04ABD6068091D00F046FDCD
:10547000206B854200D22563BDE8F0811800002032
:10548000600B00202DE9F041054600F05BFD2D4C3E
:105490002069401C206120682B4F10B1E06930B3B7
:1054A0002BE025602069012827D1002606EB860025
:1054B00007EB800000F014FD761C382EF6D323484D
:1054C00000F00EFD2148143000F00AFD1F4828307E
:1054D00000F006FD1D483C3000F002FD1B48503036
:1054E00000F0FEFC194860601430A06005E0206800
:1054F000E96AC06A884200D82560E06A401CE06220
:105500006864E86AA169884200D9A06100EB800064
:1055100007EB8000291D00F009FD00F033FDE06974
:1055200000280CD02068E96AC06A884207D208497E
:105530004FF080500860BFF34F8FBFF36F8FBDE80F
:10554000F081000018000020B0060020100B0020A1
:1055500004ED00E038B500F0F5FC104CA068C8B9C7
:105560000F4800F0BDFC0E48143000F0B9FC0C48A8
:105570002060143060600A4B00202833009003F153
:10558000540210210A2001F0FFF8A06010B105A11B
:1055900000F076FDBDE8384000F0F4BC5400002077
:1055A000740B0020546D72510000000030B4026C86
:1055B0000B46002A0BD0C1681144C1604468A14267
:1055C00001D30168C16030BC1846FAF74BBE30BC4D
:1055D00070472DE9F041856B174604460026026CA2
:1055E00082B1C7B1E068FAF73DFEE168206C091AA4
:1055F000E1602268914202D26168081AE060022FDD
:1056000016D017E02068A8B9606801F0BDFC064616
:10561000002060600EE0A068FAF724FE216CA0680C
:105620000844A0606168884204D32068A06001E05B
:1056300005B16D1E6D1CA5633046BDE8F08110B547
:10564000044690F8590058B101280CD002280FD018
:10565000502080F31188BFF34F8FBFF36F8FFEE7A9
:10566000206B00F0A3FC2046BDE8104000F09EBC7B
:1056700010BD000010484FF4FA51420706D0C01D7B
:105680000D4920F00700411AC1F5FA510B4A0023D9
:105690000144C2E900030839103A21F00701116002
:1056A0004B600B600B1AC0E9001393604FF0004091
:1056B0005360D06070470000481300207C00002039
:1056C000144E154CA6F29C474FF08058DFF84C90D2
:1056D00012E000BF00F036FCF068C568281D00F03D
:1056E000C7FB2069401E2061E068401EE06000F0BA
:1056F00049FC2846FFF7A3FFE0680028EAD1386894
:105700000128F9D9C9F80080BFF34F8FBFF36F8F1D
:10571000F2E700004C0B00201800002004ED00E030
:10572000002807D00021416001600B460A46C16095
:1057300001F0A2B87047000070B51D46049C61B12D
:10574000C4F80020C4E90F010121204601F050F8FF
:1057500084F850500020A06470BD2460F2E72DE969
:10576000F0470E46DDE909841746824691009946C6
:10577000089DA522206BFAF787FD6FF00301206BCF
:1057800001EB8701084420F00707780707D0502075
:1057900080F31188BFF34F8FBFF36F8FFEE722189E
:1057A000315C82F83410315C11B1401C1028F6D302
:1057B000002684F84360382D00D33725E562C4E91C
:1057C0001356201D00F097FB04F1180000F093FB26
:1057D0002461C5F138006462A061666584F8586090
:1057E0004A465146384600F0AFFA2060B8F1000F43
:1057F00001D0C8F80040BDE8F0872DE9F0471E460B
:10580000DDE9089417460D0080460ED0002C14D018
:10581000FFF7A0FEC4F80080C4E90657C4E9086990
:10582000201DBDE8F04700F066BB502080F31188D2
:10583000BFF34F8FBFF36F8FFEE7BDE8F087000027
:1058400030B5114900E011460A688242FBD34B682B
:105850005C18844203D14068184448600846436895
:105860001C18944209D1084C103C2468A24209D06B
:1058700052681A4442600A6812680260814200D08D
:10588000086030BD0460F9E77C00002070B500249A
:1058900041600B4D0061914206D8D11A8269914254
:1058A00006D2011D686807E09A4203D2994201D3EB
:1058B000012403E0011D286800F020FB204670BD94
:1058C0005400002010B5044600F03CFBA06B28B14A
:1058D0005FF0000400F056FB204610BD0124F9E7FC
:1058E00073B500260098846C5CB1A26BE06B8242B9
:1058F0000FD3502080F31188BFF34F8FBFF36F8F0A
:10590000FEE7502080F31188BFF34F8FBFF36F8FF6
:10591000FEE7A26B82420CD294F945500A466946D2
:105920002046FFF756FE0646681C04D06D1C84F81E
:10593000455030467CBD606A0028FAD004F124004E
:1059400001F09EFB0028F4D00126F2E730B589B0C3
:10595000304D55E00498002806DADDE90601059A85
:105960009047049800284BDB069C606910B1201D0D
:1059700000F07EFA02A800F0B9F8024604980A285E
:105980003ED2DFE800F00505053D263705053D263A
:105990000598A169034601442046FFF777FF00B34D
:1059A000616A20468847E069012829D100200090DB
:1059B0000598A169002342181946204601F044FCCD
:1059C00078B9502080F31188BFF34F8FBFF36F8FEA
:1059D000FEE70598A06128B1811813462046FFF71D
:1059E00055FF0DE0502080F31188BFF34F8FBFF3B8
:1059F0006F8FFEE794F82C0010B9204600F0D6FA1D
:105A0000002204A9A86801F053F80028A2D109B027
:105A100030BD0000540000202DE9FC410F46054632
:105A200000F000FD01A800F061F80446019818B1EB
:105A300001F05EFBBDE8FC81224EAFB170680068EA
:105A4000A8B30027291B3A46B06800F02DFB01F0EF
:105A50004FFB0028EED11C494FF080500860BFF387
:105A60004F8FBFF36F8FE5E7A542EBD801F040FB06
:105A700030682746C068C468201D00F0F9F9E06965
:105A8000012810D1A0692B4641193A462046FFF75C
:105A9000FDFE40B100200346014600902A46204604
:105AA00001F0D2FB20B1616A20468847C2E707E0D7
:105AB000502080F31188BFF34F8FBFF36F8FFEE745
:105AC0000127BFE75400002004ED00E006484168CC
:105AD000096829B14168C968C968496801637047A4
