:020000040800F2
:10000000A83D0020990100082B390008332800087A
:10001000293900086B080008D941000800000000D9
:1000200000000000000000000000000001010008C6
:10003000510900080000000045010008293D0008A2
:10004000B3010008B3010008B3010008B3010008C0
:10005000B3010008B3010008B3010008B3010008B0
:10006000B3010008B3010008B3010008B3010008A0
:10007000B3010008B3010008B3010008B301000890
:10008000B3010008B3010008B3010008B301000880
:10009000B3010008B3010008B3010008BF0900085C
:1000A000B3010008B3010008B3010008B301000860
:1000B000B3010008B3010008D53D0008B3010008F2
:1000C000B3010008B3010008B3010008B301000840
:1000D000B3010008B3010008B3010008B301000830
:1000E000A1090008B3010008B3010008DFF80CD033
:1000F00000F02CFB004800478D470008A83D002079
:10010000224B19680868B0E8F00F80F30988BFF344
:100110006F8F4FF0000080F311884EF00D0E704786
:100120000000000006480068006880F3088862B696
:1001300061B6BFF34F8FBFF36F8F00DF00BF00BF0B
:1001400008ED00E0EFF30980BFF36F8F0F4B1A68E3
:1001500020E9F00F106008B54FF0500080F31188CF
:10016000BFF34F8FBFF36F8F05F01EFB4FF0000002
:1001700080F31188BDE8084019680868B0E8F00FFE
:1001800080F30988BFF36F8F704700BF2000002005
:10019000EFF3058070470000064880470648004797
:1001A000FEE7FEE7FEE7FEE7FEE7FEE7FEE7FEE727
:1001B000FEE7FEE7D13D0008ED0000082DE9F05F05
:1001C0000546002092469B468846064681464024C6
:1001D0001BE0284641464746224600F020F8534699
:1001E0005A46C01A914110D311461846224600F0D3
:1001F000C0F92D1A67EB01084F4622460120002165
:1002000000F0B7F917EB00094E41201EA4F10104DC
:10021000DFDC484631462A464346BDE8F09F202AA7
:1002200004DB203A21FA02F00021704721FA02F3A0
:10023000D040C2F12002914008431946704740EA7D
:1002400001039B0703D009E008C9121F08C0042A54
:10025000FAD203E011F8013B00F8013B521EF9D23B
:100260007047D2B201E000F8012B491EFBD2704763
:100270000022F6E710B513460A4604461946FFF772
:10028000F0FF204610BD2DE9FE4F804681EA0300B5
:10029000C00F0C46009021F0004123F00045B8EB60
:1002A0000200A94105D24046214690461C460B4615
:1002B000024623F00040104347D0270DC7F30A0041
:1002C000C3F30A510290401A019040286BDAC3F33D
:1002D000130040F4801B0098924620B10023D2EB1B
:1002E000030A63EB0B0B01985946C0F140025046DC
:1002F00000F03FF906460D4650465946019A00F077
:1003000047F910EB08006141002487EA115284EAA2
:10031000E7731A4340D0009A62B3019A012A4FEA68
:10032000075215DC001B61EB02014FF0004202EAAC
:100330000752CDE90042001C41F5801132462B46A0
:1003400000F047F903B0BDE8F08F40462146F9E7D9
:10035000001B61EB0201001C41F5801300185B419A
:100360002018A2F5001747EB030140EAD570B61933
:100370006D4111E06D084FEA360645EAC0754FEA57
:100380000752001B61EB0201001C41F58011490876
:100390004FEA30000019514132462B4603B0BDE808
:1003A000F04F00F007B90098012240000023D0EB85
:1003B000020263EBE073009821464FEAE074B8EB69
:1003C000000061EB0401E9E783F000435BE781F0A3
:1003D000004158E72DE9FE4F81EA030404F0004490
:1003E00021F0004100944FF0000B23F0004350EA4D
:1003F00001045ED052EA03045BD0C3F30A54C1F394
:100400000A552C44A4F2F3340194A0FB0254C1F326
:10041000130141F48011C3F3130343F4801301FB70
:10042000024400FB034E840A970A44EA815447EAD7
:100430008357A4FB076802958D0A05FB07854FEAE1
:10044000932C04FB0C542705029D4FEA065847EAFB
:100450001637B5EB08056EEB070C870E920E47EAD0
:10046000811742EA8312A7FB0201B6EB0B0164EB92
:1004700000042B0D43EA0C335E1844EB1C50DA46A3
:100480005146E7FB0201C5F313044FEA0B3343EA7D
:1004900014534FEA0432019C43EA0603A4F10C040E
:1004A0000294009CCDE900B400F093F803B0BDE8DD
:1004B000F08F00200146F9E770B521F000430343B7
:1004C0000CD0C1F30A550024D5EB040564EB0403FA
:1004D000D617AD1AB34102DB0020014670BD2018CB
:1004E00041EB025170BD0EB5C10F80EAE0700844C7
:1004F000CA07002140F233438DE80E000A460B463E
:1005000000F067F803B000BD70B5C1F30A5201F006
:1005100000450024C1F3130140F2FF3341F4801180
:100520009A4201DA002070BD40F233439A42A2F2AF
:10053000334203DC5242FFF772FE00E090402C434E
:10054000F1D0404270BD30B50B460146002020225C
:10055000012409E021FA02F59D4205D303FA02F5D0
:10056000491B04FA02F52844151EA2F10102F1DC30
:1005700030BD202A04DB203A00FA02F10020704747
:100580009140C2F1200320FA03F3194390407047D1
:10059000202A06DBCB17203A41FA02F043EAE07347
:1005A00006E041FA02F3D040C2F120029140084334
:1005B0001946704710B5141E73F1000408DA401C88
:1005C00041F1000192185B411A4301D120F0010072
:1005D00010BD2DE9F04D92469B4611B1B1FA81F262
:1005E00002E0B0FA80F220329046FFF7C2FF0446E4
:1005F0000F4640EA0A0041EA0B0153465A460843B7
:1006000013D0114653EA010019D0C8F140025046F8
:10061000FFF705FE05460E46504659464246FFF78F
:10062000A8FF084305D0012004E020463946BDE874
:10063000F08D0020054346EAE0762C4337430A98C4
:100640006305E40AA0EB08000022FD0A44EA4754CF
:100650000A3002D500200146E9E701051019694179
:10066000DDE9084500196941BDE8F04DA2E72DE933
:10067000F04D81EA030404F0004B21F000451446DC
:100680004FF0000A23F0004150EA050220D054EA5E
:1006900001021DD0C5F30A570246C5F31303C1F387
:1006A0001300C1F30A5640F4801543F48013A7EBFE
:1006B0000608101BD64608F2FD3873EB050002D37E
:1006C00008F1010801E092185B41B8F1000F03DA6C
:1006D00000200146BDE8F08D00204FF48011064651
:1006E00084460EE0171B73EB050705D3121B63EB63
:1006F000050306434CEA010C49084FEA3000921802
:100700005B4150EA0107EDD152EA030012D082EAC0
:10071000040083EA0501084305D0101BAB4106D253
:100720000122002306E000224FF0004302E06FF0B8
:10073000010253101AEB06004CEB085110EB0A00B3
:1007400041EB0B01BDE8F04DFFF734BF064C074D00
:1007500006E0E06840F0010394E807009847103491
:10076000AC42F6D3FFF7C6FC9C6B0008BC6B0008DC
:100770002DE9F04D00231A461B1A8A4103DB0020A5
:100780000146BDE8F08DC1F30A52C1F3130141F4F3
:1007900080154FF0000BD10702D100186D41521E99
:1007A0000027044640F2FF11384601EB620A3E463C
:1007B0008046024600204FF48011FFF730FDC21939
:1007C0007141BB1846EB0100B4EB030C75EB000C58
:1007D00004D3E41A65EB000517460E46241908F108
:1007E00001006D4180463428E3DDF91946EB06002F
:1007F000091BA84103D24FF0FF32134601E000224B
:1008000013461BEB070046EB0A51BDE8F04DFFF71E
:10081000D1BE000070B5044600688168C943C907AD
:1008200017D1816821F00101816000F01BFB0546B2
:100830000AE000BF00F016FB401B022804D9206824
:100840008068C043C00706D020688068C043C007E6
:10085000F0D0002070BDA06A40F01000A062E06AF5
:1008600040F00100E062012070BDFEE770B598B075
:1008700004461C216846FFF7FBFC1C2107A8FFF774
:10088000F7FC1C210EA8FFF7F3FCC4F307404FF45C
:10089000FA656843FF2590FBF5F06023CDE9003051
:1008A000C4F307224FF4FA60424392FBF5F0E6B23C
:1008B0000224002102940491CDE907304FF4FA603C
:1008C000464396FBF5F009940B91CDE90F04164CC5
:1008D00012910E930821206801F05AFE0021206831
:1008E00001F056FE0421206801F052FE08226946FC
:1008F000206801F056FD002207A9206801F051FD93
:1009000004220EA9206801F04CFD0821206801F0A6
:10091000F1FD0021206801F0EDFD0421206801F0C7
:10092000E9FD18B070BD0000AC000020002402F00A
:100930002BFF064D4FF47A762046FFF797FF60199C
:1009400020F07F44304604F0FBFDF5E7400D030046
:1009500070470000F8B50746002004460D4E0E4DC6
:10096000009007E056F8240000236A46394605F057
:1009700059F9641C68688442F4DB0098002807D0A9
:1009800006494FF080500860BFF34F8FBFF36F8F61
:10099000F8BD0000D8380020B000002004ED00E0D1
:1009A00010B54FF4806000F057F94FF4006000F08C
:1009B00053F9BDE810404FF4805000F04DB92020AD
:1009C00000F04AB972B6FEE7F8B50024009490F83A
:1009D00024202546012A12D0012280F824204A68CA
:1009E0001F23072A0DD20668776B521E02EB820284
:1009F00093409F430B6893401F43776319E00220A5
:100A0000F8BD06680D2A0AD2376BD21F02EB8202AC
:100A100093409F430B6893401F43376309E0F76A95
:100A20000D3A02EB820293409F430B6893401F43B1
:100A3000F7620A68072306680A2A0AD3F7680A3A9F
:100A400002EB420293409F438B6893401F43F76041
:100A500008E0376902EB420293409F438B68934062
:100A60001F4337610A68102A01D0112A20D1124B86
:100A700002689A4217D193681B0219D4936843F411
:100A8000000393600968102912D10C490C4A0968C7
:100A9000B1FBF2F101EB8101490000E0491E009138
:100AA0000029FBD104E0816A41F020018162012428
:100AB00080F824502046F8BD002401401C0000208E
:100AC00040420F002DE9F0414FF0000704003D4681
:100AD0007ED0A06A002628B9E66284F82460204609
:100AE00000F07EF82046FFF795FEA16AC90600D403
:100AF00020B1A06A40F01000A06269E0A16A21F470
:100B0000885141F00201A1626268E169237B0A43D6
:100B100047EA43010A43A1684FF48077B94209D0FC
:100B2000012907D05FF0000194F814C0BCF1010F57
:100B300002D00AE03946F7E7F3B1A36A43F0200395
:100B4000A362E36A43F00103E3622368D3F804C0BD
:100B50002CF4694C4CEA010CC3F804C021688B6882
:100B6000DFF870C003EA0C0313438B60A168B9423D
:100B70000BD0012909D00CE0DFF85CC0A3690CEBB5
:100B800043330B4343F40061DFE7218A0D05A5F5EC
:100B900080152168CB6A23F470032B43CB62216854
:100BA00089680E4B1940914208D1E662A16A21F092
:100BB000020141F00101A162BDE8F081A06A20F0CC
:100BC000020040F01000A062E06A40F00100E06224
:100BD0000120F1E7FDF7E1FF00E0FFFFFE0E1FFF40
:100BE00000B585B000210091019102910391006848
:100BF0000E49884218D10E48816941F40071816123
:100C0000816901F400710491816941F004018161FD
:100C10008069694600F004000490082000900320D9
:100C20000190044800F024F805B000BD0024014004
:100C30000010024000080140202807D0B0F5806F66
:100C400006D0B0F5805F05D102F0F6BF02F0CAB958
:100C500002F0ECB870470000044910B50A6802427F
:100C600002D00860FFF7E8FF10BD00001404014047
:100C70002DE9F84FDFF8B8910024A9F1040B2346C1
:100C80000F2709F1040AABF1040EC9E00125A540C4
:100C90002A40AA427DD1674ED1F804C0ACEB0608C9
:100CA000B44532D014DCBCF1030F3AD009DCBCF1FE
:100CB000000F2AD0BCF1010F1CD0BCF1020F31D1C2
:100CC0001DE0BCF1110F17D0BCF1120F2AD119E0B1
:100CD000B8F5881F19D006DCB8F5803F15D0B8F5F7
:100CE000801F1FD111E0B8F5001F0ED0B8F5041F0A
:100CF00018D10AE0CB6815E0CB681B1D12E0CB6869
:100D000008330FE0CB680C330CE08B682BB1012B60
:100D10004FF0080303D0456104E0042302E00561BD
:100D200000E00023FF2A01D8064601E000F1040696
:100D30004FEA840501D9A5F12005D6F8008007FA0D
:100D400005FC28EA0C0803FA05F548EA0508C6F888
:100D500000804D68ED0062D5374DAE6946F0010662
:100D6000AE61AD6924F0030605F001050095334D31
:100D700006EB050CDCF80850A607360F07FA06F854
:100D800025EA0805DFF8B880404503D14FF0000898
:100D900017E044E0DFF8AC80404502D14FF0010895
:100DA0000FE0DFF8A480404502D14FF0020808E0D0
:100DB000DFF89880404502D14FF0030801E04FF082
:100DC000040808FA06F848EA0508CCF808804D68D7
:100DD000D9F80060ED024D4601D5164300E0964378
:100DE0002E604D68DAF80060AD02554601D5164315
:100DF00000E096432E604D68DBF80060AD035D4671
:100E000001D5164300E096432E604D68DEF8006081
:100E1000ED03754601D5164300E096432E60641C31
:100E20000D682A46E5407FF431AFBDE8F88F000039
:100E300008040140000011100010024000000140B1
:100E400000080140000C0140001001400014014066
:100E50008068084000D0012070470AB101617047E6
:100E60000904FBE70148806870470000100000207B
:100E700070B5040025D094F83D00002520B984F811
:100E80003C50204600F00EFB242084F83D002068F2
:100E9000016821F0010101602068016841F400410E
:100EA00001602068016821F40041016000F0A0FDAC
:100EB0004D4A6168914201D84C4900E04C49884252
:100EC00001D2012070BD4B492368B0FBF1F15E688F
:100ED00026F03F060E435E606368934206D94FF4E6
:100EE000967359434FF47A73B1FBF3F12368491CAD
:100EF0001E6A26F03F06314319626168914210D89C
:100F00004900401EB0FBF1F2521CC2F30B02042A4E
:100F100001D2042022E0B0FBF1F0401CC0F30B0032
:100F20001CE0A268F2B301EBC10303EB0116431E00
:100F3000B3FBF6F35B1C43F480431B0549D092B32B
:100F400001EBC10202EB0111401EB0FBF1F0401CAD
:100F5000C0F30B0040F4804040F400402168CA69AF
:100F60004CF6FF739A431043C861D4E9071001435C
:100F70002068026822F0C00211430160D4E9030135
:100F800001432068826848F2FF339A43114381602D
:100F9000D4E9050108432168CA6822F0FF02104322
:100FA000C86001E00EE016E02068016841F0010130
:100FB00001602564202084F83D00256384F83E50BC
:100FC000002070BD01EB4106431EB3FBF6F35B1C32
:100FD000B3E70120C2E701EB4101401EB0FBF1F095
:100FE000401CC0F30B00B7E7A086010080841E0000
:100FF00000093D0040420F002DE9F84F1F46904682
:101000008A460446DDF82890FFF72CFF054694F841
:101010003D0020287FD11923012240492046009518
:1010200001F06CFD002876D194F83C00012872D0C4
:10103000012084F83C0020680168C90703D10168D9
:1010400041F0010101602068016821F40061016044
:10105000212084F83D00102084F83E0000262664FC
:10106000C4F824806785608D20852D48E0622B467A
:101070004A465146204601F0F5FB90B92068416987
:101080008069009036E02A464946204601F014FE69
:1010900050B1206C042804D12068016841F400712B
:1010A00001600120BDE8F88F606A2168007808615E
:1010B000606A401C6062618D491E6185218D491EF8
:1010C00089B2218522685369DB435B070BD451B198
:1010D00000781061606A401C6062608D401E60850F
:1010E000208D401E20852A464946204601F0DAFC24
:1010F0000028CED1208D0028C5D154F83D0B0168C1
:1011000041F400710160202004F81E09E67766773B
:101110000020C7E7FFE70220C4E70000020010003C
:101120000000FFFF2DE9FF4F83B00025DDE91079B6
:101130009A4693460446DDF848800095FFF792FEF4
:10114000064694F83D0020287CD1192301228549C8
:101150002046009601F0D2FC0028F5D194F83C001E
:1011600001286FD0012084F83C0020680168C9077D
:1011700003D1016841F0010101602068016821F498
:1011800000610160222084F83D00402084F83E0088
:1011900025646762A4F82A90608D20857248E06219
:1011A000CDE9008653465A462046049901F0A8FB33
:1011B00000287DD1208DDFF8B491202768B1012867
:1011C00014D00228206801681ED041F480610160BB
:1011D0002068416980690090B6E0206841698169B2
:1011E0000091016841F400710160ADE02068016880
:1011F00021F48061016072B62068416981690091C3
:10120000016841F400710AE041F40061016072B6C6
:101210002068416981690091016821F48061016061
:1012200062B691E0032868D801280CD00228434612
:101230004FF000024946204600960FD001F05EFCB8
:10124000B0BB10E08BE032464146204601F0FCFC8A
:1012500070BB20680069616A08706CE001F04EFCA8
:1012600030BB72B634E02068016821F4806101600F
:1012700072B620680069616A0870606A401C60622A
:10128000208D401E2085608D401E6085384846F2C6
:10129000A8110068B0FBF1F0C0EBC00000EB8000CB
:1012A0000090401E009008D020684069C04300E0D4
:1012B00029E040070CD50098F3E744F8305F6773E6
:1012C000A573206940F02000206162B625731AE002
:1012D0002068016841F40071016020680069616A5A
:1012E0000870606A401C6062218D491E2185618DF5
:1012F000491E618562B621681BE0324641462046A0
:1013000001F0A2FC18B1012007B0BDE8F08F206801
:101310000069616A0870606A401C6062218D491E24
:101320002185618D491E618521684A69D243520732
:101330000AD409690170606A401C6062208D401EF9
:101340002085608D401E6085208D00287FF46AAF67
:1013500084F83D7084F83E5084F83C50D4E7022075
:10136000D2E70000020010000000FFFF04000100AF
:101370001C0000202DE9FF4F83B09A46DDE911974C
:1013800093460446DDF84080FFF76CFD054694F86F
:101390003D0020287FD11923012240492046009595
:1013A00001F0ACFB002876D194F83C00012872D003
:1013B000012084F83C0020680168C90703D1016856
:1013C00041F0010101602068016821F400610160C1
:1013D000212084F83D00402084F83E000026266449
:1013E000C4F82480A4F82A90608D20852C48E062FF
:1013F000CDE9007553465A462046049901F0FEFA9D
:1014000070B930E02A463946204601F055FC58B103
:10141000206C042804D12068016841F40071016047
:10142000012007B0BDE8F08F606A2168007808618C
:10143000606A401C6062218D491E89B22185628DDF
:10144000521E628522685369DB435B070BD469B186
:1014500000781061606A401C6062208D401E20850B
:10146000608D401E6085208D0028CBD12A463946EC
:10147000204601F017FB0028CAD154F83D0B016843
:1014800041F400710160202004F81E09E6776677B8
:101490000020C6E7FFE70220C3E7000002001000BB
:1014A0000000FFFF10B586B000210091019102916C
:1014B000039100680F4988421AD10F4CA06940F08F
:1014C0000800A061A069694600F008000490C020EF
:1014D000009012200190032003900848FFF7C8FBFA
:1014E000E06940F40010E061E06900F4001004904D
:1014F00006B010BD0054004000100240000C014036
:101500000248816802781144816070471000002011
:10151000074810B5016841F010010160032000F098
:10152000A7F80F2000F006F800F050F8002010BDDA
:101530000020024030B505461F4887B0C16941F020
:101540000401C161C06906A900F00400009001A86F
:1015500000F02EFA0498B0B100F04AFA40001749A2
:10156000174AB0FBF1F11748491E0260416040F292
:10157000E7320021C0E903218160816100F000FDB4
:10158000040003D015E000F033FAE8E70D4800F05E
:1015900043FD04000DD11E2000F03CF8102D07D2B1
:1015A000002229461E2000F043F80748056000E0AD
:1015B000012407B0204630BD0010024040420F0019
:1015C00000080040D8090020140000200F4808B58A
:1015D000816941F001018161816901F0010100919E
:1015E000C16941F08051C161C069002200F08050A2
:1015F00000900F21901E00F01BF80548416821F073
:10160000E06141F00071416008BD0000001002403F
:1016100000000140002809DB00F01F020121914079
:101620004009800000F1E020C0F800117047000080
:10163000F0B40E4B1B680C46C3F30223C3F107053D
:10164000042D00D90425191D072901D2002300E02B
:10165000DB1E012606FA05F1491E214099409E40F5
:10166000761E16403143F0BC02F0C8BD0CED00E020
:10167000064900F0070208684FF6FF03184040EAE9
:101680000220034A10430860704700000CED00E0A0
:101690000000FA052DE9F04186B0040004D094F86A
:1016A000A902002520B108E0012006B0BDE8F081C4
:1016B00084F8A852204600F05BF8032084F8A902C1
:1016C000206802F080FD04F110011422884668466B
:1016D000FEF7B5FD94E80F0002F068FD0227D0BBCD
:1016E0000021206802F076FD002001260EE000BFF8
:1016F00000EB800104EBC10181F8296001F8280F9B
:10170000401CCD700D614D61C0B28D616168814238
:10171000EED8002012E000BF00EB800104EBC10115
:1017200081F8695181F8680181F86B51C1F87851ED
:10173000C1F87C51401CC0B2C1F88051616881423F
:10174000EAD8142241466846FEF779FD94E80F0076
:1017500002F030FD10B184F8A972A5E784F8245096
:1017600084F8A962206802F023FD00209DE70000B4
:1017700008B500680649884208D10648C16941F4A5
:101780000001C161C06900F40000009008BD0000C4
:10179000005C0040001002402DE9F8430546007847
:1017A000354CC00754D0E0690026C00008D4E06979
:1017B00040F08050E061E069012600F08050009028
:1017C0002E480168C90512D40168804641F4807131
:1017D0000160FFF747FB074605E000BFFFF742FB4C
:1017E000C01B642823D8D8F80000C005F6D5206AAD
:1017F00010F4407021D0A98801F4407181421CD0BE
:10180000206A1F49012220F440700A6000220A6009
:101810002062C00711D0FFF725FB074641F2883848
:1018200008E000BFFFF71EFBC11B414502D90320A2
:10183000BDE8F883206A8007F4D5206A696820F43F
:101840004070084320621EB1E06920F08050E061E2
:101850002878800705D56068A96820F440400843CF
:1018600060602878C00605D56068E96820F48000CB
:10187000084360600020DBE7001002400070004079
:10188000400442422DE9F0470F46050061D0434E27
:10189000306800F00700B84209D2306820F0070035
:1018A00038433060306800F00700B84251D12868F2
:1018B0003B4C810712D5400703D5606840F4E060D7
:1018C00060602878000703D5606840F4605060606D
:1018D0006068A96820F0F000084360602878C007BD
:1018E00028D06868012810D02168022810D0890704
:1018F00000292EDA616821F0030101436160FFF7DE
:10190000B1FA804641F288390DE021688903EFE79A
:101910008901EDE7FFF7A6FAA0EB0801494502D9D6
:101920000320BDE8F0876068696800F00C00B0EB48
:10193000810FEFD1306800F00700B8420BD9306852
:1019400020F0070038433060306800F00700B842EC
:1019500001D00120E5E72878400705D56068E968EF
:1019600020F4E060084360602878000706D56068CE
:10197000296920F4605040EAC100606000F058F826
:101980006168084AC1F30311515CC8400649086008
:1019900006480068FFF7CEFD0020C2E700200240A5
:1019A00000100240226300081C00002014000020E8
:1019B0000F2202600C4A536803F00303436053682C
:1019C00003F0F0038360536803F4E063C36052687C
:1019D0004FF4E06303EAD20202610448006800F0B9
:1019E000070008607047000000100240002002401D
:1019F0000448054900684968044AC1F30221515C62
:101A0000C84070471C0000200010024032630008EC
:101A10000448054900684968044AC1F3C221515C81
:101A2000C84070471C0000200010024032630008CC
:101A30000E4A51680E4801F00C03042B11D0082BFC
:101A40000FD10C48C1F38343C903C05C0AD5516868
:101A5000084AC1F34041921E515C054A5043B0FB15
:101A6000F1F07047044948437047000000100240FD
:101A700000127A001263000800093D002DE9F84FBA
:101A8000040070D02078C04DC00749D06868C0F30A
:101A90008100012807D06868C0F38100022809D1BD
:101AA0006868C00306D52868800339D560680028B7
:101AB000E7D035E06068B0F5803F0BD010B1B0F5ED
:101AC000A02F11D0286820F480302860286820F4E6
:101AD000802002E0286840F480302860606890B17F
:101AE000FFF7C0F906460AE0286840F48020286025
:101AF000F0E700BFFFF7B6F9801B642873D82868A9
:101B00008003F7D50CE0FFF7ADF9064605E000BF0E
:101B1000FFF7A8F9801B6428F0D828688003F7D461
:101B200020789A4E80074FF001094FF0000839D510
:101B3000686810F00C0F07D06868C0F381000228B5
:101B400009D16868C00306D42868800714D52069C5
:101B5000012808D110E02069B0B1C6F80090FFF765
:101B600081F9074605E00AE1FFF77CF9C01B02286E
:101B7000C4D828688007F7D52868616920F0F80084
:101B800040EAC10028600DE0C6F80080FFF76AF95E
:101B9000074604E0FFF766F9C01B022823D828682F
:101BA0008007F7D4207800072CD57948A169D9B1EE
:101BB000C0F80090FFF756F9074604E0FFF752F926
:101BC000C01B02280FD8686A8007F7D571484FF408
:101BD000FA510068B0FBF1F0009000BF0098411E80
:101BE0000091FAD20EE080E0C0F80080FFF73AF9E9
:101BF000074604E0FFF736F9C01B022875D8686A6B
:101C00008007F7D42078400760D5E8690027C00036
:101C100008D4E86940F08050E861E869012700F0E5
:101C2000805000905C480168C90513D40168834660
:101C300041F480710160FFF715F9824606E000BFAC
:101C4000FFF710F9A0EB0A0064284ED8DBF800007B
:101C5000C005F5D5E06801280AD008B1052813D0E1
:101C6000286A20F001002862286A20F0040002E0BF
:101C7000286A40F001002862E06841F2883B98B190
:101C8000FFF7F0F882460BE0286A40F00400286273
:101C9000EEE700BFFFF7E6F8A0EB0A0159455AD876
:101CA000286A8007F6D50CE0FFF7DCF8824605E0ED
:101CB000FFF7D8F8A0EB0A0159454CD8286A8007ED
:101CC000F6D41FB1E86920F08050E861E06988B37C
:101CD0006968C1F38101022944D00228C6F86080F6
:101CE00004D0FFF7BFF8044638E034E0FFF7BAF855
:101CF000074604E0FFF7B6F8C01B02282BD8286877
:101D00008001F7D4206AB0F5803F05D16868A168EA
:101D100020F4003008436860D4E90801084369688A
:101D200021F4741108436860C6F86090FFF79AF8D0
:101D3000044606E025E000BFFFF794F8001B0228E8
:101D400009D828688001F7D51BE000BFFFF78AF8A3
:101D5000001B022802D90320BDE8F88F2868800103
:101D6000F4D40EE00128F7D06868226A00F48031CC
:101D7000914204D1616A00F47010884201D00120C0
:101D8000EAE70020E8E700000010024000004242BD
:101D9000800442421C0000200070004070B5040026
:101DA00009D0606A002540B125616561A56294F89B
:101DB000510040B10CE0012070BD6068B0F5827F39
:101DC000F4D0E561F2E784F85050204600F040F886
:101DD000022084F851002068016821F04001016070
:101DE000A088218900F4827001F404410843A1898C
:101DF00001F400610843217C01F002010843217DC8
:101E000001F001010843218B01F400710843217F97
:101E100001F03801084394F8201001F080010843D4
:101E2000218D01F40051084321680860A069042154
:101E300001EA1040216848602068C16921F400610E
:101E4000C1616565012084F85100002070BD00006B
:101E500030B585B000240094019402940394006886
:101E60001449884223D11448816941F48051816129
:101E7000816901F480510491816941F0040181611B
:101E800080690E4D00F004000490A0200090022014
:101E900001900320039069462846FEF7E9FE4020A2
:101EA000CDE90004694628460294FEF7E1FE05B03C
:101EB00030BD000000300140001002400008014029
:101EC0007047704710B590F83C20012A22D00122BB
:101ED00080F83C20CA688C6822F4407222434C6827
:101EE00022F4806222430C6822F4006222430C69CF
:101EF00022F4805222434C6922F400522243C969E1
:101F0000002322F480420A4301684A6480F83C308E
:101F1000002010BD022010BD70B590F83C20012AB1
:101F200026D0012480F83C40022280F83D2003683E
:101F30005A689D6822F070060A6832435A600D4B59
:101F400002689A4208D0B2F1804F05D00A4B9A42FB
:101F500002D00A4B9A4204D1496825F08003194304
:101F6000916080F83D40002180F83C10084670BD2B
:101F7000022070BD002C0140000400400008004019
:101F800010B5040003D094F83D0010B107E0012023
:101F900010BD002084F83C00204600F01FF802200D
:101FA00084F83D00211D206801F01AFF012084F80B
:101FB000460084F83E0084F83F0084F8400084F82E
:101FC000410084F8420084F8430084F8440084F817
:101FD000450084F83D00002010BD000008B50C4A03
:101FE00001680C48914207D1816941F40061816127
:101FF000806900F4006009E0B1F1804F07D1C16948
:1020000041F00101C161C06900F00100009008BD0C
:10201000002C01400010024090F83D10012901D031
:1020200001207047022180F83D100168CA6842F023
:102030000102CA6000680B49884208D0B0F1804FA5
:1020400005D00949884202D00849884204D18168F4
:1020500001F00701062903D0016841F00101016088
:1020600000207047002C01400004004000080040A0
:1020700070B5044690F83C000025012817D00126D1
:1020800084F83C60022084F83D002068826822F0D9
:10209000770222F47F4282600868502838D00DDC35
:1020A00020284FD005DC90B3102811D14AE002203F
:1020B00070BD302846D040280AD13BE060282FD0A0
:1020C00070280DD0B0F5805F03D0B0F5005F12D05E
:1020D000012584F83D60002084F83C00284670BD4E
:1020E000CB68D1E90121206801F0BDFE206881683C
:1020F00041F0770109E0CB68D1E90121206801F0C6
:10210000B2FE2068816841F480418160E1E719E016
:10211000CA684968206801F05BFF5021206806E02A
:10212000CA684968206801F064FF6021206801F0F6
:10213000A4FECEE7CA684968206801F049FF402143
:102140002068F4E7226801461046F0E7704770B552
:102150000446006801694FF00005C943890715D49A
:10216000C168C943890711D4E91E016101202077A4
:10217000206880698007204602D0FFF7E7FF04E06F
:1021800000F00EF9204600F0B3F9257720680169C8
:10219000C943490717D4C168C943490713D46FF02D
:1021A00004010161022020772068806910F4407FDB
:1021B000204602D0FFF7CAFF04E000F0F1F8204605
:1021C00000F096F9257720680169C943090716D4FC
:1021D000C168C943090712D46FF0080101610420E6
:1021E00020772068C0698007204602D0FFF7AEFF45
:1021F00004E000F0D5F8204600F07AF92577206851
:102200000169C943C90617D4C168C943C90613D4B3
:102210006FF010010161082020772068C06910F478
:10222000407F204602D0FFF791FF04E000F0B8F8AD
:10223000204600F05DF9257720680169C943C90788
:1022400008D1C168C943C90704D1891E016120466C
:1022500000F0D6F920680169C943090609D4C168AC
:10226000C943090605D46FF0800101612046FFF7DC
:1022700027FE20680169C943490609D4C168C943DA
:10228000490605D46FF040010161204600F0C2F913
:1022900020680169C94389060BD4C168C94389060E
:1022A00007D46FF0200101612046BDE87040FFF7C0
:1022B00008BE70BD70B586B00021009101910291F9
:1022C00003910068304B31490224314A984211D1C0
:1022D000886940F0040088618869039400F0040074
:1022E00004908815CDE9000469461046FEF7C0FC4D
:1022F00006B070BD274E284DB0F1804F1BD0274A45
:102300009042F5D1886940F0080088618869694683
:1023100000F0080004901020CDE90004304603943A
:10232000FEF7A6FC686820F4406040F0E06040F4EE
:1023300000606860DCE7886940F0040088618869B3
:1023400000F004000490886940F008008861886902
:10235000694600F00800049048F20400CDE900044A
:1023600010460394FEF784FC0820CDE9000469467A
:1023700030460394FEF77CFC686820F4407040F01F
:10238000E06040F48070D4E7002C0140001002406F
:1023900000080140000C0140000001400004004022
:1023A000704770B5044690F83C0000260D460128A1
:1023B0000FD0012084F83C006AB1042A1DD0082AFD
:1023C0002FD00C2A3FD00126002084F83C00304654
:1023D00070BD022070BD206801F058FD2068816941
:1023E00041F0080181612068816921F00401816167
:1023F000206881692A69114311E0206801F06EFDAF
:102400002068816941F4006181612068816921F45B
:1024100080618161206881692A6941EA02218161C4
:10242000D2E7206801F086FD2068C16941F008010B
:10243000C1612068C16921F00401C1612068C169DE
:102440002A69114311E0206801F0A0FD2068C169EC
:1024500041F40061C1612068C16921F48061C161FA
:102460002068C1692A6941EA0221C161ACE710B55F
:10247000040003D094F83D0010B107E0012010BD26
:10248000002084F83C00204600F01EF8022084F86A
:102490003D00211D206801F0A3FC012084F84600C6
:1024A00084F83E0084F83F0084F8400084F841003E
:1024B00084F8420084F8430084F8440084F845001E
:1024C00084F83D00002010BD08B500680649884228
:1024D00008D10648C16941F00201C161C06900F03C
:1024E0000200009008BD00000004004000100240FF
:1024F0007047000010B50446022249B104290ED0ED
:10250000082913D094F84100012816D0012010BDED
:1025100094F83E000128F9D184F83E200FE094F8A9
:102520003F000128F2D184F83F2008E094F84000F1
:102530000128EBD184F8402001E084F841200122F9
:10254000206801F083FC0F492068884203D1426C67
:1025500042F4004242642068884208D0B0F1804FC3
:1025600005D00949884202D00849884204D18168CF
:1025700001F00701062903D0016841F00101016063
:10258000002010BD002C0140000400400008004065
:1025900030B504460D460068002201F057FC174B89
:1025A00041F2111120688A10984209D1036A0B4246
:1025B00006D1036A134203D1436C23F400434364FE
:1025C0002068036A0B4206D1016A114203D10168F7
:1025D00021F00101016001203DB1042D08D0082D3A
:1025E00009D084F84100002030BD84F83E00FAE7AD
:1025F00084F83F00F7E784F84000F4E7002C01403E
:1026000000680349884201D1FEF77ABF7047000095
:1026100000080040704770B5040004D094F84100F1
:10262000002510B106E0012070BD84F8405020461E
:1026300000F024F8242084F841002068C16821F4C7
:102640000051C160204601F0E7FC2068016921F4D7
:10265000904101612068416921F02A0141612068AF
:10266000C16841F40051C1606564202084F84100D4
:1026700084F842006563002070BD000030B585B06D
:102680000024009401940294039400681449884241
:1026900024D11448816941F480418161816901F448
:1026A00080410491816941F00401816180690E4D8E
:1026B00000F0040004904FF400700090022001909C
:1026C0000320039069462846FEF7D2FA2815CDE983
:1026D0000004694628460294FEF7CAFA05B030BDE8
:1026E0000038014000100240000801402DE9F84385
:1026F000044690F84200994616460D46202802D01E
:102700000220BDE8F883ADB1A6B1002060642221AB
:1027100084F842102063FEF7A5FBA6858046E68577
:10272000A0684FF48057B84201D1206920B12E46ED
:10273000002526E00120E4E7002622E043460022AF
:1027400020212046CDF8009001F0F4FC08B10320D0
:10275000D7E726B1A068B8421BD038B108E020689E
:102760004068C0F3080025F8020B07E0206980B13B
:102770002068406800F07F0006F8010BE08D401EE5
:10278000E085E08D0028D9D1202084F84200002087
:10279000B7E720684068EFE72DE9F843044690F872
:1027A00041001F4616460D46202802D00220BDE8F3
:1027B000F8837DB176B100206064212084F8410067
:1027C000FEF750FBA6848046E684A068B0F5805FE3
:1027D00002D003E00120EAE7206910B12E4600256F
:1027E0000EE000260CE08021204601F0A3FCA0B9F9
:1027F000AEB116F8010B21684860E08C401EE08401
:10280000E08C43464FF0000200970028EBD14FF0D8
:102810004001204601F08EFC30B10320C7E735F8B7
:10282000020BC0F30800E6E7202084F841000020F6
:10283000BDE7FEE701684A69D24352050FD46FF441
:1028400080624A61002140F8301F20224273817368
:10285000026942F004020261017301207047002006
:1028600070470000F8B50446C06A1E460D4617467C
:10287000082807D0012805D010F5803F02D0206B32
:10288000122804D12068016841F480710160134668
:1028900000224FF001112046009600F02FF940B1C0
:1028A00020680068C00502D54FF400702064032042
:1028B000F8BD2069B0F5804F0ED00620216800EAEF
:1028C000D51040F0F000086133463A460B492046E7
:1028D00000F05CF978B902E005F0FE0000E0E8B233
:1028E00021680861054933463A46891F204600F0B1
:1028F0004DF90028DCD00120F8BD000008000100DF
:102900002DE9F84F0446006889460B9D01689846FA
:10291000174641F4806101602068016841F48071CC
:10292000016000954FF0011B0022594620460A9B8A
:1029300000F0E4F84FF4007A40B120680068C00568
:1029400001D5C4F840A00320BDE8F88F216809F044
:10295000FE0008612B46284920460A9A00F016F925
:10296000F0BB20684169806900902A4620460A9998
:1029700000F0A2F940B1206C04283AD12068016827
:1029800041F40071016034E0FEB2B8F1010F09D0EA
:102990002168380A08612A4620460A9900F08CF915
:1029A0000028E8D1206806612A4620460A9900F0EE
:1029B00083F90028DFD12068016841F4807101604B
:1029C00000950022594620460A9B00F097F80028FF
:1029D000B3D1216809F0FF0040F00100086100E078
:1029E00007E02B46044920460A9A00F0CFF8002859
:1029F000AAD00120A8E70000020001002DE9F84359
:102A0000044600680D46DDE90897016898461646B9
:102A100041F4807101604B4600224FF001112046C5
:102A2000009700F06BF848B120680068C00502D537
:102A30004FF4007020640320BDE8F883216805F09E
:102A4000FE0008613B464A461549204600F09EF8C4
:102A500088B920684169806900903A464946204615
:102A600000F02AF948B1206C042804D120680168DC
:102A700041F4007101600120DEE7F5B2B8F1010F09
:102A800009D02168300A08613A464946204600F0DC
:102A900013F90028E7D1206805610020CCE7000089
:102AA0000200010070B516460D4604461EE02046A1
:102AB000FFF7C0FE08B1012070BD681C16D0FEF7FC
:102AC000D1F9801BA84200D885B920684069C0436D
:102AD00040070BD5002044F8300F20216173A0730C
:102AE000216941F0200121612073E4E720684069F9
:102AF000C0434007DBD4002070BD00002DE9F04743
:102B0000984617460D460446C1F30746DDF8209067
:102B10002AE000BFB8F1FF3F26D0FEF7A3F9A0EBF3
:102B20000901414502D8B8F1000F1DD12068012EDE
:102B300016D0806925EA00000004000C12D00020A5
:102B4000B84211D1002044F8300F20216173A073E6
:102B5000216941F02001216120730120BDE8F08747
:102B60004069E7E70120EBE72068012E0AD0806981
:102B700025EA00000004000C06D00020B842C9D0AD
:102B80000020EBE74069F3E70120F7E72DE9F04784
:102B9000984616460D4604464FF000094FF0200AAD
:102BA000C1F3074723E020684069C043400515D4BE
:102BB0002068016841F40071016021686FF4806051
:102BC0004861C4F8309084F83DA084F83E90216CB0
:102BD00041F00401216484F83C9021E0701C06D08F
:102BE000FEF740F9A0EB0800B04203D816B1012F60
:102BF0001FD021E02068012F15D0806925EA000050
:102C00000004000C18D000BF44F8309F84F80DA0D9
:102C100084F80E90216941F02001216184F80C9024
:102C20000120BDE8F087406925EA00000004000C9F
:102C3000EAD12068406901E02068806925EA000047
:102C40000004000CAFD1ECE72DE9F04100259046DF
:102C50000E460446202728E04069C043C0060CD435
:102C600054F8301B6FF01000486144F81059677732
:102C7000A577206A2062257714E0FEF7F3F8A0EB31
:102C80000800B04200D886B920684069C0434006B9
:102C90000BD544F8305F6773A573206940F02000BE
:102CA000206125730120BDE8F08120684169C94396
:102CB0004906D1D40020F6E770B516460D46044605
:102CC0001EE02046FFF7B6FD08B1012070BD681C6C
:102CD00016D0FEF7C7F8801BA84200D885B9206837
:102CE0004069C04300060BD5002044F8300F202176
:102CF0006173A073216941F0200121612073E4E731
:102D000020684069C0430006DBD4002070BD00008D
:102D10002DE9FE4FDFF8F89000224846DFF8F4C0B6
:102D2000D0E90261D9E900400B46341B61EB000198
:102D3000501EB4EB0C0C1546174671F1000C5ED317
:102D4000DFF8D4804FF0000CB8EB04047CEB010CEE
:102D500055D34C46D4E904C1BCEB060661EB030134
:102D60002E4BF31A71F1000349D3DFF8B4C00023EE
:102D7000BCEB06068B4142D300234FF00309EA4621
:102D800009EB430808F1010C04EBCC0104EBC80C7F
:102D9000D1E90061DCE9008CB6EB080661EB0C01BF
:102DA0005206DFF88080120E6D1C4FF0000CB8EB5D
:102DB00006067CEB010C01D242F00102082D04D181
:102DC0000AF80720002215467F1C5B1C202BD7DB4E
:102DD0009DF80110C943CBB28DF801309DF8031066
:102DE000C943CAB28DF803209DF80010994203D15F
:102DF0009DF80230934204D00B4A00211160BDE8D7
:102E0000FE8FCDE9011301A8FDF7A4FD0020F6E730
:102E1000B836002000127A0080969800E0673500EE
:102E2000C03B470340420F00B00000202DE9FC41A9
:102E300002F00EFA244C254ED4E90623871A61EBE2
:102E4000030200231D46F61B934100D22560C4E90E
:102E500006011F4A236802EBC3065B1CC6E900019A
:102E60002360042B06D0442B02D1FFF751FF2560CD
:102E7000BDE8FC81D2E90260D2E900370146F31ACD
:102E800060EB0700134FDF1B70F10007F0D3DFF892
:102E900048C00027BCEB03038741E9D3D2E9040211
:102EA000801B62EB01020D49411A72F10001DFD370
:102EB0004FEAAC030021181A9141D9D30095684616
:102EC0000195FDF747FDD2E7B000002000E1F505D0
:102ED000B836002000127A008096980080841E0088
:102EE00010B5002208210A2002F04BFD02490861BA
:102EF000BDE8104000F092BEB000002000F016BD0A
:102F000000F02ABD00F072BD00F0B2BD00F0EFBDD0
:102F100010B506484FF4005309B1002200E0012229
:102F20001946FDF79AFF002010BD00000010014077
:102F300070B586B000241148009401940294039463
:102F4000816941F01001816180690D4E00F010002F
:102F50004FF400550490224629463046FDF77DFF88
:102F600001200095CDE90104022003906946304616
:102F7000FDF77EFE06B0002070BD0000001002408C
:102F800000100140FFF7D4FF4FF4FA7602F0DEFFA5
:102F9000054602F0AFF90446284601F0AFFC0146B1
:102FA000224609A001F01AF901210846FFF7B0FFF7
:102FB0003446304602F0C4FA00210120FFF7A8FF92
:102FC000204602F0BDFAE1E746726565537461631D
:102FD0006B206F66205461736B202573203A202587
:102FE000640A0D0008B50020009009486A460121D6
:102FF000806802F05FFC0098002807D005494FF078
:1030000080500860BFF34F8FBFF36F8F08BD000083
:10301000A000002004ED00E008B56946752000F02E
:10302000DFF810B14FF0FF3008BD9DF8000008BD7B
:1030300010B500216B2000F0A7F900216C2000F0F2
:10304000A3F90921192000F09FF906211A2000F0A8
:103050009BF918211B2000F097F918211C2000F083
:1030600093F90021372000F08FF9FF21382000F07C
:103070008BF9002204210A2002F083FC034C6060DB
:1030800002F0C4FBA060002010BD0000A0000020E2
:1030900010B5049C002C0FD04038FDF724FA6FF0D7
:1030A0000D02FDF709FA01F009FA044A044BFDF795
:1030B00091F9FDF729FA206010BD0000A79196CA8A
:1030C000DBA54C402DE9FC5F1D46DDE90CAB164647
:1030D000894607004FF0000411D001A93B2000F001
:1030E0007FF8804669463C2000F07AF840EA080400
:1030F0009DF800009DF8041040EA01203880B9F1E5
:10310000000F13D001A93D2000F06AF840EA04073F
:1031100069463E2000F064F840EA07049DF800008C
:103120009DF8041040EA0120A9F8000096B101A919
:103130003F2000F055F840EA04076946402000F0BF
:103140004FF840EA07049DF800009DF8041040EA9B
:103150000120308095B101A9432000F041F840EAF8
:1031600004066946442000F03BF840EA06049DF856
:1031700000009DF8041040EA01202880BAF1000FF9
:1031800013D001A9452000F02BF840EA0405694658
:10319000462000F025F840EA05049DF800009DF85F
:1031A000041040EA0120AAF80000BBF1000F13D080
:1031B00001A9472000F014F840EA040569464820B8
:1031C00000F00EF840EA05049DF800009DF8041098
:1031D00040EA0120ABF800002046BDE8FC9F00005B
:1031E0000EB54FF4FA7201230292CDE900130246A4
:1031F0000248D0210068FDF795FF0EBDA000002019
:103200008AB0FFF715FFFFF707FF0446002153A21E
:103210000846FFF77BFE0123224602210020FFF72C
:1032200071FE4FF47A7001F0CEFAFFF767FE4E4D53
:103230004E4E09AF0DF110090DF10C086FF00D04A1
:1032400008AB07AA06A905A8CDE90089FFF73AFF50
:10325000BDF91000BDF90C10CDE900100297BDF9C1
:103260002030BDF91C20BDF91810BDF91400FFF77E
:103270000FFF00213EA20846FFF748FEBDF91400EB
:103280004038FDF730F92246FDF716F901F016F93E
:103290002A463346FDF79EF8FDF736F9024600212F
:1032A0000320FFF731FEBDF9202000210A2028323B
:1032B000FFF72AFE2FA202210020FFF727FEBDF90B
:1032C00018001E38FDF70FF92246FDF7F5F801F05A
:1032D000F5F82A463346FDF77DF8FDF715F9024665
:1032E00002210320FFF710FEBDF90C2002210A2065
:1032F000D21FFFF709FE20A204210020FFF706FEDF
:10330000BDF91C0000F56150FDF7EDF82246FDF710
:10331000D3F801F0D3F82A463346FDF75BF8FDF702
:10332000F3F8024604210320FFF7EEFDBDF910205B
:1033300004210A200E3AFFF7E7FD10A20621002023
:10334000FFF7E4FDC0B20621099AFFF7DDFD642016
:1033500001F039FAFFF7D2FD72E700004D50553603
:103360003035302049443A00A79196CADBA54C403D
:10337000583A2000593A20005A3A2000416E676CB2
:1033800065583A20000000001CB502238DF80400A7
:103390004FF4FA70009004488DF8051001AAD0216E
:1033A0000068FDF729FE1CBDA00000203EB50024EA
:1033B00011480094019402940E49846001600473E2
:1033C0000475012505614FF460214460C161FDF77A
:1033D00079FB08B1FDF7F6FA0320CDE9000569464F
:1033E00002940548FDF7F0FA002801D0FDF7EAFA4B
:1033F0003EBD000000240140EC0400203EB5012049
:1034000002F0B4FA1E4CA060FFF77AFDFFF776FDDC
:1034100000F001FEFFF70CFEFFF762FD00F058FC24
:10342000002118A20846FFF771FD194A002119482A
:1034300001F012FAE06000201825CDE900500346A3
:10344000802215A1174802F029FD17480095A0F524
:10345000A071CDE901100023502214A1164802F0FA
:103460004AFD206015480095A0F50071CDE90110D6
:103470000023802212A1154802F03DFD60603EBD90
:10348000000000205374617274696E6700000000D0
:10349000EC620008F53C000847616D655461736B90
:1034A00000000000D1400008340200204C69676829
:1034B000745461736B000000852F00089004002095
:1034C000436F6C6F725461736B0000002D0900082C
:1034D0002DE9F04786B000244F48009401940294EF
:1034E0000394816941F010018161816901F010014B
:1034F0000491816941F020018161816901F020011D
:103500000491816941F004018161816901F0040144
:103510000491816941F00801816180693F4F00F0A9
:1035200008004FF400550490002229463846FDF764
:1035300094FCDFF8EC90002213214846FDF78DFC47
:10354000DFF8E0A04FF40248002241465046FDF764
:1035500084FC0095022601250396CDE901546946B5
:103560003846FDF785FB112700970396CDE90154F6
:1035700069464846FDF77CFBCDE90256CDE9006778
:1035800069464846FDF774FB03208DE83100694623
:103590005046FDF76DFBA80200902348CDE90105D8
:1035A00069465046FDF764FB204FE802CDE900076D
:1035B000694602955046FDF75BFB4FF48150CDE91B
:1035C0000007694602945046FDF752FB4FF48240D3
:1035D000CDE90004694650460294FDF749FBCDF859
:1035E00000800396CDE9015469465046FDF740FB43
:1035F000002205211720FEF71BF81720FEF70AF816
:10360000002205212820FEF713F82820FEF702F8F3
:1036100006B0BDE8F0870000001002400010014035
:1036200000080140000C01400000311000001110A2
:103630000D4810B50B4901600C49416000214FF461
:1036400080428160C0E9031241618161C161016210
:10365000FDF70EFC002803D0BDE81040FDF7B2B91D
:1036600010BD0000005400401C050020A086010091
:10367000104810B50E4901604FF48271416000217D
:103680008160C1604FF400720161C0E90512082237
:10369000C0E90721416281620A21C162FEF77EFB17
:1036A000002803D0BDE81040FDF78CB910BD000024
:1036B000003001407005002010B596B000240F9432
:1036C00010941194129413941C2108A81494FCF7DC
:1036D000CFFD20216846FCF7CBFD2A482849016030
:1036E0004721C0E9011440F2E731C0E90314802109
:1036F000C0E90541FEF744FC08B1FDF763F94FF45A
:1037000080500F900FA91F48FEF7B2FC08B1FDF7DB
:1037100059F91C48FEF7ABFE08B1FDF753F91394B5
:1037200013A918481494FEF7F7FB08B1FDF74AF9FE
:103730006020089040F2F310CDE909040B940C943A
:103740000D94002208A90F480E94FEF72AFE08B136
:10375000FDF738F900944FF40050CDE9044002948D
:1037600001940394694607480794FEF7ABFB08B140
:10377000FDF728F90348FEF79DFD16B010BD0000C7
:10378000002C0140C805002010B58EB0002407941D
:10379000089409940A940B941C2168460C94FCF735
:1037A00067FD27484FF08041016040F26711C0E992
:1037B000011440F2CF71C0E9031480218161FEF74A
:1037C000DFFB08B1FDF7FEF84FF48050079007A922
:1037D0001B48FEF74DFC08B1FDF7F4F81848FEF75A
:1037E00046FE08B1FDF7EEF80B940BA914480C94B3
:1037F000FEF792FB08B1FDF7E5F86020CDE9000483
:103800000294002269460E480494FEF7CAFD08B1EE
:10381000FDF7D8F8042269460948FEF7C2FD08B151
:10382000FDF7D0F8082269460548FEF7BAFD08B151
:10383000FDF7C8F80248FEF73DFD0EB010BD0000D0
:103840001006002010B58AB0002407941C21684699
:103850000894FCF70DFD1848164901600721C0E9DE
:10386000011440F2E731C0E9031480218161FEF7C1
:10387000FEFD08B1FDF7A6F8079407A90E480894C5
:10388000FEF74AFB08B1FDF79DF8602000904FF469
:103890006170CDE901040022694607480494FEF7EF
:1038A00080FD08B1FDF78EF80348FEF703FD0AB06E
:1038B00010BD000000040040580600200C4810B560
:1038C0000A4901604FF4E1314160002181600C221E
:1038D000C160C0E904128161C161FEF79CFE00284D
:1038E00003D0BDE81040FDF76DB810BD00380140B1
:1038F000A00600200B4810B509490160082141606D
:103900000221816000218161C1610162FDF7C2FE77
:10391000002803D0BDE81040FDF754B810BD0000EA
:10392000005C0040E8060020FEE7FEE710B5A0B00E
:10393000002480216846FCF79BFC0021204600F013
:1039400029F98021684600F059F9641CE4B2082C7A
:10395000F3D320B010BD000010B50224202000F0E9
:1039600039F9204600F036F91F4804703F24A8209A
:1039700000F030F9204600F02DF90024D32000F0AB
:1039800029F9204600F026F9402000F023F9A12073
:1039900000F020F9C82000F01DF90021084600F0D1
:1039A000E3F87F24812000F015F9204600F012F999
:1039B000A42000F00FF9A62000F00CF9D52000F0AB
:1039C00009F9802000F006F98D2000F003F9142099
:1039D00000F000F90021012000F0C6F8BDE8104019
:1039E000AF2000F0F7B8000098000020F0B51CA64A
:1039F0001546074655CE87B00DF10C0C8CE85500E6
:103A000030208DF80000782000268DF80100022477
:103A10008DF80A6007206A464FEA800E25FA0EFEEE
:103A20000EF00F0E022C1CF80EE002F804E004D198
:103A30009DF802E0BEF1300F00D0641C401EEBD5B3
:103A4000022C00D103243846165523B100F04FF85C
:103A5000204607B0F0BD921C00F049F8A01EF8E720
:103A600030313233343536373839616263646566F4
:103A7000F0B589B00024074620466D4604AE002A02
:103A800008DA4FF02D038DF800304FF00104C2F139
:103A9000000214E006D14FF030008DF800004FF026
:103AA00001041AE04FF00A0C92FBFCF30CFB132309
:103AB00092FBFCF203F13003335400F10100002AC1
:103AC000F0D108E006EB0002A0F1010012F8012C91
:103AD0002A5504F101040028F4D14FF000002855C4
:103AE0002A46384600F003F809B02046F0BD2DE91B
:103AF000F04117460E46044600250BE031462046AD
:103B000000F00EF8641CE4B20F2C02D90024B61C9D
:103B1000F6B26D1C7A5D002AF0D12846BDE8F0812E
:103B200070B51646C206150E0C46072918D80F2880
:103B300016D82946204600F02DF80A48082100EB47
:103B40000610064600F05AF8641CE0B2294600F060
:103B500021F806F10800BDE87040082100F04EB8D9
:103B600070BD00003A63000870B50C46050001D036
:103B7000012D0ED10CB1012C0BD1DA2000F02AF866
:103B8000280100EB4410BDE87040801CC0B200F07A
:103B900021B870BD70B50E4D0C462978022905D1AB
:103BA000072803D8B030C0B200F014F828780228F3
:103BB0000CD17F2C0AD804F00F0000F00BF8102075
:103BC00000EB1410BDE8704000F004B870BD0000B8
:103BD000980000201CB500218DF804108DF8050018
:103BE0004FF4FA7000900448022301AA782140683B
:103BF000FDF702FA1CBD0000980000200EB54FF43E
:103C0000FA728DE8070004480123402278214068B9
:103C1000FDF7B0FB0EBD000098000020044A51687B
:103C20000A2904DA034B43F82100491C516070470C
:103C3000B0000020D8380020FEB50020009001F030
:103C400007FB06460D46022000F0BDFD1C4F4FF459
:103C500080513846FDF7FCF800282AD0194CD4E9E9
:103C60000401321A65EB010317480021FCF7A6FA9C
:103C7000606001213846FDF7EBF80028206819D074
:103C8000401C2060C4E904652068019060680290CF
:103C900000236A4601A9E06801F0C4FF00980028EB
:103CA00007D00A494FF080500860BFF34F8FBFF331
:103CB0006F8FFEBD401E2060606840426060E1E79B
:103CC000000C0140D000002000CA9A3B04ED00E047
:103CD00008B50020054B0090A3F1500208210A20EE
:103CE00001F073FE0249C86008BD00005039002091
:103CF000D0000020002001F049FCFFF701F9FFF798
:103D0000FDF8FFF7EDF8002103A20846FFF7FEF8E3
:103D1000FFF776FAFCE7000057616974696E672067
:103D2000636F6E74726F6C0010B5502080F3118851
:103D3000BFF34F8FBFF36F8F02F022F918B1044920
:103D40004FF080500860002080F3118810BD000003
:103D500004ED00E030B593B028216846FCF788FAFE
:103D600014210AA8FCF784FA002401200F9410946F
:103D70001194010412948DE8130004904FF4E010A4
:103D8000CDE90810022507956846FDF777FE08B1D2
:103D900072B6FEE70F20CDE90A054FF48060CDE949
:103DA0000C4002210AA80E94FDF76CFD08B172B612
:103DB000FEE712200F904FF40040CDE911040FA848
:103DC000FDF7EAFC002801D072B6FEE713B030BD63
:103DD000704700000148FEF7BAB90000D80900207A
:103DE000F0B50268164B174C174D4FF080479842BC
:103DF00005D0B84203D0A04201D0A84203D122F09E
:103E000070064A683243984205D0B84203D0A042B7
:103E100001D0A84203D122F44074CA6822434C69FD
:103E200022F08002224302608A68C2620A688262CB
:103E3000984201D10969016301214161F0BD00008F
:103E4000002C0140000400400008004010B501F0C3
:103E50001F030121046A99408C430462016A9A405D
:103E60001143016210BD10B5846842EA032224F4B4
:103E70007F440A432243826010BD826822F07002B0
:103E80000A4342F0070181607047000030B5036AC1
:103E9000026A22F0010202624268846924F073051A
:103EA0000C682C4323F002058B682B430A4DA84273
:103EB0000BD123F00805CB6822F440722B434D69E7
:103EC00023F0040315438A692A43426084614968E8
:103ED0004163036230BD0000002C014030B5026A2E
:103EE000036A23F010030362436884690D6824F4B5
:103EF000E64444EA05248D6822F0200242EA0512D5
:103F00000B4DA8420ED1CD6822F0800242EA051284
:103F10004D6923F4406343EA85038D6922F0400232
:103F200043EA85034360846149688163026230BD6E
:103F3000002C014030B5036A026A22F480720262EA
:103F40004268C46923F4007324F073050C682C43A1
:103F50008D6843EA05230C4DA8420ED1CD6823F4A9
:103F6000006343EA05234D6922F4405242EA0512F8
:103F70008D6923F4806342EA05124260C461496896
:103F8000C163036230BD0000002C014030B5046AFB
:103F9000026A22F4805202624268C3690D6823F407
:103FA000E64343EA05238D6824F4005444EA0534CB
:103FB000064DA84204D14D6922F4804242EA85129E
:103FC0004260C36149680164046230BD002C014055
:103FD00010B5036A046A24F001040462846924F0C1
:103FE000F00444EA021423F00A020A4384610262E4
:103FF00010BD10B5036A046A24F0100404628469D9
:1040000023F0A00324F4704444EA023243EA01118D
:104010008261016210BD704770B504460068016995
:10402000E26821F44051114301612169A06808430D
:10403000616908432168CA6841F20C639A430243EC
:10404000CA6020684169A26921F44071114341614D
:104050001E492068884202D1FDF7DAFC01E0FDF735
:10406000C7FC00EBC00101EB001260686421800016
:10407000B2FBF0F3B3FBF1F36FF018067343B2FB3E
:10408000F0F5B2FBF0F605EB8305322303EB0515E3
:10409000B5FBF1F5B6FBF1F605F0F00505EB0615FD
:1040A000B2FBF0F6B2FBF0F0B0FBF1F06FF01802EB
:1040B000504306EB800003EB0010B0FBF1F02168E9
:1040C00000F00F002844886070BD000000380140F7
:1040D00007A200210846FEF719FF0EA000F07EF8A7
:1040E000002000F029FBC1B20FA000F077F8F7E73D
:1040F0005573652053657269616C20546F6F6C2035
:104100006F6E20504320746F207465737420554186
:104110005254000031303061736B205541525420AD
:10412000746573743A0A0D000A0D6765742025637F
:104130000A0D00002DE9F041984617460E46044648
:10414000069D27E0681C25D02DB1FCF78BFEA0EB67
:104150000800A8421ED920680C3050E8001F21F446
:10416000D07140E80012002AF5D12068143050E8E0
:10417000001F21F0010140E80012002AF5D12020A3
:1041800084F8410084F84200002084F840000320B5
:10419000BDE8F0812068006836EA000004D0002005
:1041A000B842CFD00020F3E70120F9E700207047A4
:1041B00000207047012120F8401F002101808180EC
:1041C00001820846704730F8401F21F43F410180CA
:1041D0000020704700207047FEE700000FB4054B39
:1041E00010B503A9044A029800F08CF810BC5DF8E1
:1041F00014FB000071470008EC0000200907090EBD
:10420000002804DB00F1E02080F80014704700F083
:104210000F0000F1E02080F8141D70472DE9F041F7
:104220004F1E00EBC7010446D1E9000115461E46AA
:1042300037F006020DD02A463346FCF7CBF87F1E36
:1042400004EBC703D3E90023FCF71DF837F006029F
:10425000F1D1022F25D0042F13D0062F18BFBDE8AF
:10426000F0812A463346FCF7B5F8D4E90A23FCF777
:104270000AF82A463346FCF7ADF8D4E90823FCF7E0
:1042800002F82A463346FCF7A5F8D4E90623FBF7E3
:10429000FAFF2A463346FCF79DF8D4E90423FBF7DE
:1042A000F2FF2A463346FCF795F8D4E90223FBF7E0
:1042B000EAFF2A463346FCF78DF8D4E90023BDE82F
:1042C000F041FBF7E0BF0122FCF7F6B800221346ED
:1042D00010461146FCF7CBB902E008C8121F08C10E
:1042E000002AFAD170477047002001E001C1121F77
:1042F000002AFBD1704700000149086070470000A8
:10430000F00000202DE9FF4F8BB09A460F4605467E
:10431000002606E025280BD052460D9990476D1CCB
:10432000761C28780028F5D10FB03046BDE8F08F14
:104330000024A0460122604900E0044315F8013F33
:10434000203B02FA03F00842F7D128782E2817D133
:1043500015F8010F44F004042A280ED06FF02F0244
:104360002878A0F1300109290AD808EB880102EB6E
:10437000410100EB01086D1CF2E757F8048B6D1C3E
:10438000287869283ED006DC0028CDD063280BD0E1
:10439000642804D136E0732810D075284BD05246DB
:1043A0000D999047761C85E017F8040B8DF80000F6
:1043B00000208DF80100E946012003E057F8049B36
:1043C0004FF0FF3061074FF0000401D40AE0641C95
:1043D00044450DDA8442FADB19F804100029F6D1BD
:1043E00006E0641C8442FCDB19F804100029F8D1B3
:1043F000264404E019F8010B52460D999047641EBB
:10440000F8D257E001CF4FF00A0B002802DA404201
:104410002D2102E0210504D52B218DF82410012146
:1044200003E0E10705D02021F7E70DF1200908910D
:104430000CE00021F9E701CF4FF00A0BF9E75946EC
:10444000FCF781F801F1300209F8012D0028F6D1BE
:10445000ADEB090000F1200B600701D44FF001081B
:10446000D84502DDA8EB0B0000E0002080460024C8
:1044700006E009A85246005D0D999047641C761C21
:1044800008988442F5DB04E0302052460D999047AD
:10449000761CB8F10001A8F10108F5DC05E019F877
:1044A000010B52460D999047761CBBF10001ABF110
:1044B000010BF4DC6D1C34E7092801002DE9F04DF7
:1044C0000546DFF8388221F000408D4F82B00C465F
:1044D000404520DBA0EB080129430BD089498842E5
:1044E00001DC10D17DB102B028462146BDE8F04D77
:1044F000FFF7E9BE002CC7BF0020014682483946BD
:1045000002B0BDE8F08D0120FFF7F6FE02B0BDE875
:10451000F04DFFF7DBBE7D49884244DA7C49814299
:10452000A1BF79487B4902B0BDE8F08D2A462346F9
:1045300010461946FBF74EFF8346024676480E4664
:104540000B4606217844FFF769FE5A463346FBF7CF
:1045500041FF074671488A465A463346042178444B
:10456000FFF75CFE5A463346FBF734FF0022434612
:10457000FBF789FE02460B4638465146FCF777F8B2
:104580002A462346FBF726FF654A664BFBF71FFFCB
:104590002A462346FBF71BFF02B05B4ABDE8F04DFD
:1045A0005C4BFBF714BF002C4FF000024BDA464681
:1045B000434628462146FBF766FE4FF0FF32FBF7E5
:1045C0007BFF0446024658480D460B4606217844B8
:1045D000FFF724FE22462B46FBF7FCFE804653489D
:1045E0008A4622462B4604217844FFF717FE2246CE
:1045F0002B46FBF7EFFE00223346FBF744FE064650
:104600008B462046294600F0FDFD04460D46324605
:104610005B4640465146FCF72AF822462B46FBF7FC
:10462000D9FE3F4A3F4BFBF7CFFE22462B46FBF716
:104630002AFE0122FBF740FF02B03B46BDE8F04DE9
:10464000314AFBF7C4BE2D4B28462146FBF7BFFE7F
:104650004FF0FF32FBF730FF05460E4600F0D2FD6B
:1046600000270C4680463A460B46FBF70CFE824676
:104670008B463A46234610461946FBF7ABFE2A46C0
:104680003346FBF7A4FE52465B46FBF7F0FF82463B
:1046900027488B462A46334606217844FFF7BEFD5D
:1046A0002A463346FBF796FECDE9000121482A460B
:1046B000334604217844FFF7B1FD2A463346FBF721
:1046C00089FE00220D4BFBF7DEFD02460B46DDE9BD
:1046D0000001FBF7CCFF42462346FBF77BFE524628
:1046E0005B46FBF7D0FD3A462346FBF7CCFD02B014
:1046F0000122BDE8F04DFBF7DFBE00000000F03FF7
:10470000FB2109400000F07F182D44540000E03FD9
:104710000000603CFB21F93FF82500000E26000058
:10472000075C143326A6913C6E250000842500000A
:10473000A2240000B82400007CB50C4C00208DF8A9
:104740000000206801680A6849684FF0FF35019150
:104750002B4601226946FDF7C9FF2B460122694617
:104760002068FEF719F89DF800007CBDE8000020E5
:1047700013B505484FF4FA73012269460068FEF745
:104780000BF800981CBD0000E8000020FCF7C0FEFC
:10479000FFF7E0FAFEF79CFEFEF74AFFFEF706FE83
:1047A000FEF766FFFFF7A6F8FEF786FFFEF7ECFFC1
:1047B000FFF748F8FFF782F800F012F8FEF71EFE48
:1047C00000F02AF8FEE770B5054600244FF47A762B
:1047D00003E0304600F05EFD641CAC42F9DB70BDC6
:1047E000EFF3058058B9EFF3108040B90949086824
:1047F000022801D030B109E0EFF3118030B16FF041
:104800000500704701200860002070474FF0FF301E
:10481000704700007000002010B5EFF3058060B90C
:10482000EFF3108048B90B490868022802D001282C
:1048300006D00BE0EFF3118040B16FF0050010BD22
:104840000220086000F064FF002010BD4FF0FF3030
:1048500010BD000070000020F0B585B04FEA0103E4
:104860004FF00004EFF305810394A1BBEFF3108137
:1048700089BB21490968022902D1EFF3118151BB9B
:1048800048B3802618218DF8104004AD42B3176854
:1048900007B13D4697691FB139467F1E382F02D2B6
:1048A0001779FF0702D0002005B0F0BD576907B1A6
:1048B000BE08D2F808C0BCF1000F0DD0D4685C2C43
:1048C00018D312693AB137B18DE80610324629463D
:1048D00001F011FB03900DE0D7685FB912694AB986
:1048E00003AACDE90012B2B2294601F0D7FA012895
:1048F00000D003940398D7E77000002008B9064859
:10490000006808B134307047502080F31188BFF33D
:104910004F8FBFF36F8FFEE7200000202DE9F0419D
:10492000134C0F46054666692068001D00F0CEFC5A
:10493000681C07D137B12168BDE8F0410D48091D59
:1049400000F01EBD20683544B5424560216805D29F
:10495000A068BDE8F041091D00F0FABC6068091DBF
:1049600000F0F6FC206B854200D22563BDE8F081A3
:1049700020000020100F00202DE9F041054600F036
:104980000BFD2D4C2069401C206120682B4F10B17D
:10499000E06930B32BE025602069012827D100268B
:1049A00006EB860007EB800000F0C4FC761C382E76
:1049B000F6D3234800F0BEFC2148143000F0BAFCC6
:1049C0001F48283000F0B6FC1D483C3000F0B2FC17
:1049D0001B48503000F0AEFC194860601430A060F5
:1049E00005E02068E96AC06A884200D82560E06A6C
:1049F000401CE0626864E86AA169884200D9A0614D
:104A000000EB800007EB8000291D00F0B9FC00F0EE
:104A1000E3FCE06900280CD02068E96AC06A88429B
:104A200007D208494FF080500860BFF34F8FBFF3A3
:104A30006F8FBDE8F081000020000020600A002098
:104A4000C00E002004ED00E038B500F0A5FC104CCD
:104A5000A068C8B90F4800F06DFC0E48143000F093
:104A600069FC0C482060143060600A4B0020283339
:104A7000009003F1540210210A2000F0A6FFA0606C
:104A800010B105A100F026FDBDE8384000F0A4BC3F
:104A90005C000020240F0020546D725100000000C3
:104AA00030B4026C0B46002A0BD0C1681144C160BF
:104AB0004468A14201D30168C16030BC1846FBF7CD
:104AC000BEBB30BC70472DE9F041856B17460446EC
:104AD0000026026C82B1C7B1E068FBF7B0FBE16869
:104AE000206C091AE1602268914202D26168081ABA
:104AF000E060022F16D017E02068A8B9606801F0C6
:104B0000A3FA0646002060600EE0A068FBF797FB62
:104B1000216CA0680844A0606168884204D32068C2
:104B2000A06001E005B16D1E6D1CA5633046BDE8B7
:104B3000F08110B5044690F8590058B101280CD006
:104B400002280FD0502080F31188BFF34F8FBFF39E
:104B50006F8FFEE7206B00F053FC2046BDE810404D
:104B600000F04EBC10BD000010484FF4FA5142074F
:104B700006D0C01D0D4920F00700411AC1F5FA51B9
:104B80000B4A00230144C2E900030839103A21F01E
:104B9000070111604B600B600B1AC0E900139360B2
:104BA0004FF000405360D06070470000F8160020BE
:104BB00084000020144E154CA6F29C474FF08058FC
:104BC000DFF84C9012E000BF00F0E6FBF068C5682B
:104BD000281D00F07BFB2069401E2061E068401E1C
:104BE000E06000F0F9FB2846FFF7A3FFE06800282B
:104BF000EAD138680128F9D9C9F80080BFF34F8F8E
:104C0000BFF36F8FF2E70000FC0E002020000020B1
:104C100004ED00E0002807D00021416001600B4650
:104C20000A46C16000F048BF7047000070B51D46DD
:104C3000049C61B1C4F80020C4E90F0101212046A1
:104C400000F0F6FE84F850500020A06470BD24608F
:104C5000F2E72DE9F0470E46DDE909841746824662
:104C600091009946089DA522206BFBF7FAFA6FF098
:104C70000301206B01EB8701084420F00707780748
:104C800007D0502080F31188BFF34F8FBFF36F8F91
:104C9000FEE72218315C82F83410315C11B1401CFF
:104CA0001028F6D3002684F84360382D00D337252A
:104CB000E562C4E91356201D00F047FB04F118001B
:104CC00000F043FB2461C5F138006462A0616665B1
:104CD00084F858604A465146384600F081FA206010
:104CE000B8F1000F01D0C8F80040BDE8F08700001F
:104CF00030B5114900E011460A688242FBD34B6887
:104D00005C18844203D140681844486008464368F0
:104D10001C18944209D1084C103C2468A24209D0C6
:104D200052681A4442600A6812680260814200D0E8
:104D3000086030BD0460F9E78400002070B50024ED
:104D400041600B4D0061914206D8D11A82699142AF
:104D500006D2011D686807E09A4203D2994201D346
:104D6000012403E0011D286800F0F2FA204670BD1E
:104D70005C00002010B5044600F00EFBA06B28B1CB
:104D80005FF0000400F028FB204610BD0124F9E785
:104D900073B500260098846C5CB1A26BE06B824214
:104DA0000FD3502080F31188BFF34F8FBFF36F8F65
:104DB000FEE7502080F31188BFF34F8FBFF36F8F52
:104DC000FEE7A26B82420CD294F945500A4669462E
:104DD0002046FFF778FE0646681C04D06D1C84F858
:104DE000455030467CBD606A0028FAD004F12400AA
:104DF00001F06AF90028F4D00126F2E730B589B055
:104E0000304D55E00498002806DADDE90601059AE0
:104E10009047049800284BDB069C606910B1201D68
:104E200000F054FA02A800F0B9F8024604980A28E3
:104E30003ED2DFE800F00505053D263705053D2695
:104E40000598A169034601442046FFF777FF00B3A8
:104E5000616A20468847E069012829D10020009036
:104E60000598A169002342181946204601F0F6F979
:104E700078B9502080F31188BFF34F8FBFF36F8F45
:104E8000FEE70598A06128B1811813462046FFF778
:104E900055FF0DE0502080F31188BFF34F8FBFF313
:104EA0006F8FFEE794F82C0010B9204600F0A8FAA6
:104EB000002204A9A86800F01BFF0028A2D109B0B5
:104EC00030BD00005C0000202DE9FC410F46054686
:104ED00000F062FC01A800F061F80446019818B1E6
:104EE00001F02AF9BDE8FC81224EAFB1706800687C
:104EF000A8B30027291B3A46B06800F0FFFA01F07A
:104F00001BF90028EED11C494FF080500860BFF318
:104F10004F8FBFF36F8FE5E7A542EBD801F00CF997
:104F200030682746C068C468201D00F0CFF9E069EA
:104F3000012810D1A0692B4641193A462046FFF7B7
:104F4000FDFE40B100200346014600902A4620465F
:104F500001F084F920B1616A20468847C2E707E082
:104F6000502080F31188BFF34F8FBFF36F8FFEE7A0
:104F70000127BFE75C00002004ED00E0064841681F
:104F8000096829B14168C968C968496801637047FF
:104F90004FF0FF31FAE700002000002070B5054611
:104FA00000F0E8FF064E04463069844203D200F068
:104FB00009F8012000E0002028602046346170BD1F
:104FC0005C000020F8B5194D1FE0C068C468066891
:104FD000201D00F07BF9616A20468847E0690128BE
:104FE00013D1A0693044B04206D924616060211D0C
:104FF000286800F0ADF908E0002003460146009063
:105000003246204601F02AF938B1286801680029A3
:10501000DBD16968C5E90010F8BD502080F3118824
:10502000BFF34F8FBFF36F8FFEE700005C000020DF
:10503000002101E0401C491C0278A52AFAD0C1F3E6
:105040008F00704708484068401C4FF0500080F3C4
:10505000118804D0BFF34F8FBFF36F8FFEE7BFF30C
:105060004F8FBFF36F8FFEE78C000020074C206846
:10507000016841B1C0680021D0F80000FFF724FFAB
:10508000FFF7BCFEF3E701210020F7E75C000020FA
:105090002DE9F041044600F07FF994F9455004F100
:1050A000240610E0A06C20B100212046FFF770FE1E
:1050B00004E0606A48B1304601F006F808B100F03B
:1050C000B5FA6D1E6DB2002DECDC4FF0FF3684F8A2
:1050D000456000F081F900F05FF994F9445004F163
:1050E000100709E0206948B1384600F0EDFF08B12B
:1050F00000F09CFA6D1E6DB2002DF3DC84F8446064
:10510000BDE8F04100F068B92DE9F04105460027FF
:1051100000F042FB314E306808B9FFF725FDF0681A
:1051200005424BD1C5B3083568070ED005F007001E
:10513000C0F108000544680707D0502080F31188AB
:10514000BFF34F8FBFF36F8FFEE72DB370688542BB
:1051500034D82248103001460C6801E020460C4645
:105160006168A94202D221680029F7D131688C42D6
:1051700024D007682168016060680837411B102946
:105180000FD96019420708D0502080F31188BFF36F
:105190004F8FBFF36F8FFEE710E041606560FFF750
:1051A000A7FD61687068401A7060B268904200D2D2
:1051B000B060F06801430020C4E9000100F0BCFFCA
:1051C000780707D0502080F31188BFF34F8FBFF3CB
:1051D0006F8FFEE73846BDE8F081000074000020C4
:1051E00010B5031F4FF080741C601B1F21F00101DC
:1051F0001960191F024B0B60143940380A6010BD4A
:10520000455000082DE9F04106460F46FBF7B0FA7D
:10521000041E0D4618BF0120284320F00040C0F1B5
:105220007F6000F1E040C00F0ED0301C18BF01209D
:10523000384320F00040C0F17F6000F1E040C00F33
:1052400004BF0120FFF758F820462946BDE8F08149
:105250002DE9F0410D4CFBF705FE22680023516A51
:10526000D26A0B4DA0FB054703FB057500FB0355F8
:10527000074FA1FB070C03FB07C701FB0371FAF7FC
:105280009DFF00196941BDE8F0810000D8090020A8
:1052900040420F0030B50C4A00211368DC6A4FF41D
:1052A0007A726043B0FBF2F55A6A586A9042FCD0B9
:1052B00002D9A0EB020202E0A4EB02020244114474
:1052C0000246A942F1D330BDD8090020D0E901320D
:1052D00001699A60D0E901235A604A68824201D18B
:1052E00082684A60002202610868401E08600868FF
:1052F0007047000008B902480068006BFFF798BECD
:1053000020000020034B036003F15C000860802054
:105310001060704740100020044B036003F15C00F4
:1053200008604FF480701060704700009C120020ED
:1053300000F07ABA00F108014FF0FF32C0E9011223
:10534000C160016100210160704700210161704767
:1053500030B50B685A1C02D000F1080202E0026965
:1053600004E02246546825689D42FAD953684B6090
:1053700099608A60516008610168491C016030BD14
:1053800042684A6093688B609368596091600861D5
:105390000168491C01607047502080F31188BFF3F9
:1053A0004F8FBFF36F8F0A494868401C486001283F
:1053B0000CD10848006810F0FF0F07D0502080F390
:1053C0001188BFF34F8FBFF36F8FFEE77047000068
:1053D0008C00002004ED00E00849486828B1401E18
:1053E000486001D180F311887047502080F3118804
:1053F000BFF34F8FBFF36F8FFEE700008C000020DC
:1054000070B5002827D0144DA0F108046168E86841
:10541000014207D1502080F31188BFF34F8FBFF3B3
:105420006F8FFEE722683AB1502080F31188BFF3F6
:105430004F8FBFF36F8FFEE78143616000F0ACF9DF
:1054400060686968084468602046FFF751FCBDE861
:10545000704000F071BE70BD740000204FF0E0207D
:1054600000210161816105494FF47A720968B1FB3D
:10547000F2F1491E41610721016170471C000020C3
:1054800010B5FAF785FE114910280ED300F1E0207F
:1054900090F8F0030A78904207D2502080F31188E8
:1054A000BFF34F8FBFF36F8FFEE70948006889682D
:1054B00000F4E060884207D9502080F31188BFF3E0
:1054C0004F8FBFF36F8FFEE710BD00008C000020F0
:1054D0000CED00E010B5084B002200BF53F832403D
:1054E0001CB1521C082AF9D310BD43F8321003EB4B
:1054F000C201486010BD0000200A002070B51546AA
:105500000E460446FFF748FF94F944100020491C5A
:1055100001D184F8440094F94510491C01D184F864
:105520004500FFF759FFA06B28B92A46314604F120
:10553000240000F099F82046BDE87040FFF7A8BDB0
:1055400010B5020014D00F48806B38B1502080F3A2
:105550001188BFF34F8FBFF36F8FFEE700F01CF988
:1055600000211046FFF7DAF900F0E6FD002807D128
:1055700005494FF080500860BFF34F8FBFF36F8F26
:1055800010BD00002000002004ED00E070B50546CD
:10559000FFF702FF1E4C05B92568281DFFF796FE90
:1055A000A86A18B105F11800FFF790FEE06A401CE8
:1055B000E0622068854207D1291D1648FFF7E0FE0A
:1055C000E068401CE06007E02069401E206128463A
:1055D000FFF7AFFAFFF7D2FCFFF7FEFEE069002805
:1055E00014D02068854211D1A06B38B1502080F3CF
:1055F0001188BFF34F8FBFF36F8FFEE706494FF05F
:1056000080500860BFF34F8FBFF36F8F70BD0000F5
:1056100020000020FC0E002004ED00E002498A6A10
:105620000260496941607047200000200149012063
:10563000486270472000002010B50C4650B109495F
:1056400009681831FFF784FE2046BDE810400121AB
:10565000FFF764B9502080F31188BFF34F8FBFF379
:105660006F8FFEE72000002070B514460D4668B12C
:105670000A4909681831FFF783FE0CB14FF0FF3576
:1056800021462846BDE87040FFF748B9502080F316
:105690001188BFF34F8FBFF36F8FFEE7200000200C
:1056A00070B5194DAA6BF2B141F000410160C468B8
:1056B0000CB3FFF70BFE201DFFF708FEE06AA96997
:1056C000884200D9A861114900EB800001EB8000FD
:1056D000211DFFF755FEE06A2968C96A884201D991
:1056E0000120686270BD502080F31188BFF34F8F96
:1056F000BFF36F8FFEE7502080F31188BFF34F8F09
:10570000BFF36F8FFEE7000020000020600A00203A
:1057100030B587B00024039405AA04A903A8049413
:10572000FFF7F0FDDDE903010094CDE9011000234E
:1057300015A11748059A00F0DEFB164D0028686396
:105740001FD000F05BFD012809D0401C19D150206A
:1057500080F31188BFF34F8FBFF36F8FFEE75020A8
:1057600080F31188BFF34F8FBFF36F8F4FF0FF307F
:1057700028630120E8616C6107B0BDE8304000F0AB
:10578000A1B807B030BD000049444C4500000000FE
:10579000B54B0008200000200248816B491C816342
:1057A0007047000020000020164810B5816B11B131
:1057B0000121416210BD002141628169124A01E06C
:1057C000B9B1491E01EB810352F82330002BF7D009
:1057D00001EB810302EB830202F1080453685B686A
:1057E0005360A34201D15B685360DA680260816153
:1057F00010BD502080F31188BFF34F8FBFF36F8F20
:10580000FEE7000020000020600A002070B5202084
:10581000FFF77AFC040005D00025201D2560FFF766
:1058200089FD2577204670BD2DE9F0410027884687
:1058300004000AD05FEA18600FD0502080F311886E
:10584000BFF34F8FBFF36F8FFEE7502080F31188B7
:10585000BFF34F8FBFF36F8FFEE7261D04F10C05DA
:10586000FFF79AFF2168F06841EA0801216017E01C
:10587000D0E9001601F07F425301236821F07F41F7
:1058800002D40B4203D10AE031EA030307D1D2016B
:1058900000D50F43216841F00071FFF701FF30464A
:1058A000A842E5D12068B843206000F045FC20689C
:1058B000BDE8F08113460A460146014800F002BDEA
:1058C000315300081CB5264908780190FF20087064
:1058D00008788DF800009DF800009DF8002000F089
:1058E000F000904207D0502080F31188BFF34F8F13
:1058F000BFF36F8FFEE79DF800001A4B00F05000D9
:1059000018700720986005E09DF8002052008DF87F
:105910000020401E9DF800201206F5D49860032850
:1059200007D0502080F31188BFF34F8FBFF36F8FE4
:10593000FEE74FF440709860019808700A480168CB
:1059400041F470010160016841F070410160FFF7AE
:1059500085FD00205860FAF7E5FB00201CBD000023
:1059600000E400E08C00002020ED00E010B50246CD
:105970000021012000F005F80446FFF74BF920460E
:1059800010BDF8B517460E46050014D0DEB105FB74
:1059900006F05430FFF7B8FB04000AD0002084F86A
:1059A000460004F154023B46314628460094FFF776
:1059B0003DF92046F8BD502080F31188BFF34F8F8A
:1059C000BFF36F8FFEE70020E3E738B5049D18B101
:1059D00053B1CAB181B120E0502080F31188BFF3E8
:1059E0004F8FBFF36F8FFEE7502080F31188BFF316
:1059F0004F8FBFF36F8FFEE7502080F31188BFF306
:105A00004F8FBFF36F8FFEE739B1502080F31188BD
:105A1000BFF34F8FBFF36F8FFEE754241C46012363
:105A200084F846302B460094FFF700F9204638BD35
:105A300070B50D46040025D0FFF7AEFCD4E90F2069
:105A4000216802FB001161600021A1632168A1604F
:105A50000A46D4E90F01401E00FB0121E160214606
:105A60004FF0FF3001F8440F487004F110008DB181
:105A7000FFF760FC04F12400FFF75CFCFFF7ACFCCF
:105A8000012070BD502080F31188BFF34F8FBFF30A
:105A90006F8FFEE721690029F0D000F015FB002888
:105AA000ECD004494FF080500860BFF34F8FBFF334
:105AB0006F8FE3E704ED00E02DE9FF4782B01D465C
:105AC0008A464FF00008040003D0BAF1000F08D056
:105AD00011E0502080F31188BFF34F8FBFF36F8F19
